{
  "address": "0x7e313CE900b8ba58368240925b5c5105F64c3c5a",
  "abi": [
    {
      "inputs": [
        {
          "internalType": "address",
          "name": "_aclManager",
          "type": "address"
        },
        {
          "internalType": "address",
          "name": "_configurator",
          "type": "address"
        },
        {
          "internalType": "address",
          "name": "_priceOracle",
          "type": "address"
        }
      ],
      "stateMutability": "nonpayable",
      "type": "constructor"
    },
    {
      "inputs": [],
      "name": "BorrowingNotEnabled",
      "type": "error"
    },
    {
      "inputs": [],
      "name": "InvalidDebtRepayment",
      "type": "error"
    },
    {
      "inputs": [],
      "name": "MultipleDebtsNotAllowed",
      "type": "error"
    },
    {
      "inputs": [],
      "name": "NoCollateralEnabled",
      "type": "error"
    },
    {
      "inputs": [],
      "name": "NotTheDesignatedCollateral",
      "type": "error"
    },
    {
      "inputs": [],
      "name": "OnlyEmergencyAdmin",
      "type": "error"
    },
    {
      "inputs": [],
      "name": "OnlyPoolAdmin",
      "type": "error"
    },
    {
      "inputs": [],
      "name": "OnlyPoolConfigurator",
      "type": "error"
    },
    {
      "inputs": [],
      "name": "OraclePriceZero",
      "type": "error"
    },
    {
      "inputs": [],
      "name": "ProtocolAlreadyPaused",
      "type": "error"
    },
    {
      "inputs": [],
      "name": "ProtocolNotPaused",
      "type": "error"
    },
    {
      "inputs": [],
      "name": "ProtocolPaused",
      "type": "error"
    },
    {
      "inputs": [],
      "name": "ReentrancyGuardReentrantCall",
      "type": "error"
    },
    {
      "inputs": [],
      "name": "ReserveAlreadyInitialized",
      "type": "error"
    },
    {
      "inputs": [],
      "name": "ReserveNotActive",
      "type": "error"
    },
    {
      "inputs": [],
      "name": "ReserveNotCollateral",
      "type": "error"
    },
    {
      "inputs": [],
      "name": "ReserveNotInitialized",
      "type": "error"
    },
    {
      "inputs": [],
      "name": "ZeroAddress",
      "type": "error"
    },
    {
      "anonymous": false,
      "inputs": [
        {
          "indexed": true,
          "internalType": "address",
          "name": "reserve",
          "type": "address"
        },
        {
          "indexed": true,
          "internalType": "address",
          "name": "user",
          "type": "address"
        }
      ],
      "name": "Borrow",
      "type": "event"
    },
    {
      "anonymous": false,
      "inputs": [
        {
          "indexed": true,
          "internalType": "address",
          "name": "admin",
          "type": "address"
        },
        {
          "indexed": false,
          "internalType": "uint64",
          "name": "timestamp",
          "type": "uint64"
        }
      ],
      "name": "ProtocolPaused",
      "type": "event"
    },
    {
      "anonymous": false,
      "inputs": [
        {
          "indexed": true,
          "internalType": "address",
          "name": "admin",
          "type": "address"
        },
        {
          "indexed": false,
          "internalType": "uint64",
          "name": "timestamp",
          "type": "uint64"
        }
      ],
      "name": "ProtocolUnpaused",
      "type": "event"
    },
    {
      "anonymous": false,
      "inputs": [
        {
          "indexed": true,
          "internalType": "address",
          "name": "reserve",
          "type": "address"
        },
        {
          "indexed": true,
          "internalType": "address",
          "name": "user",
          "type": "address"
        }
      ],
      "name": "Repay",
      "type": "event"
    },
    {
      "anonymous": false,
      "inputs": [
        {
          "indexed": true,
          "internalType": "address",
          "name": "reserve",
          "type": "address"
        },
        {
          "indexed": true,
          "internalType": "address",
          "name": "user",
          "type": "address"
        }
      ],
      "name": "Supply",
      "type": "event"
    },
    {
      "anonymous": false,
      "inputs": [
        {
          "indexed": true,
          "internalType": "address",
          "name": "user",
          "type": "address"
        },
        {
          "indexed": true,
          "internalType": "address",
          "name": "asset",
          "type": "address"
        },
        {
          "indexed": false,
          "internalType": "bool",
          "name": "useAsCollateral",
          "type": "bool"
        }
      ],
      "name": "UserCollateralChanged",
      "type": "event"
    },
    {
      "anonymous": false,
      "inputs": [
        {
          "indexed": true,
          "internalType": "address",
          "name": "reserve",
          "type": "address"
        },
        {
          "indexed": true,
          "internalType": "address",
          "name": "user",
          "type": "address"
        }
      ],
      "name": "Withdraw",
      "type": "event"
    },
    {
      "inputs": [],
      "name": "aclManager",
      "outputs": [
        {
          "internalType": "contract ACLManager",
          "name": "",
          "type": "address"
        }
      ],
      "stateMutability": "view",
      "type": "function"
    },
    {
      "inputs": [
        {
          "internalType": "address",
          "name": "asset",
          "type": "address"
        },
        {
          "internalType": "externalEuint64",
          "name": "amount",
          "type": "bytes32"
        },
        {
          "internalType": "bytes",
          "name": "inputProof",
          "type": "bytes"
        }
      ],
      "name": "borrow",
      "outputs": [],
      "stateMutability": "nonpayable",
      "type": "function"
    },
    {
      "inputs": [],
      "name": "cethAddress",
      "outputs": [
        {
          "internalType": "address",
          "name": "",
          "type": "address"
        }
      ],
      "stateMutability": "view",
      "type": "function"
    },
    {
      "inputs": [],
      "name": "configurator",
      "outputs": [
        {
          "internalType": "contract IConfidentialPoolConfigurator",
          "name": "",
          "type": "address"
        }
      ],
      "stateMutability": "view",
      "type": "function"
    },
    {
      "inputs": [
        {
          "internalType": "address",
          "name": "asset",
          "type": "address"
        }
      ],
      "name": "getReserveData",
      "outputs": [
        {
          "components": [
            {
              "internalType": "address",
              "name": "underlyingAsset",
              "type": "address"
            },
            {
              "internalType": "euint64",
              "name": "totalSupplied",
              "type": "bytes32"
            },
            {
              "internalType": "euint64",
              "name": "totalBorrowed",
              "type": "bytes32"
            },
            {
              "internalType": "euint64",
              "name": "availableLiquidity",
              "type": "bytes32"
            },
            {
              "internalType": "uint64",
              "name": "lastUpdateTimestamp",
              "type": "uint64"
            },
            {
              "internalType": "bool",
              "name": "active",
              "type": "bool"
            },
            {
              "internalType": "bool",
              "name": "borrowingEnabled",
              "type": "bool"
            },
            {
              "internalType": "bool",
              "name": "isCollateral",
              "type": "bool"
            },
            {
              "internalType": "bool",
              "name": "isPaused",
              "type": "bool"
            },
            {
              "internalType": "uint64",
              "name": "collateralFactor",
              "type": "uint64"
            },
            {
              "internalType": "uint64",
              "name": "supplyCap",
              "type": "uint64"
            },
            {
              "internalType": "uint64",
              "name": "borrowCap",
              "type": "uint64"
            },
            {
              "internalType": "uint8",
              "name": "decimals",
              "type": "uint8"
            }
          ],
          "internalType": "struct Types.ConfidentialReserve",
          "name": "",
          "type": "tuple"
        }
      ],
      "stateMutability": "view",
      "type": "function"
    },
    {
      "inputs": [],
      "name": "getReserveList",
      "outputs": [
        {
          "internalType": "address[]",
          "name": "",
          "type": "address[]"
        }
      ],
      "stateMutability": "view",
      "type": "function"
    },
    {
      "inputs": [
        {
          "internalType": "address",
          "name": "user",
          "type": "address"
        },
        {
          "internalType": "address",
          "name": "asset",
          "type": "address"
        }
      ],
      "name": "getUserBorrowedBalance",
      "outputs": [
        {
          "internalType": "euint64",
          "name": "",
          "type": "bytes32"
        }
      ],
      "stateMutability": "view",
      "type": "function"
    },
    {
      "inputs": [
        {
          "internalType": "address",
          "name": "user",
          "type": "address"
        }
      ],
      "name": "getUserPosition",
      "outputs": [
        {
          "components": [
            {
              "internalType": "bool",
              "name": "initialized",
              "type": "bool"
            },
            {
              "internalType": "address",
              "name": "currentDebtAsset",
              "type": "address"
            }
          ],
          "internalType": "struct Types.ConfidentialUserPosition",
          "name": "",
          "type": "tuple"
        }
      ],
      "stateMutability": "view",
      "type": "function"
    },
    {
      "inputs": [
        {
          "internalType": "address",
          "name": "user",
          "type": "address"
        },
        {
          "internalType": "address",
          "name": "asset",
          "type": "address"
        }
      ],
      "name": "getUserSuppliedBalance",
      "outputs": [
        {
          "internalType": "euint64",
          "name": "",
          "type": "bytes32"
        }
      ],
      "stateMutability": "view",
      "type": "function"
    },
    {
      "inputs": [
        {
          "internalType": "address",
          "name": "asset",
          "type": "address"
        },
        {
          "internalType": "bool",
          "name": "borrowingEnabled",
          "type": "bool"
        },
        {
          "internalType": "bool",
          "name": "isCollateral",
          "type": "bool"
        },
        {
          "internalType": "uint64",
          "name": "collateralFactor",
          "type": "uint64"
        }
      ],
      "name": "initReserve",
      "outputs": [],
      "stateMutability": "nonpayable",
      "type": "function"
    },
    {
      "inputs": [],
      "name": "pause",
      "outputs": [],
      "stateMutability": "nonpayable",
      "type": "function"
    },
    {
      "inputs": [],
      "name": "paused",
      "outputs": [
        {
          "internalType": "bool",
          "name": "",
          "type": "bool"
        }
      ],
      "stateMutability": "view",
      "type": "function"
    },
    {
      "inputs": [],
      "name": "priceOracle",
      "outputs": [
        {
          "internalType": "contract IPriceOracle",
          "name": "",
          "type": "address"
        }
      ],
      "stateMutability": "view",
      "type": "function"
    },
    {
      "inputs": [],
      "name": "protocolId",
      "outputs": [
        {
          "internalType": "uint256",
          "name": "",
          "type": "uint256"
        }
      ],
      "stateMutability": "pure",
      "type": "function"
    },
    {
      "inputs": [
        {
          "internalType": "address",
          "name": "asset",
          "type": "address"
        },
        {
          "internalType": "externalEuint64",
          "name": "amount",
          "type": "bytes32"
        },
        {
          "internalType": "bytes",
          "name": "inputProof",
          "type": "bytes"
        },
        {
          "internalType": "bool",
          "name": "isRepayingAll",
          "type": "bool"
        }
      ],
      "name": "repay",
      "outputs": [],
      "stateMutability": "nonpayable",
      "type": "function"
    },
    {
      "inputs": [
        {
          "internalType": "uint256",
          "name": "",
          "type": "uint256"
        }
      ],
      "name": "reserveList",
      "outputs": [
        {
          "internalType": "address",
          "name": "",
          "type": "address"
        }
      ],
      "stateMutability": "view",
      "type": "function"
    },
    {
      "inputs": [
        {
          "internalType": "address",
          "name": "",
          "type": "address"
        }
      ],
      "name": "reserves",
      "outputs": [
        {
          "internalType": "address",
          "name": "underlyingAsset",
          "type": "address"
        },
        {
          "internalType": "euint64",
          "name": "totalSupplied",
          "type": "bytes32"
        },
        {
          "internalType": "euint64",
          "name": "totalBorrowed",
          "type": "bytes32"
        },
        {
          "internalType": "euint64",
          "name": "availableLiquidity",
          "type": "bytes32"
        },
        {
          "internalType": "uint64",
          "name": "lastUpdateTimestamp",
          "type": "uint64"
        },
        {
          "internalType": "bool",
          "name": "active",
          "type": "bool"
        },
        {
          "internalType": "bool",
          "name": "borrowingEnabled",
          "type": "bool"
        },
        {
          "internalType": "bool",
          "name": "isCollateral",
          "type": "bool"
        },
        {
          "internalType": "bool",
          "name": "isPaused",
          "type": "bool"
        },
        {
          "internalType": "uint64",
          "name": "collateralFactor",
          "type": "uint64"
        },
        {
          "internalType": "uint64",
          "name": "supplyCap",
          "type": "uint64"
        },
        {
          "internalType": "uint64",
          "name": "borrowCap",
          "type": "uint64"
        },
        {
          "internalType": "uint8",
          "name": "decimals",
          "type": "uint8"
        }
      ],
      "stateMutability": "view",
      "type": "function"
    },
    {
      "inputs": [
        {
          "internalType": "address",
          "name": "_ceth",
          "type": "address"
        }
      ],
      "name": "setCollateralAsset",
      "outputs": [],
      "stateMutability": "nonpayable",
      "type": "function"
    },
    {
      "inputs": [
        {
          "internalType": "address",
          "name": "_configurator",
          "type": "address"
        }
      ],
      "name": "setConfigurator",
      "outputs": [],
      "stateMutability": "nonpayable",
      "type": "function"
    },
    {
      "inputs": [
        {
          "internalType": "address",
          "name": "_priceOracle",
          "type": "address"
        }
      ],
      "name": "setPriceOracle",
      "outputs": [],
      "stateMutability": "nonpayable",
      "type": "function"
    },
    {
      "inputs": [
        {
          "internalType": "address",
          "name": "asset",
          "type": "address"
        },
        {
          "internalType": "bool",
          "name": "useAsCollateral",
          "type": "bool"
        }
      ],
      "name": "setUserUseReserveAsCollateral",
      "outputs": [],
      "stateMutability": "nonpayable",
      "type": "function"
    },
    {
      "inputs": [
        {
          "internalType": "address",
          "name": "asset",
          "type": "address"
        },
        {
          "internalType": "externalEuint64",
          "name": "amount",
          "type": "bytes32"
        },
        {
          "internalType": "bytes",
          "name": "inputProof",
          "type": "bytes"
        }
      ],
      "name": "supply",
      "outputs": [],
      "stateMutability": "nonpayable",
      "type": "function"
    },
    {
      "inputs": [],
      "name": "unpause",
      "outputs": [],
      "stateMutability": "nonpayable",
      "type": "function"
    },
    {
      "inputs": [
        {
          "internalType": "address",
          "name": "asset",
          "type": "address"
        },
        {
          "internalType": "bool",
          "name": "active",
          "type": "bool"
        },
        {
          "internalType": "bool",
          "name": "borrowingEnabled",
          "type": "bool"
        },
        {
          "internalType": "bool",
          "name": "isCollateral",
          "type": "bool"
        },
        {
          "internalType": "uint64",
          "name": "collateralFactor",
          "type": "uint64"
        },
        {
          "internalType": "uint64",
          "name": "supplyCap",
          "type": "uint64"
        },
        {
          "internalType": "uint64",
          "name": "borrowCap",
          "type": "uint64"
        }
      ],
      "name": "updateReserveConfig",
      "outputs": [],
      "stateMutability": "nonpayable",
      "type": "function"
    },
    {
      "inputs": [
        {
          "internalType": "address",
          "name": "",
          "type": "address"
        },
        {
          "internalType": "address",
          "name": "",
          "type": "address"
        }
      ],
      "name": "userCollateralEnabled",
      "outputs": [
        {
          "internalType": "bool",
          "name": "",
          "type": "bool"
        }
      ],
      "stateMutability": "view",
      "type": "function"
    },
    {
      "inputs": [
        {
          "internalType": "address",
          "name": "asset",
          "type": "address"
        },
        {
          "internalType": "externalEuint64",
          "name": "amount",
          "type": "bytes32"
        },
        {
          "internalType": "bytes",
          "name": "inputProof",
          "type": "bytes"
        }
      ],
      "name": "withdraw",
      "outputs": [],
      "stateMutability": "nonpayable",
      "type": "function"
    }
  ],
  "transactionHash": "0x4e449a0ec44d5f4e34afe20c78fae9b6fdddbb8e97c6054ce1b5961b6354faaf",
  "args": [
    "0x30386680F2aF31ACa148795f2efBba6f32821d86",
    "0x744EC374B4a1A1F0433E31EEfc674E8Ff87E2347",
    "0xF6fb7E6e3d066fF69abca5587496C3E3911d9d98"
  ],
  "numDeployments": 1,
  "solcInputHash": "8113f0d68c0767482268f80893e38b98",
  "bytecode": "0x60a06040523461026857604051601f61308538819003918201601f19168301916001600160401b0383118484101761026c578084926060946040528339810103126102685761004d8161029f565b610065604061005e6020850161029f565b930161029f565b9060015f555f6060610075610280565b8281528260208201528260408201520152731364cbbf2cdf5032c47d8226a6f6fbd2afcdacac60606100a5610280565b73687820221192c5b662b25367f70076a37bc79b6c80825273848b0066793bcc60346da1f49049357399b8d5956020830181905273a02cda4ca3a71d7c46997716f4283aa851c288126040840181905293909201939093527f9e7b61f58c47dc699ac88507c4f5bb9f121c03808c5676a8078fe583e464970080546001600160a01b031990811690941790557f9e7b61f58c47dc699ac88507c4f5bb9f121c03808c5676a8078fe583e46497018054841690911790557f9e7b61f58c47dc699ac88507c4f5bb9f121c03808c5676a8078fe583e46497028054831690911790557f9e7b61f58c47dc699ac88507c4f5bb9f121c03808c5676a8078fe583e46497038054909116731364cbbf2cdf5032c47d8226a6f6fbd2afcdacac1790556001600160a01b0316918215610259576001600160a01b0316908115610259576001600160a01b031691821561025957608052600180546001600160a01b031916919091179055600280546001600160a81b031916919091179055604051612dd190816102b482396080518181816107600152818161096601528181611211015281816120bd015281816121b101526121fa0152f35b63d92e233d60e01b5f5260045ffd5b5f80fd5b634e487b7160e01b5f52604160045260245ffd5b60405190608082016001600160401b0381118382101761026c57604052565b51906001600160a01b03821682036102685756fe60806040526004361015610011575f80fd5b5f5f3560e01c8063251c8c3e146125735780632630c12f1461254d5780632b507df81461252757806335ea6a751461231d5780633f4ba83a146121d557806340298ed71461219257806349e3d5431461213e578063530e784f1461208957806358c23a3714611ea55780635a3b74b914611dc05780635b7c2dad14611d465780635c975abb14611d2157806366d4c41314611c5957806369a3b797146119455780636dc522c5146118ec5780637cccc42c1461135a5780638456cb59146111ec578063994dec9914610a375780639d6030a3146109f65780639f5f86ae14610932578063d2997d261461090c578063d66bd52414610824578063d82d84211461072c578063da1f12ab14610710578063eda5fd82146101885763fc7a9e2414610138575f80fd5b34610185576040366003190112610185576001600160a01b03604061015b6126db565b92826101656126f1565b9416815260076020522091165f52602052602060405f2054604051908152f35b80fd5b5034610693576080366003190112610693576101a26126db565b6101aa61277c565b906101b361278b565b906064359067ffffffffffffffff82168203610693576001600160a01b03600154163303610701576001600160a01b031692835f5260046020526001600160a01b0360405f2054166106f257835f526004602052600560405f20856001600160a01b0319825416178155610225612b16565b9260018201938455610310610238612b16565b95600284019687556102cb61024b612b16565b6003860190815560048601805469ff0000000000000000001968ffffffffffffffffff199091164267ffffffffffffffff161768010000000000000000171695151560481b69ff000000000000000000169590951785559884546aff00000000000000000000191690151560501b6aff0000000000000000000016178455565b82547fffffffffffffffffffffffff000000000000000000ffffffffffffffffffffff1660609190911b73ffffffffffffffff00000000000000000000000016178255565b805467ffffffffffffffff60a01b1916905501805467ffffffffffffffff1916815560405163313ce56760e01b8152602081600481895afa9081156106e7575f916106ab575b5068ff000000000000000082549160401b169068ff000000000000000019161790555491604091825161038984826127fa565b6001815260208101601f19850195863683378251156106975781526001600160a01b037f9e7b61f58c47dc699ac88507c4f5bb9f121c03808c5676a8078fe583e4649700541690813b15610693578551637d6e912360e11b815260206004820152925160248401819052839160448301915f5b81811061067a5750505091815f81819503925af180156106705761065b575b505482519061042a84836127fa565b600182526020820190853683378251156106475781526001600160a01b037f9e7b61f58c47dc699ac88507c4f5bb9f121c03808c5676a8078fe583e4649700541690813b15610643578451637d6e912360e11b815260206004820152925160248401819052889392916044840191855b81811061062a575050508391838381809403925af1801561062057610607575b505054918151926104cb83856127fa565b6001845260208401913683378351156105f35781526001600160a01b037f9e7b61f58c47dc699ac88507c4f5bb9f121c03808c5676a8078fe583e4649700541690813b156105ef578251637d6e912360e11b81526020600482015293516024850181905286949392916044850191865b8181106105d6575050508491848381809403925af19081156105cd57506105b4575b5050600554680100000000000000008110156105a05780600161058392016005556127a9565b6001600160a01b03829392549160031b92831b921b191617905580f35b634e487b7160e01b83526041600452602483fd5b816105be916127fa565b6105c957815f61055d565b5080fd5b513d84823e3d90fd5b825184528997506020938401939092019160010161053b565b8580fd5b634e487b7160e01b86526032600452602486fd5b81610611916127fa565b61061c57845f6104ba565b8480fd5b84513d84823e3d90fd5b825184528b96506020938401939092019160010161049a565b8780fd5b634e487b7160e01b88526032600452602488fd5b6106689196505f906127fa565b5f945f61041b565b84513d5f823e3d90fd5b82518452869450602093840193909201916001016103fc565b5f80fd5b634e487b7160e01b5f52603260045260245ffd5b90506020813d6020116106df575b816106c6602093836127fa565b81010312610693575160ff81168103610693575f610356565b3d91506106b9565b6040513d5f823e3d90fd5b63d71b1fd160e01b5f5260045ffd5b6380f0c77360e01b5f5260045ffd5b34610693575f3660031901126106935760206040516127118152f35b34610693576020366003190112610693576107456126db565b604051637be53ca160e01b81523360048201526020816024817f00000000000000000000000000000000000000000000000000000000000000006001600160a01b03165afa9081156106e7575f916107f5575b50156107e6576001600160a01b0316805f52600460205260ff600460405f20015460501c16156107d7576001600160a01b031960035416176003555f80f35b6323a6c9c560e01b5f5260045ffd5b63048ba6b760e01b5f5260045ffd5b610817915060203d60201161081d575b61080f81836127fa565b81019061281c565b82610798565b503d610805565b34610693576020366003190112610693576001600160a01b036108456126db565b165f5260046020526101a060405f2060ff6001600160a01b038254169167ffffffffffffffff600182015491600281015460038201549060056004840154930154946040519788526020880152604087015260608601528181166080860152838160401c16151560a0860152838160481c16151560c0860152838160501c16151560e0860152838160581c161515610100860152818160601c1661012086015260a01c1661014084015267ffffffffffffffff811661016084015260401c16610180820152f35b34610693575f3660031901126106935760206001600160a01b0360035416604051908152f35b346106935760203660031901126106935761094b6126db565b604051637be53ca160e01b81523360048201526020816024817f00000000000000000000000000000000000000000000000000000000000000006001600160a01b03165afa9081156106e7575f916109d7575b50156107e6576001600160a01b031680156109c8576001600160a01b031960015416176001555f80f35b63d92e233d60e01b5f5260045ffd5b6109f0915060203d60201161081d5761080f81836127fa565b8261099e565b3461069357602036600319011261069357600435600554811015610693576001600160a01b03610a276020926127a9565b90549060031b1c16604051908152f35b3461069357610a4536612735565b91610a5193919361289a565b60ff60025460a01c166111dd576001600160a01b03821693845f52600460205260ff600460405f20015460401c16156111ce57845f52600460205260ff600460405f20015460481c16156111bf57335f52600960205260405f206001600160a01b038060035416165f5260205260ff60405f205416156111b057335f52600860205260405f20936001600160a01b03855460081c168681151591826111a5575b505061119657610aff612b16565b91335f52600960205260405f206001600160a01b0360035416906001600160a01b0382165f5260205260ff60405f205416610fee575b5060249293875f52600460205260405f209260206001600160a01b0360025416604051968780926341976e0960e01b82528d60048301525afa9485156106e7575f95610fbd575b5067ffffffffffffffff851615610fae57610ba292610b9c913691612834565b906128b8565b92335f52600760205260405f20875f5260205260405f205492610bc3612b16565b90886001600160a01b03895460081c1614610f97575b610be39086612c74565b8180159182610f87575b8015610f75575b60209060646001600160a01b035f516020612da55f395f51905f525416955f604051978894859363022f65e760e31b8552600485015260248401528160448401525af19283156106e7575f93610f41575b5082918315610f31575b610f1f575b60209060646001600160a01b035f516020612da55f395f51905f525416935f6040519586948593637210768160e01b8552600485015260248401528160448401525af180156106e7575f90610eec575b602091506064610cb2612b16565b915f6001600160a01b035f516020612da55f395f51905f5254166040519687958694637702dcff60e01b86526004860152602485015260448401525af19081156106e7575f91610eb9575b50602091610d0a91612a91565b936064610d15612b16565b955f6001600160a01b035f516020612da55f395f51905f5254166040519889958694637702dcff60e01b86526004860152602485015260448401525af19283156106e7575f93610e85575b506040519263ae173cfd60e01b84528660048501526024840152604483015260648201528260848201523360a482015260208160c48173b8BdC715Fca254F5C6f36163b5F92161a3cf5E8C5af49081156106e7575f91610e53575b50335f52600760205260405f20845f5260205260405f20556001600160a01b03825460081c1615610e13575b33837f5eae930007ef728c929bc9de3153bbe9493376f7c7c23fe4930ee22e1279fca85f80a360015f55005b74ffffffffffffffffffffffffffffffffffffffff001974ffffffffffffffffffffffffffffffffffffffff0083549260081b1691161790558180610de7565b90506020813d602011610e7d575b81610e6e602093836127fa565b81010312610693575184610dbb565b3d9150610e61565b9092506020813d602011610eb1575b81610ea1602093836127fa565b8101031261069357519186610d60565b3d9150610e94565b90506020813d602011610ee4575b81610ed4602093836127fa565b8101031261069357516020610cfd565b3d9150610ec7565b506020813d602011610f17575b81610f06602093836127fa565b810103126106935760209051610ca4565b3d9150610ef9565b506020610f2a612b16565b9050610c54565b9150610f3b612b16565b91610c4f565b9092506020813d602011610f6d575b81610f5d602093836127fa565b810103126106935751918a610c45565b3d9150610f50565b506020610f80612b16565b9050610bf4565b9250610f91612b16565b92610bed565b9050610be3610fa68286612c74565b919050610bd9565b6315e5656b60e21b5f5260045ffd5b610fe091955060203d602011610fe7575b610fd881836127fa565b81019061287a565b9389610b7c565b503d610fce565b805f526004602052602460405f2060206001600160a01b0360025416604051938480926341976e0960e01b82528760048301525afa9182156106e7575f92611172575b5060040191825460ff8160401c169081611164575b5080611151575b611059575b5050610b35565b5f955061109361109f939267ffffffffffffffff9233895260066020526001600160a01b0360408a20911689526020526040882054612c74565b915460601c1690612d12565b801561113f575b5f516020612da55f395f51905f5254604051635a53accb60e01b815260048101929092526127106024830152600160f81b6044830152909360209185916064918391906001600160a01b03165af180156106e7575f9061110c575b925060248880611052565b506020833d602011611137575b81611126602093836127fa565b810103126106935760249251611101565b3d9150611119565b50602061114a612b16565b90506110a6565b5067ffffffffffffffff8216151561104d565b60ff915060501c168b611046565b600491925061118f9060203d602011610fe757610fd881836127fa565b9190611031565b63573ee37760e01b5f5260045ffd5b141590508688610af1565b637967eca560e01b5f5260045ffd5b635358774560e01b5f5260045ffd5b6340753f3360e01b5f5260045ffd5b634427925560e01b5f5260045ffd5b34610693575f36600319011261069357604051631280795b60e11b81523360048201527f00000000000000000000000000000000000000000000000000000000000000006001600160a01b0316602082602481845afa9182156106e7575f92611339575b5081156112e4575b50156112d55760025460ff8160a01c166112c65760ff60a01b197401000000000000000000000000000000000000000091161760025560405167ffffffffffffffff421681527f1c883451b4786346180a7d3731cbed7f2734b86a86c1c0d619c51af274f2ec6060203392a2005b631830796560e31b5f5260045ffd5b63c8cde3e360e01b5f5260045ffd5b604051637be53ca160e01b81523360048201529150602090829060249082905afa9081156106e7575f9161131a575b5081611258565b611333915060203d60201161081d5761080f81836127fa565b81611313565b61135391925060203d60201161081d5761080f81836127fa565b9082611250565b346106935761136836612735565b909261137261289a565b60ff60025460a01c166111dd576001600160a01b031691825f52600460205260ff600460405f20015460401c16156111ce576040519260a0840184811067ffffffffffffffff8211176118d85760405261141c60208501925f8452610b9c60408701975f895260608801966060885260808901975f8952868a52335f52600660205260405f20875f5260205260405f20548b52611410368385612834565b90523388523691612834565b82526001600160a01b036003541680911490816118ad575b50156117fe5751925190516001600160a01b031690611451612b16565b91805f5260086020526001600160a01b0360405f205460081c1680611731575b50506001600160a01b03600254169060206001600160a01b03600354166024604051809581936341976e0960e01b835260048301525afa9182156106e7575f92611710575b5067ffffffffffffffff8216156116cb576114d181866129dd565b906114da612b16565b8682156116bb575b87156116a9575b60209060646001600160a01b035f516020612da55f395f51905f525416945f60405196879485936303056db360e31b8552600485015260248401528160448401525af19182156106e7575f92611674575b506064602092935f6001600160a01b035f516020612da55f395f51905f5254166040519687958694637702dcff60e01b86526004860152602485015260448401525af19081156106e7575f9161163e575b509161159c6115a292602094612c74565b90612a91565b9260646115ad612b16565b945f6001600160a01b035f516020612da55f395f51905f5254166040519788958694637702dcff60e01b86526004860152602485015260448401525af19081156106e7575f91611608575b6116029250612b64565b60015f55005b90506020823d602011611636575b81611623602093836127fa565b81010312610693576116029151906115f8565b3d9150611616565b9290506020833d60201161166c575b8161165a602093836127fa565b8101031261069357915161159c61158b565b3d915061164d565b91506020823d6020116116a1575b8161168f602093836127fa565b8101031261069357905190606461153a565b3d9150611682565b5060206116b4612b16565b90506114e9565b91506116c5612b16565b916114e2565b60405162461bcd60e51b815260206004820152601160248201527f4f5241434c455f50524943455f5a45524f0000000000000000000000000000006044820152606490fd5b61172a91925060203d602011610fe757610fd881836127fa565b90856114b6565b602491815f52600460205260405f2060206001600160a01b0360025416604051958680926341976e0960e01b82528760048301525afa9384156106e7575f946117d7575b506004015460401c60ff16806117c4575b611791575b50611471565b6117bb9394505f5260076020526001600160a01b0360405f2091165f5260205260405f2054612c74565b9084808061178b565b5067ffffffffffffffff83161515611786565b60ff9194506117f660049160203d602011610fe757610fd881836127fa565b949150611775565b9260209150611811908451905190612a91565b9251606461181d612b16565b945f6001600160a01b035f516020612da55f395f51905f5254166040519788958694637702dcff60e01b86526004860152602485015260448401525af19081156106e7575f91611877575b6118729250612b64565b611602565b90506020823d6020116118a5575b81611892602093836127fa565b8101031261069357611872915190611868565b3d9150611885565b9050335f5260096020526001600160a01b0360405f2091165f5260205260ff60405f20541685611434565b634e487b7160e01b5f52604160045260245ffd5b34610693576040366003190112610693576119056126db565b6001600160a01b036119156126f1565b91165f5260096020526001600160a01b0360405f2091165f52602052602060ff60405f2054166040519015158152f35b346106935760803660031901126106935761195e6126db565b60443567ffffffffffffffff81116106935761197e903690600401612707565b909161198861279a565b9061199161289a565b60ff60025460a01c166111dd576001600160a01b031692835f52600460205260ff600460405f20015460401c16156111ce57335f52600860205260405f20926001600160a01b03845460081c16808614908115611c50575b5015611c4157611a06916119fe913691612834565b6024356128b8565b335f52600760205260405f20845f5260205260405f205490825f14611bad576020611a318383612a91565b9160646001600160a01b035f516020612da55f395f51905f525416935f6040519586948593637702dcff60e01b8552600485015260248401528760448401525af19081156106e7575f91611b7b575b50905b845f52600460205260405f206040519263517046ab60e01b845286600485015260248401526044830152606482015260208160848173b8BdC715Fca254F5C6f36163b5F92161a3cf5E8C5af49081156106e7575f91611b49575b50335f52600760205260405f20845f5260205260405f2055611b27575b5033907f7d361c02aa3e26ac9383eca42a9b4f42433e252882bfb806e8b76869b815250f5f80a360015f55005b74ffffffffffffffffffffffffffffffffffffffff0019815416905581611afa565b90506020813d602011611b73575b81611b64602093836127fa565b81010312610693575184611add565b3d9150611b57565b90506020813d602011611ba5575b81611b96602093836127fa565b81010312610693575185611a80565b3d9150611b89565b6020611bb983836129dd565b9160646001600160a01b035f516020612da55f395f51905f525416935f6040519586948593637702dcff60e01b8552600485015288602485015260448401525af19081156106e7575f91611c0f575b5090611a83565b90506020813d602011611c39575b81611c2a602093836127fa565b81010312610693575185611c08565b3d9150611c1d565b630749808d60e41b5f5260045ffd5b905015866119e9565b34610693575f366003190112610693576040518060206005549283815201809260055f527f036b6384b5eca791c62761152d0c79bb0604c104a5fb6f4eb0703f3154bb3db0905f5b818110611d025750505081611cb79103826127fa565b604051918291602083019060208452518091526040830191905f5b818110611ce0575050500390f35b82516001600160a01b0316845285945060209384019390920191600101611cd2565b82546001600160a01b0316845260209093019260019283019201611ca1565b34610693575f36600319011261069357602060ff60025460a01c166040519015158152f35b34610693576020366003190112610693576001600160a01b03611d676126db565b5f6020604051611d76816127de565b8281520152165f5260086020526040805f206001600160a01b03825191611d9c836127de565b5481602060ff8316151594858152019160081c168152835192835251166020820152f35b3461069357604036600319011261069357611dd96126db565b611de161277c565b9060ff60025460a01c166111dd576001600160a01b031690815f52600460205260ff600460405f20015460401c16156111ce576001600160a01b03600354168203611e9657815f52600460205260ff600460405f20015460501c16156107d757335f52600960205260405f20825f5260205260405f209015159060ff1981541660ff83161790556040519081527f0f3cbb56bcd64c784c68341cb9b9a8204d405c113579e2c1826f4675d07a291260203392a3005b6313700e3560e31b5f5260045ffd5b346106935760e036600319011261069357611ebe6126db565b611ec661277c565b611ece61278b565b611ed661279a565b906084359267ffffffffffffffff841684036106935760a43567ffffffffffffffff811681036106935760c4359567ffffffffffffffff87168703610693576001600160a01b03600154163303610701576001600160a01b031693845f5260046020526001600160a01b0360405f2054161561207a5767ffffffffffffffff95611fe861202d926005975f526004602052611fc060405f2097600489019768ff0000000000000000895491151560401b169068ff00000000000000001916178855879069ff000000000000000000825491151560481b169069ff0000000000000000001916179055565b85546aff00000000000000000000191690151560501b6aff0000000000000000000016178555565b83547fffffffffffffffffffffffff0000000000000000ffffffffffffffffffffffff1660609190911b73ffffffffffffffff00000000000000000000000016178355565b67ffffffffffffffff60a01b197bffffffffffffffff000000000000000000000000000000000000000083549260a01b16911617905501911667ffffffffffffffff198254161790555f80f35b630783692760e31b5f5260045ffd5b34610693576020366003190112610693576120a26126db565b604051637be53ca160e01b81523360048201526020816024817f00000000000000000000000000000000000000000000000000000000000000006001600160a01b03165afa9081156106e7575f9161211f575b50156107e6576001600160a01b031680156109c8576001600160a01b031960025416176002555f80f35b612138915060203d60201161081d5761080f81836127fa565b826120f5565b34610693576040366003190112610693576121576126db565b6001600160a01b036121676126f1565b91165f5260066020526001600160a01b0360405f2091165f52602052602060405f2054604051908152f35b34610693575f3660031901126106935760206040516001600160a01b037f0000000000000000000000000000000000000000000000000000000000000000168152f35b34610693575f36600319011261069357604051631280795b60e11b81523360048201527f00000000000000000000000000000000000000000000000000000000000000006001600160a01b0316602082602481845afa9182156106e7575f926122fc575b5081156122a7575b50156112d55760025460ff8160a01c16156122985760ff60a01b191660025560405167ffffffffffffffff421681527fa0d5a0d65544bc3ec189635834f7b55d45a6a96ddb4a916cdad7a168df7ff41b60203392a2005b6334c61a3f60e21b5f5260045ffd5b604051637be53ca160e01b81523360048201529150602090829060249082905afa9081156106e7575f916122dd575b5081612241565b6122f6915060203d60201161081d5761080f81836127fa565b816122d6565b61231691925060203d60201161081d5761080f81836127fa565b9082612239565b34610693576020366003190112610693576123366126db565b604051612342816127c1565b5f8152602081015f9052604081015f9052606081015f9052608081015f905260a081015f905260c081015f905260e081015f905261010081015f905261012081015f905261014081015f905261016081015f9052610180015f90526001600160a01b03165f52600460205260405f20604051906123be826127c1565b80546001600160a01b0316918281526001820154916020820192835260028101549060408301918252600381015491606084019283526004820154926080850167ffffffffffffffff8516815260a086018560401c60ff161515815260c08701918660481c60ff161515835260e08801938760501c60ff16151585526101008901958860581c60ff16151587526101208a01978960601c67ffffffffffffffff1689526101408b019960a01c67ffffffffffffffff168a52600501549a6101608b019a67ffffffffffffffff8d168c52610180019b60401c60ff168c526040519c8d525160208d01525160408c01525160608b01525167ffffffffffffffff1660808a015251151560a089015251151560c088015251151560e08701525115156101008601525167ffffffffffffffff166101208501525167ffffffffffffffff166101408401525167ffffffffffffffff166101608301525160ff166101808201526101a090f35b34610693575f3660031901126106935760206001600160a01b0360015416604051908152f35b34610693575f3660031901126106935760206001600160a01b0360025416604051908152f35b346106935761258136612735565b91909261258c61289a565b60ff60025460a01c166111dd576001600160a01b031692835f52600460205260ff600460405f20015460401c16156111ce5760e4602092855f52600484528460405f20335f526006865260405f20885f52865260405f2054335f526008875260405f209160405198899788966306c64f7d60e31b88528c6004890152602488015260c060448801528160c4880152878701375f8585018701526064850152608484015260a4830152601f01601f1916810103018173cf3A90FE441976dFe65391FF197815ca534B94505af49081156106e7575f916126a9575b50335f52600660205260405f20825f5260205260405f205533907f44367040a4a812a98f8bef9ec29c3a81d253411d511d3730901803c0c341c8d15f80a360015f55005b90506020813d6020116126d3575b816126c4602093836127fa565b81010312610693575182612665565b3d91506126b7565b600435906001600160a01b038216820361069357565b602435906001600160a01b038216820361069357565b9181601f840112156106935782359167ffffffffffffffff8311610693576020838186019501011161069357565b6060600319820112610693576004356001600160a01b03811681036106935791602435916044359067ffffffffffffffff82116106935761277891600401612707565b9091565b60243590811515820361069357565b60443590811515820361069357565b60643590811515820361069357565b6005548110156106975760055f5260205f2001905f90565b6101a0810190811067ffffffffffffffff8211176118d857604052565b6040810190811067ffffffffffffffff8211176118d857604052565b90601f8019910116810190811067ffffffffffffffff8211176118d857604052565b90816020910312610693575180151581036106935790565b92919267ffffffffffffffff82116118d8576040519161285e601f8201601f1916602001846127fa565b829481845281830111610693578281602093845f960137010152565b90816020910312610693575167ffffffffffffffff811681036106935790565b60025f54146128a95760025f55565b633ee5aeb560e01b5f5260045ffd5b60209182916001600160a01b035f516020612da55f395f51905f525416905f60a460405180978196829563196d0b9b60e01b84526004840152336024840152608060448401528051918291826084860152018484015e818101830184905260056064830152601f01601f191681010301925af19081156106e7575f916129ab575b506001600160a01b037f9e7b61f58c47dc699ac88507c4f5bb9f121c03808c5676a8078fe583e46497005416803b15610693575f8091604460405180948193630f8e573b60e21b83528760048401523360248401525af180156106e75761299e575090565b5f6129a8916127fa565b90565b90506020813d6020116129d5575b816129c6602093836127fa565b8101031261069357515f612939565b3d91506129b9565b908115612a81575b8015612a6f575b60209060646001600160a01b035f516020612da55f395f51905f525416935f60405195869485936385362ee760e01b8552600485015260248401528160448401525af19081156106e7575f91612a40575090565b90506020813d602011612a67575b81612a5b602093836127fa565b81010312610693575190565b3d9150612a4e565b506020612a7a612b16565b90506129ec565b9050612a8b612b16565b906129e5565b908115612b06575b8015612af4575b60209060646001600160a01b035f516020612da55f395f51905f525416935f6040519586948593631d44e90160e21b8552600485015260248401528160448401525af19081156106e7575f91612a40575090565b506020612aff612b16565b9050612aa0565b9050612b10612b16565b90612a99565b5f60206001600160a01b035f516020612da55f395f51905f525416604460405180948193639cd07acb60e01b8352816004840152600560248401525af19081156106e7575f91612a40575090565b6001600160a01b03815116805f52600460205260405f2092604083015160808401946001600160a01b03865116926040519463367dfd7d60e01b86526004860152602485015260448401526064830152608482015260208160a48173cf3A90FE441976dFe65391FF197815ca534B94505af49081156106e7575f91612c3b575b506001600160a01b03918291828551165f52600660205260405f208380845116165f5260205260405f20555116915116907f34d58c18c6c1df2c698ccac556acea92941ca7b99d2fccf9e3ac1852d0dec36f5f80a3565b90506020813d602011612c6c575b81612c56602093836127fa565b8101031261069357516001600160a01b03612be4565b3d9150612c49565b9067ffffffffffffffff811615612d0857612c8e91612d28565b8015612cf4575b5f516020612da55f395f51905f5254604051635a53accb60e01b81526004810192909252620f42406024830152600160f81b6044830152602090829060649082905f906001600160a01b03165af19081156106e7575f91612a40575090565b505f6020612d00612b16565b915050612c95565b50506129a8612b16565b9067ffffffffffffffff811615612d08576129a8915b67ffffffffffffffff916020918015612d92575b6064905f6001600160a01b035f516020612da55f395f51905f5254166040519687958694630afe14ad60e31b86526004860152166024840152600160f81b60448401525af19081156106e7575f91612a40575090565b506064612d9d612b16565b9050612d3c56fe9e7b61f58c47dc699ac88507c4f5bb9f121c03808c5676a8078fe583e4649701a164736f6c634300081b000a",
  "deployedBytecode": "0x60806040526004361015610011575f80fd5b5f5f3560e01c8063251c8c3e146125735780632630c12f1461254d5780632b507df81461252757806335ea6a751461231d5780633f4ba83a146121d557806340298ed71461219257806349e3d5431461213e578063530e784f1461208957806358c23a3714611ea55780635a3b74b914611dc05780635b7c2dad14611d465780635c975abb14611d2157806366d4c41314611c5957806369a3b797146119455780636dc522c5146118ec5780637cccc42c1461135a5780638456cb59146111ec578063994dec9914610a375780639d6030a3146109f65780639f5f86ae14610932578063d2997d261461090c578063d66bd52414610824578063d82d84211461072c578063da1f12ab14610710578063eda5fd82146101885763fc7a9e2414610138575f80fd5b34610185576040366003190112610185576001600160a01b03604061015b6126db565b92826101656126f1565b9416815260076020522091165f52602052602060405f2054604051908152f35b80fd5b5034610693576080366003190112610693576101a26126db565b6101aa61277c565b906101b361278b565b906064359067ffffffffffffffff82168203610693576001600160a01b03600154163303610701576001600160a01b031692835f5260046020526001600160a01b0360405f2054166106f257835f526004602052600560405f20856001600160a01b0319825416178155610225612b16565b9260018201938455610310610238612b16565b95600284019687556102cb61024b612b16565b6003860190815560048601805469ff0000000000000000001968ffffffffffffffffff199091164267ffffffffffffffff161768010000000000000000171695151560481b69ff000000000000000000169590951785559884546aff00000000000000000000191690151560501b6aff0000000000000000000016178455565b82547fffffffffffffffffffffffff000000000000000000ffffffffffffffffffffff1660609190911b73ffffffffffffffff00000000000000000000000016178255565b805467ffffffffffffffff60a01b1916905501805467ffffffffffffffff1916815560405163313ce56760e01b8152602081600481895afa9081156106e7575f916106ab575b5068ff000000000000000082549160401b169068ff000000000000000019161790555491604091825161038984826127fa565b6001815260208101601f19850195863683378251156106975781526001600160a01b037f9e7b61f58c47dc699ac88507c4f5bb9f121c03808c5676a8078fe583e4649700541690813b15610693578551637d6e912360e11b815260206004820152925160248401819052839160448301915f5b81811061067a5750505091815f81819503925af180156106705761065b575b505482519061042a84836127fa565b600182526020820190853683378251156106475781526001600160a01b037f9e7b61f58c47dc699ac88507c4f5bb9f121c03808c5676a8078fe583e4649700541690813b15610643578451637d6e912360e11b815260206004820152925160248401819052889392916044840191855b81811061062a575050508391838381809403925af1801561062057610607575b505054918151926104cb83856127fa565b6001845260208401913683378351156105f35781526001600160a01b037f9e7b61f58c47dc699ac88507c4f5bb9f121c03808c5676a8078fe583e4649700541690813b156105ef578251637d6e912360e11b81526020600482015293516024850181905286949392916044850191865b8181106105d6575050508491848381809403925af19081156105cd57506105b4575b5050600554680100000000000000008110156105a05780600161058392016005556127a9565b6001600160a01b03829392549160031b92831b921b191617905580f35b634e487b7160e01b83526041600452602483fd5b816105be916127fa565b6105c957815f61055d565b5080fd5b513d84823e3d90fd5b825184528997506020938401939092019160010161053b565b8580fd5b634e487b7160e01b86526032600452602486fd5b81610611916127fa565b61061c57845f6104ba565b8480fd5b84513d84823e3d90fd5b825184528b96506020938401939092019160010161049a565b8780fd5b634e487b7160e01b88526032600452602488fd5b6106689196505f906127fa565b5f945f61041b565b84513d5f823e3d90fd5b82518452869450602093840193909201916001016103fc565b5f80fd5b634e487b7160e01b5f52603260045260245ffd5b90506020813d6020116106df575b816106c6602093836127fa565b81010312610693575160ff81168103610693575f610356565b3d91506106b9565b6040513d5f823e3d90fd5b63d71b1fd160e01b5f5260045ffd5b6380f0c77360e01b5f5260045ffd5b34610693575f3660031901126106935760206040516127118152f35b34610693576020366003190112610693576107456126db565b604051637be53ca160e01b81523360048201526020816024817f00000000000000000000000000000000000000000000000000000000000000006001600160a01b03165afa9081156106e7575f916107f5575b50156107e6576001600160a01b0316805f52600460205260ff600460405f20015460501c16156107d7576001600160a01b031960035416176003555f80f35b6323a6c9c560e01b5f5260045ffd5b63048ba6b760e01b5f5260045ffd5b610817915060203d60201161081d575b61080f81836127fa565b81019061281c565b82610798565b503d610805565b34610693576020366003190112610693576001600160a01b036108456126db565b165f5260046020526101a060405f2060ff6001600160a01b038254169167ffffffffffffffff600182015491600281015460038201549060056004840154930154946040519788526020880152604087015260608601528181166080860152838160401c16151560a0860152838160481c16151560c0860152838160501c16151560e0860152838160581c161515610100860152818160601c1661012086015260a01c1661014084015267ffffffffffffffff811661016084015260401c16610180820152f35b34610693575f3660031901126106935760206001600160a01b0360035416604051908152f35b346106935760203660031901126106935761094b6126db565b604051637be53ca160e01b81523360048201526020816024817f00000000000000000000000000000000000000000000000000000000000000006001600160a01b03165afa9081156106e7575f916109d7575b50156107e6576001600160a01b031680156109c8576001600160a01b031960015416176001555f80f35b63d92e233d60e01b5f5260045ffd5b6109f0915060203d60201161081d5761080f81836127fa565b8261099e565b3461069357602036600319011261069357600435600554811015610693576001600160a01b03610a276020926127a9565b90549060031b1c16604051908152f35b3461069357610a4536612735565b91610a5193919361289a565b60ff60025460a01c166111dd576001600160a01b03821693845f52600460205260ff600460405f20015460401c16156111ce57845f52600460205260ff600460405f20015460481c16156111bf57335f52600960205260405f206001600160a01b038060035416165f5260205260ff60405f205416156111b057335f52600860205260405f20936001600160a01b03855460081c168681151591826111a5575b505061119657610aff612b16565b91335f52600960205260405f206001600160a01b0360035416906001600160a01b0382165f5260205260ff60405f205416610fee575b5060249293875f52600460205260405f209260206001600160a01b0360025416604051968780926341976e0960e01b82528d60048301525afa9485156106e7575f95610fbd575b5067ffffffffffffffff851615610fae57610ba292610b9c913691612834565b906128b8565b92335f52600760205260405f20875f5260205260405f205492610bc3612b16565b90886001600160a01b03895460081c1614610f97575b610be39086612c74565b8180159182610f87575b8015610f75575b60209060646001600160a01b035f516020612da55f395f51905f525416955f604051978894859363022f65e760e31b8552600485015260248401528160448401525af19283156106e7575f93610f41575b5082918315610f31575b610f1f575b60209060646001600160a01b035f516020612da55f395f51905f525416935f6040519586948593637210768160e01b8552600485015260248401528160448401525af180156106e7575f90610eec575b602091506064610cb2612b16565b915f6001600160a01b035f516020612da55f395f51905f5254166040519687958694637702dcff60e01b86526004860152602485015260448401525af19081156106e7575f91610eb9575b50602091610d0a91612a91565b936064610d15612b16565b955f6001600160a01b035f516020612da55f395f51905f5254166040519889958694637702dcff60e01b86526004860152602485015260448401525af19283156106e7575f93610e85575b506040519263ae173cfd60e01b84528660048501526024840152604483015260648201528260848201523360a482015260208160c48173__$655450a95bea827d0f31b36328057c76a3$__5af49081156106e7575f91610e53575b50335f52600760205260405f20845f5260205260405f20556001600160a01b03825460081c1615610e13575b33837f5eae930007ef728c929bc9de3153bbe9493376f7c7c23fe4930ee22e1279fca85f80a360015f55005b74ffffffffffffffffffffffffffffffffffffffff001974ffffffffffffffffffffffffffffffffffffffff0083549260081b1691161790558180610de7565b90506020813d602011610e7d575b81610e6e602093836127fa565b81010312610693575184610dbb565b3d9150610e61565b9092506020813d602011610eb1575b81610ea1602093836127fa565b8101031261069357519186610d60565b3d9150610e94565b90506020813d602011610ee4575b81610ed4602093836127fa565b8101031261069357516020610cfd565b3d9150610ec7565b506020813d602011610f17575b81610f06602093836127fa565b810103126106935760209051610ca4565b3d9150610ef9565b506020610f2a612b16565b9050610c54565b9150610f3b612b16565b91610c4f565b9092506020813d602011610f6d575b81610f5d602093836127fa565b810103126106935751918a610c45565b3d9150610f50565b506020610f80612b16565b9050610bf4565b9250610f91612b16565b92610bed565b9050610be3610fa68286612c74565b919050610bd9565b6315e5656b60e21b5f5260045ffd5b610fe091955060203d602011610fe7575b610fd881836127fa565b81019061287a565b9389610b7c565b503d610fce565b805f526004602052602460405f2060206001600160a01b0360025416604051938480926341976e0960e01b82528760048301525afa9182156106e7575f92611172575b5060040191825460ff8160401c169081611164575b5080611151575b611059575b5050610b35565b5f955061109361109f939267ffffffffffffffff9233895260066020526001600160a01b0360408a20911689526020526040882054612c74565b915460601c1690612d12565b801561113f575b5f516020612da55f395f51905f5254604051635a53accb60e01b815260048101929092526127106024830152600160f81b6044830152909360209185916064918391906001600160a01b03165af180156106e7575f9061110c575b925060248880611052565b506020833d602011611137575b81611126602093836127fa565b810103126106935760249251611101565b3d9150611119565b50602061114a612b16565b90506110a6565b5067ffffffffffffffff8216151561104d565b60ff915060501c168b611046565b600491925061118f9060203d602011610fe757610fd881836127fa565b9190611031565b63573ee37760e01b5f5260045ffd5b141590508688610af1565b637967eca560e01b5f5260045ffd5b635358774560e01b5f5260045ffd5b6340753f3360e01b5f5260045ffd5b634427925560e01b5f5260045ffd5b34610693575f36600319011261069357604051631280795b60e11b81523360048201527f00000000000000000000000000000000000000000000000000000000000000006001600160a01b0316602082602481845afa9182156106e7575f92611339575b5081156112e4575b50156112d55760025460ff8160a01c166112c65760ff60a01b197401000000000000000000000000000000000000000091161760025560405167ffffffffffffffff421681527f1c883451b4786346180a7d3731cbed7f2734b86a86c1c0d619c51af274f2ec6060203392a2005b631830796560e31b5f5260045ffd5b63c8cde3e360e01b5f5260045ffd5b604051637be53ca160e01b81523360048201529150602090829060249082905afa9081156106e7575f9161131a575b5081611258565b611333915060203d60201161081d5761080f81836127fa565b81611313565b61135391925060203d60201161081d5761080f81836127fa565b9082611250565b346106935761136836612735565b909261137261289a565b60ff60025460a01c166111dd576001600160a01b031691825f52600460205260ff600460405f20015460401c16156111ce576040519260a0840184811067ffffffffffffffff8211176118d85760405261141c60208501925f8452610b9c60408701975f895260608801966060885260808901975f8952868a52335f52600660205260405f20875f5260205260405f20548b52611410368385612834565b90523388523691612834565b82526001600160a01b036003541680911490816118ad575b50156117fe5751925190516001600160a01b031690611451612b16565b91805f5260086020526001600160a01b0360405f205460081c1680611731575b50506001600160a01b03600254169060206001600160a01b03600354166024604051809581936341976e0960e01b835260048301525afa9182156106e7575f92611710575b5067ffffffffffffffff8216156116cb576114d181866129dd565b906114da612b16565b8682156116bb575b87156116a9575b60209060646001600160a01b035f516020612da55f395f51905f525416945f60405196879485936303056db360e31b8552600485015260248401528160448401525af19182156106e7575f92611674575b506064602092935f6001600160a01b035f516020612da55f395f51905f5254166040519687958694637702dcff60e01b86526004860152602485015260448401525af19081156106e7575f9161163e575b509161159c6115a292602094612c74565b90612a91565b9260646115ad612b16565b945f6001600160a01b035f516020612da55f395f51905f5254166040519788958694637702dcff60e01b86526004860152602485015260448401525af19081156106e7575f91611608575b6116029250612b64565b60015f55005b90506020823d602011611636575b81611623602093836127fa565b81010312610693576116029151906115f8565b3d9150611616565b9290506020833d60201161166c575b8161165a602093836127fa565b8101031261069357915161159c61158b565b3d915061164d565b91506020823d6020116116a1575b8161168f602093836127fa565b8101031261069357905190606461153a565b3d9150611682565b5060206116b4612b16565b90506114e9565b91506116c5612b16565b916114e2565b60405162461bcd60e51b815260206004820152601160248201527f4f5241434c455f50524943455f5a45524f0000000000000000000000000000006044820152606490fd5b61172a91925060203d602011610fe757610fd881836127fa565b90856114b6565b602491815f52600460205260405f2060206001600160a01b0360025416604051958680926341976e0960e01b82528760048301525afa9384156106e7575f946117d7575b506004015460401c60ff16806117c4575b611791575b50611471565b6117bb9394505f5260076020526001600160a01b0360405f2091165f5260205260405f2054612c74565b9084808061178b565b5067ffffffffffffffff83161515611786565b60ff9194506117f660049160203d602011610fe757610fd881836127fa565b949150611775565b9260209150611811908451905190612a91565b9251606461181d612b16565b945f6001600160a01b035f516020612da55f395f51905f5254166040519788958694637702dcff60e01b86526004860152602485015260448401525af19081156106e7575f91611877575b6118729250612b64565b611602565b90506020823d6020116118a5575b81611892602093836127fa565b8101031261069357611872915190611868565b3d9150611885565b9050335f5260096020526001600160a01b0360405f2091165f5260205260ff60405f20541685611434565b634e487b7160e01b5f52604160045260245ffd5b34610693576040366003190112610693576119056126db565b6001600160a01b036119156126f1565b91165f5260096020526001600160a01b0360405f2091165f52602052602060ff60405f2054166040519015158152f35b346106935760803660031901126106935761195e6126db565b60443567ffffffffffffffff81116106935761197e903690600401612707565b909161198861279a565b9061199161289a565b60ff60025460a01c166111dd576001600160a01b031692835f52600460205260ff600460405f20015460401c16156111ce57335f52600860205260405f20926001600160a01b03845460081c16808614908115611c50575b5015611c4157611a06916119fe913691612834565b6024356128b8565b335f52600760205260405f20845f5260205260405f205490825f14611bad576020611a318383612a91565b9160646001600160a01b035f516020612da55f395f51905f525416935f6040519586948593637702dcff60e01b8552600485015260248401528760448401525af19081156106e7575f91611b7b575b50905b845f52600460205260405f206040519263517046ab60e01b845286600485015260248401526044830152606482015260208160848173__$655450a95bea827d0f31b36328057c76a3$__5af49081156106e7575f91611b49575b50335f52600760205260405f20845f5260205260405f2055611b27575b5033907f7d361c02aa3e26ac9383eca42a9b4f42433e252882bfb806e8b76869b815250f5f80a360015f55005b74ffffffffffffffffffffffffffffffffffffffff0019815416905581611afa565b90506020813d602011611b73575b81611b64602093836127fa565b81010312610693575184611add565b3d9150611b57565b90506020813d602011611ba5575b81611b96602093836127fa565b81010312610693575185611a80565b3d9150611b89565b6020611bb983836129dd565b9160646001600160a01b035f516020612da55f395f51905f525416935f6040519586948593637702dcff60e01b8552600485015288602485015260448401525af19081156106e7575f91611c0f575b5090611a83565b90506020813d602011611c39575b81611c2a602093836127fa565b81010312610693575185611c08565b3d9150611c1d565b630749808d60e41b5f5260045ffd5b905015866119e9565b34610693575f366003190112610693576040518060206005549283815201809260055f527f036b6384b5eca791c62761152d0c79bb0604c104a5fb6f4eb0703f3154bb3db0905f5b818110611d025750505081611cb79103826127fa565b604051918291602083019060208452518091526040830191905f5b818110611ce0575050500390f35b82516001600160a01b0316845285945060209384019390920191600101611cd2565b82546001600160a01b0316845260209093019260019283019201611ca1565b34610693575f36600319011261069357602060ff60025460a01c166040519015158152f35b34610693576020366003190112610693576001600160a01b03611d676126db565b5f6020604051611d76816127de565b8281520152165f5260086020526040805f206001600160a01b03825191611d9c836127de565b5481602060ff8316151594858152019160081c168152835192835251166020820152f35b3461069357604036600319011261069357611dd96126db565b611de161277c565b9060ff60025460a01c166111dd576001600160a01b031690815f52600460205260ff600460405f20015460401c16156111ce576001600160a01b03600354168203611e9657815f52600460205260ff600460405f20015460501c16156107d757335f52600960205260405f20825f5260205260405f209015159060ff1981541660ff83161790556040519081527f0f3cbb56bcd64c784c68341cb9b9a8204d405c113579e2c1826f4675d07a291260203392a3005b6313700e3560e31b5f5260045ffd5b346106935760e036600319011261069357611ebe6126db565b611ec661277c565b611ece61278b565b611ed661279a565b906084359267ffffffffffffffff841684036106935760a43567ffffffffffffffff811681036106935760c4359567ffffffffffffffff87168703610693576001600160a01b03600154163303610701576001600160a01b031693845f5260046020526001600160a01b0360405f2054161561207a5767ffffffffffffffff95611fe861202d926005975f526004602052611fc060405f2097600489019768ff0000000000000000895491151560401b169068ff00000000000000001916178855879069ff000000000000000000825491151560481b169069ff0000000000000000001916179055565b85546aff00000000000000000000191690151560501b6aff0000000000000000000016178555565b83547fffffffffffffffffffffffff0000000000000000ffffffffffffffffffffffff1660609190911b73ffffffffffffffff00000000000000000000000016178355565b67ffffffffffffffff60a01b197bffffffffffffffff000000000000000000000000000000000000000083549260a01b16911617905501911667ffffffffffffffff198254161790555f80f35b630783692760e31b5f5260045ffd5b34610693576020366003190112610693576120a26126db565b604051637be53ca160e01b81523360048201526020816024817f00000000000000000000000000000000000000000000000000000000000000006001600160a01b03165afa9081156106e7575f9161211f575b50156107e6576001600160a01b031680156109c8576001600160a01b031960025416176002555f80f35b612138915060203d60201161081d5761080f81836127fa565b826120f5565b34610693576040366003190112610693576121576126db565b6001600160a01b036121676126f1565b91165f5260066020526001600160a01b0360405f2091165f52602052602060405f2054604051908152f35b34610693575f3660031901126106935760206040516001600160a01b037f0000000000000000000000000000000000000000000000000000000000000000168152f35b34610693575f36600319011261069357604051631280795b60e11b81523360048201527f00000000000000000000000000000000000000000000000000000000000000006001600160a01b0316602082602481845afa9182156106e7575f926122fc575b5081156122a7575b50156112d55760025460ff8160a01c16156122985760ff60a01b191660025560405167ffffffffffffffff421681527fa0d5a0d65544bc3ec189635834f7b55d45a6a96ddb4a916cdad7a168df7ff41b60203392a2005b6334c61a3f60e21b5f5260045ffd5b604051637be53ca160e01b81523360048201529150602090829060249082905afa9081156106e7575f916122dd575b5081612241565b6122f6915060203d60201161081d5761080f81836127fa565b816122d6565b61231691925060203d60201161081d5761080f81836127fa565b9082612239565b34610693576020366003190112610693576123366126db565b604051612342816127c1565b5f8152602081015f9052604081015f9052606081015f9052608081015f905260a081015f905260c081015f905260e081015f905261010081015f905261012081015f905261014081015f905261016081015f9052610180015f90526001600160a01b03165f52600460205260405f20604051906123be826127c1565b80546001600160a01b0316918281526001820154916020820192835260028101549060408301918252600381015491606084019283526004820154926080850167ffffffffffffffff8516815260a086018560401c60ff161515815260c08701918660481c60ff161515835260e08801938760501c60ff16151585526101008901958860581c60ff16151587526101208a01978960601c67ffffffffffffffff1689526101408b019960a01c67ffffffffffffffff168a52600501549a6101608b019a67ffffffffffffffff8d168c52610180019b60401c60ff168c526040519c8d525160208d01525160408c01525160608b01525167ffffffffffffffff1660808a015251151560a089015251151560c088015251151560e08701525115156101008601525167ffffffffffffffff166101208501525167ffffffffffffffff166101408401525167ffffffffffffffff166101608301525160ff166101808201526101a090f35b34610693575f3660031901126106935760206001600160a01b0360015416604051908152f35b34610693575f3660031901126106935760206001600160a01b0360025416604051908152f35b346106935761258136612735565b91909261258c61289a565b60ff60025460a01c166111dd576001600160a01b031692835f52600460205260ff600460405f20015460401c16156111ce5760e4602092855f52600484528460405f20335f526006865260405f20885f52865260405f2054335f526008875260405f209160405198899788966306c64f7d60e31b88528c6004890152602488015260c060448801528160c4880152878701375f8585018701526064850152608484015260a4830152601f01601f1916810103018173__$485e288c6d7754e653a92a5c1b795be3cc$__5af49081156106e7575f916126a9575b50335f52600660205260405f20825f5260205260405f205533907f44367040a4a812a98f8bef9ec29c3a81d253411d511d3730901803c0c341c8d15f80a360015f55005b90506020813d6020116126d3575b816126c4602093836127fa565b81010312610693575182612665565b3d91506126b7565b600435906001600160a01b038216820361069357565b602435906001600160a01b038216820361069357565b9181601f840112156106935782359167ffffffffffffffff8311610693576020838186019501011161069357565b6060600319820112610693576004356001600160a01b03811681036106935791602435916044359067ffffffffffffffff82116106935761277891600401612707565b9091565b60243590811515820361069357565b60443590811515820361069357565b60643590811515820361069357565b6005548110156106975760055f5260205f2001905f90565b6101a0810190811067ffffffffffffffff8211176118d857604052565b6040810190811067ffffffffffffffff8211176118d857604052565b90601f8019910116810190811067ffffffffffffffff8211176118d857604052565b90816020910312610693575180151581036106935790565b92919267ffffffffffffffff82116118d8576040519161285e601f8201601f1916602001846127fa565b829481845281830111610693578281602093845f960137010152565b90816020910312610693575167ffffffffffffffff811681036106935790565b60025f54146128a95760025f55565b633ee5aeb560e01b5f5260045ffd5b60209182916001600160a01b035f516020612da55f395f51905f525416905f60a460405180978196829563196d0b9b60e01b84526004840152336024840152608060448401528051918291826084860152018484015e818101830184905260056064830152601f01601f191681010301925af19081156106e7575f916129ab575b506001600160a01b037f9e7b61f58c47dc699ac88507c4f5bb9f121c03808c5676a8078fe583e46497005416803b15610693575f8091604460405180948193630f8e573b60e21b83528760048401523360248401525af180156106e75761299e575090565b5f6129a8916127fa565b90565b90506020813d6020116129d5575b816129c6602093836127fa565b8101031261069357515f612939565b3d91506129b9565b908115612a81575b8015612a6f575b60209060646001600160a01b035f516020612da55f395f51905f525416935f60405195869485936385362ee760e01b8552600485015260248401528160448401525af19081156106e7575f91612a40575090565b90506020813d602011612a67575b81612a5b602093836127fa565b81010312610693575190565b3d9150612a4e565b506020612a7a612b16565b90506129ec565b9050612a8b612b16565b906129e5565b908115612b06575b8015612af4575b60209060646001600160a01b035f516020612da55f395f51905f525416935f6040519586948593631d44e90160e21b8552600485015260248401528160448401525af19081156106e7575f91612a40575090565b506020612aff612b16565b9050612aa0565b9050612b10612b16565b90612a99565b5f60206001600160a01b035f516020612da55f395f51905f525416604460405180948193639cd07acb60e01b8352816004840152600560248401525af19081156106e7575f91612a40575090565b6001600160a01b03815116805f52600460205260405f2092604083015160808401946001600160a01b03865116926040519463367dfd7d60e01b86526004860152602485015260448401526064830152608482015260208160a48173__$485e288c6d7754e653a92a5c1b795be3cc$__5af49081156106e7575f91612c3b575b506001600160a01b03918291828551165f52600660205260405f208380845116165f5260205260405f20555116915116907f34d58c18c6c1df2c698ccac556acea92941ca7b99d2fccf9e3ac1852d0dec36f5f80a3565b90506020813d602011612c6c575b81612c56602093836127fa565b8101031261069357516001600160a01b03612be4565b3d9150612c49565b9067ffffffffffffffff811615612d0857612c8e91612d28565b8015612cf4575b5f516020612da55f395f51905f5254604051635a53accb60e01b81526004810192909252620f42406024830152600160f81b6044830152602090829060649082905f906001600160a01b03165af19081156106e7575f91612a40575090565b505f6020612d00612b16565b915050612c95565b50506129a8612b16565b9067ffffffffffffffff811615612d08576129a8915b67ffffffffffffffff916020918015612d92575b6064905f6001600160a01b035f516020612da55f395f51905f5254166040519687958694630afe14ad60e31b86526004860152166024840152600160f81b60448401525af19081156106e7575f91612a40575090565b506064612d9d612b16565b9050612d3c56fe9e7b61f58c47dc699ac88507c4f5bb9f121c03808c5676a8078fe583e4649701a164736f6c634300081b000a",
  "libraries": {
    "SupplyLogic": "0xcf3A90FE441976dFe65391FF197815ca534B9450",
    "BorrowLogic": "0xb8BdC715Fca254F5C6f36163b5F92161a3cf5E8C"
  },
  "devdoc": {
    "errors": {
      "ReentrancyGuardReentrantCall()": [
        {
          "details": "Unauthorized reentrant call."
        }
      ]
    },
    "kind": "dev",
    "methods": {
      "repay(address,bytes32,bytes,bool)": {
        "params": {
          "amount": "The encrypted amount (normalized to 6 decimals) to repay.",
          "asset": "The address of the asset to repay.",
          "inputProof": "FHEVM input proof for the encrypted amount.",
          "isRepayingAll": "A public bool to signal intent to clear the debt. If true, the function will clear the user's debt asset (set `currentDebtAsset` to address(0)). The repayment amount will be capped at the user's total debt - if the provided amount is less than the debt, only that amount is repaid; if greater, it's capped at the total debt. This ensures safe repayment without reverting due to amount mismatches."
        }
      }
    },
    "version": 1
  },
  "userdoc": {
    "errors": {
      "BorrowingNotEnabled()": [
        {
          "notice": "Borrowing is not enabled for this reserve."
        }
      ],
      "InvalidDebtRepayment()": [
        {
          "notice": "Invalid debt repayment."
        }
      ],
      "MultipleDebtsNotAllowed()": [
        {
          "notice": "Multiple debts are not allowed."
        }
      ],
      "NoCollateralEnabled()": [
        {
          "notice": "No collateral is enabled."
        }
      ],
      "NotTheDesignatedCollateral()": [
        {
          "notice": "Not the designated collateral."
        }
      ],
      "OnlyEmergencyAdmin()": [
        {
          "notice": "Caller is not authorized to perform the requested action."
        }
      ],
      "OnlyPoolAdmin()": [
        {
          "notice": "Caller is not authorized to perform the requested action."
        }
      ],
      "OnlyPoolConfigurator()": [
        {
          "notice": "Caller is not authorized to perform the requested action."
        }
      ],
      "OraclePriceZero()": [
        {
          "notice": "Oracle price is zero."
        }
      ],
      "ProtocolAlreadyPaused()": [
        {
          "notice": "Protocol is already paused."
        }
      ],
      "ProtocolNotPaused()": [
        {
          "notice": "Protocol is not paused."
        }
      ],
      "ProtocolPaused()": [
        {
          "notice": "Protocol is currently paused."
        }
      ],
      "ReserveAlreadyInitialized()": [
        {
          "notice": "Reserve is already initialized."
        }
      ],
      "ReserveNotActive()": [
        {
          "notice": "The reserve is not active."
        }
      ],
      "ReserveNotCollateral()": [
        {
          "notice": "The reserve is not collateral."
        }
      ],
      "ReserveNotInitialized()": [
        {
          "notice": "Reserve is not initialized."
        }
      ],
      "ZeroAddress()": [
        {
          "notice": "Address parameter is the zero address."
        }
      ]
    },
    "kind": "user",
    "methods": {
      "repay(address,bytes32,bytes,bool)": {
        "notice": "Repay logic - Calls BorrowLogic"
      }
    },
    "version": 1
  },
  "storageLayout": {
    "storage": [
      {
        "astId": 41780,
        "contract": "contracts/protocol/ConfidentialLendingPool.sol:ConfidentialLendingPool",
        "label": "_status",
        "offset": 0,
        "slot": "0",
        "type": "t_uint256"
      },
      {
        "astId": 43234,
        "contract": "contracts/protocol/ConfidentialLendingPool.sol:ConfidentialLendingPool",
        "label": "configurator",
        "offset": 0,
        "slot": "1",
        "type": "t_contract(IConfidentialPoolConfigurator)42437"
      },
      {
        "astId": 43237,
        "contract": "contracts/protocol/ConfidentialLendingPool.sol:ConfidentialLendingPool",
        "label": "priceOracle",
        "offset": 0,
        "slot": "2",
        "type": "t_contract(IPriceOracle)42474"
      },
      {
        "astId": 43239,
        "contract": "contracts/protocol/ConfidentialLendingPool.sol:ConfidentialLendingPool",
        "label": "paused",
        "offset": 20,
        "slot": "2",
        "type": "t_bool"
      },
      {
        "astId": 43241,
        "contract": "contracts/protocol/ConfidentialLendingPool.sol:ConfidentialLendingPool",
        "label": "cethAddress",
        "offset": 0,
        "slot": "3",
        "type": "t_address"
      },
      {
        "astId": 43246,
        "contract": "contracts/protocol/ConfidentialLendingPool.sol:ConfidentialLendingPool",
        "label": "reserves",
        "offset": 0,
        "slot": "4",
        "type": "t_mapping(t_address,t_struct(ConfidentialReserve)43137_storage)"
      },
      {
        "astId": 43249,
        "contract": "contracts/protocol/ConfidentialLendingPool.sol:ConfidentialLendingPool",
        "label": "reserveList",
        "offset": 0,
        "slot": "5",
        "type": "t_array(t_address)dyn_storage"
      },
      {
        "astId": 43256,
        "contract": "contracts/protocol/ConfidentialLendingPool.sol:ConfidentialLendingPool",
        "label": "_userSuppliedBalances",
        "offset": 0,
        "slot": "6",
        "type": "t_mapping(t_address,t_mapping(t_address,t_userDefinedValueType(euint64)46906))"
      },
      {
        "astId": 43263,
        "contract": "contracts/protocol/ConfidentialLendingPool.sol:ConfidentialLendingPool",
        "label": "_userBorrowedBalances",
        "offset": 0,
        "slot": "7",
        "type": "t_mapping(t_address,t_mapping(t_address,t_userDefinedValueType(euint64)46906))"
      },
      {
        "astId": 43268,
        "contract": "contracts/protocol/ConfidentialLendingPool.sol:ConfidentialLendingPool",
        "label": "_userPositions",
        "offset": 0,
        "slot": "8",
        "type": "t_mapping(t_address,t_struct(ConfidentialUserPosition)43143_storage)"
      },
      {
        "astId": 43274,
        "contract": "contracts/protocol/ConfidentialLendingPool.sol:ConfidentialLendingPool",
        "label": "userCollateralEnabled",
        "offset": 0,
        "slot": "9",
        "type": "t_mapping(t_address,t_mapping(t_address,t_bool))"
      }
    ],
    "types": {
      "t_address": {
        "encoding": "inplace",
        "label": "address",
        "numberOfBytes": "20"
      },
      "t_array(t_address)dyn_storage": {
        "base": "t_address",
        "encoding": "dynamic_array",
        "label": "address[]",
        "numberOfBytes": "32"
      },
      "t_bool": {
        "encoding": "inplace",
        "label": "bool",
        "numberOfBytes": "1"
      },
      "t_contract(IConfidentialPoolConfigurator)42437": {
        "encoding": "inplace",
        "label": "contract IConfidentialPoolConfigurator",
        "numberOfBytes": "20"
      },
      "t_contract(IPriceOracle)42474": {
        "encoding": "inplace",
        "label": "contract IPriceOracle",
        "numberOfBytes": "20"
      },
      "t_mapping(t_address,t_bool)": {
        "encoding": "mapping",
        "key": "t_address",
        "label": "mapping(address => bool)",
        "numberOfBytes": "32",
        "value": "t_bool"
      },
      "t_mapping(t_address,t_mapping(t_address,t_bool))": {
        "encoding": "mapping",
        "key": "t_address",
        "label": "mapping(address => mapping(address => bool))",
        "numberOfBytes": "32",
        "value": "t_mapping(t_address,t_bool)"
      },
      "t_mapping(t_address,t_mapping(t_address,t_userDefinedValueType(euint64)46906))": {
        "encoding": "mapping",
        "key": "t_address",
        "label": "mapping(address => mapping(address => euint64))",
        "numberOfBytes": "32",
        "value": "t_mapping(t_address,t_userDefinedValueType(euint64)46906)"
      },
      "t_mapping(t_address,t_struct(ConfidentialReserve)43137_storage)": {
        "encoding": "mapping",
        "key": "t_address",
        "label": "mapping(address => struct Types.ConfidentialReserve)",
        "numberOfBytes": "32",
        "value": "t_struct(ConfidentialReserve)43137_storage"
      },
      "t_mapping(t_address,t_struct(ConfidentialUserPosition)43143_storage)": {
        "encoding": "mapping",
        "key": "t_address",
        "label": "mapping(address => struct Types.ConfidentialUserPosition)",
        "numberOfBytes": "32",
        "value": "t_struct(ConfidentialUserPosition)43143_storage"
      },
      "t_mapping(t_address,t_userDefinedValueType(euint64)46906)": {
        "encoding": "mapping",
        "key": "t_address",
        "label": "mapping(address => euint64)",
        "numberOfBytes": "32",
        "value": "t_userDefinedValueType(euint64)46906"
      },
      "t_struct(ConfidentialReserve)43137_storage": {
        "encoding": "inplace",
        "label": "struct Types.ConfidentialReserve",
        "members": [
          {
            "astId": 43109,
            "contract": "contracts/protocol/ConfidentialLendingPool.sol:ConfidentialLendingPool",
            "label": "underlyingAsset",
            "offset": 0,
            "slot": "0",
            "type": "t_address"
          },
          {
            "astId": 43112,
            "contract": "contracts/protocol/ConfidentialLendingPool.sol:ConfidentialLendingPool",
            "label": "totalSupplied",
            "offset": 0,
            "slot": "1",
            "type": "t_userDefinedValueType(euint64)46906"
          },
          {
            "astId": 43115,
            "contract": "contracts/protocol/ConfidentialLendingPool.sol:ConfidentialLendingPool",
            "label": "totalBorrowed",
            "offset": 0,
            "slot": "2",
            "type": "t_userDefinedValueType(euint64)46906"
          },
          {
            "astId": 43118,
            "contract": "contracts/protocol/ConfidentialLendingPool.sol:ConfidentialLendingPool",
            "label": "availableLiquidity",
            "offset": 0,
            "slot": "3",
            "type": "t_userDefinedValueType(euint64)46906"
          },
          {
            "astId": 43120,
            "contract": "contracts/protocol/ConfidentialLendingPool.sol:ConfidentialLendingPool",
            "label": "lastUpdateTimestamp",
            "offset": 0,
            "slot": "4",
            "type": "t_uint64"
          },
          {
            "astId": 43122,
            "contract": "contracts/protocol/ConfidentialLendingPool.sol:ConfidentialLendingPool",
            "label": "active",
            "offset": 8,
            "slot": "4",
            "type": "t_bool"
          },
          {
            "astId": 43124,
            "contract": "contracts/protocol/ConfidentialLendingPool.sol:ConfidentialLendingPool",
            "label": "borrowingEnabled",
            "offset": 9,
            "slot": "4",
            "type": "t_bool"
          },
          {
            "astId": 43126,
            "contract": "contracts/protocol/ConfidentialLendingPool.sol:ConfidentialLendingPool",
            "label": "isCollateral",
            "offset": 10,
            "slot": "4",
            "type": "t_bool"
          },
          {
            "astId": 43128,
            "contract": "contracts/protocol/ConfidentialLendingPool.sol:ConfidentialLendingPool",
            "label": "isPaused",
            "offset": 11,
            "slot": "4",
            "type": "t_bool"
          },
          {
            "astId": 43130,
            "contract": "contracts/protocol/ConfidentialLendingPool.sol:ConfidentialLendingPool",
            "label": "collateralFactor",
            "offset": 12,
            "slot": "4",
            "type": "t_uint64"
          },
          {
            "astId": 43132,
            "contract": "contracts/protocol/ConfidentialLendingPool.sol:ConfidentialLendingPool",
            "label": "supplyCap",
            "offset": 20,
            "slot": "4",
            "type": "t_uint64"
          },
          {
            "astId": 43134,
            "contract": "contracts/protocol/ConfidentialLendingPool.sol:ConfidentialLendingPool",
            "label": "borrowCap",
            "offset": 0,
            "slot": "5",
            "type": "t_uint64"
          },
          {
            "astId": 43136,
            "contract": "contracts/protocol/ConfidentialLendingPool.sol:ConfidentialLendingPool",
            "label": "decimals",
            "offset": 8,
            "slot": "5",
            "type": "t_uint8"
          }
        ],
        "numberOfBytes": "192"
      },
      "t_struct(ConfidentialUserPosition)43143_storage": {
        "encoding": "inplace",
        "label": "struct Types.ConfidentialUserPosition",
        "members": [
          {
            "astId": 43140,
            "contract": "contracts/protocol/ConfidentialLendingPool.sol:ConfidentialLendingPool",
            "label": "initialized",
            "offset": 0,
            "slot": "0",
            "type": "t_bool"
          },
          {
            "astId": 43142,
            "contract": "contracts/protocol/ConfidentialLendingPool.sol:ConfidentialLendingPool",
            "label": "currentDebtAsset",
            "offset": 1,
            "slot": "0",
            "type": "t_address"
          }
        ],
        "numberOfBytes": "32"
      },
      "t_uint256": {
        "encoding": "inplace",
        "label": "uint256",
        "numberOfBytes": "32"
      },
      "t_uint64": {
        "encoding": "inplace",
        "label": "uint64",
        "numberOfBytes": "8"
      },
      "t_uint8": {
        "encoding": "inplace",
        "label": "uint8",
        "numberOfBytes": "1"
      },
      "t_userDefinedValueType(euint64)46906": {
        "encoding": "inplace",
        "label": "euint64",
        "numberOfBytes": "32"
      }
    }
  }
}