{
  "address": "0xF78b2ed527854458Bd1119e43a01101CE5a08CF2",
  "abi": [
    {
      "inputs": [
        {
          "internalType": "address",
          "name": "_aclManager",
          "type": "address"
        }
      ],
      "stateMutability": "nonpayable",
      "type": "constructor"
    },
    {
      "inputs": [
        {
          "internalType": "address",
          "name": "owner",
          "type": "address"
        }
      ],
      "name": "OwnableInvalidOwner",
      "type": "error"
    },
    {
      "inputs": [
        {
          "internalType": "address",
          "name": "account",
          "type": "address"
        }
      ],
      "name": "OwnableUnauthorizedAccount",
      "type": "error"
    },
    {
      "anonymous": false,
      "inputs": [
        {
          "indexed": true,
          "internalType": "address",
          "name": "asset",
          "type": "address"
        },
        {
          "indexed": false,
          "internalType": "uint64",
          "name": "cap",
          "type": "uint64"
        }
      ],
      "name": "BorrowCapUpdated",
      "type": "event"
    },
    {
      "anonymous": false,
      "inputs": [
        {
          "indexed": true,
          "internalType": "address",
          "name": "asset",
          "type": "address"
        },
        {
          "indexed": false,
          "internalType": "uint64",
          "name": "factor",
          "type": "uint64"
        }
      ],
      "name": "CollateralFactorUpdated",
      "type": "event"
    },
    {
      "anonymous": false,
      "inputs": [
        {
          "indexed": true,
          "internalType": "address",
          "name": "previousOwner",
          "type": "address"
        },
        {
          "indexed": true,
          "internalType": "address",
          "name": "newOwner",
          "type": "address"
        }
      ],
      "name": "OwnershipTransferred",
      "type": "event"
    },
    {
      "anonymous": false,
      "inputs": [
        {
          "indexed": true,
          "internalType": "address",
          "name": "asset",
          "type": "address"
        },
        {
          "indexed": false,
          "internalType": "bool",
          "name": "active",
          "type": "bool"
        }
      ],
      "name": "ReserveActiveChanged",
      "type": "event"
    },
    {
      "anonymous": false,
      "inputs": [
        {
          "indexed": true,
          "internalType": "address",
          "name": "asset",
          "type": "address"
        },
        {
          "indexed": false,
          "internalType": "bool",
          "name": "enabled",
          "type": "bool"
        }
      ],
      "name": "ReserveBorrowingChanged",
      "type": "event"
    },
    {
      "anonymous": false,
      "inputs": [
        {
          "indexed": true,
          "internalType": "address",
          "name": "asset",
          "type": "address"
        },
        {
          "indexed": false,
          "internalType": "bool",
          "name": "enabled",
          "type": "bool"
        }
      ],
      "name": "ReserveCollateralChanged",
      "type": "event"
    },
    {
      "anonymous": false,
      "inputs": [
        {
          "indexed": true,
          "internalType": "address",
          "name": "asset",
          "type": "address"
        },
        {
          "indexed": false,
          "internalType": "bool",
          "name": "borrowingEnabled",
          "type": "bool"
        },
        {
          "indexed": false,
          "internalType": "bool",
          "name": "isCollateral",
          "type": "bool"
        }
      ],
      "name": "ReserveInitialized",
      "type": "event"
    },
    {
      "anonymous": false,
      "inputs": [
        {
          "indexed": true,
          "internalType": "address",
          "name": "asset",
          "type": "address"
        }
      ],
      "name": "ReservePaused",
      "type": "event"
    },
    {
      "anonymous": false,
      "inputs": [
        {
          "indexed": true,
          "internalType": "address",
          "name": "asset",
          "type": "address"
        }
      ],
      "name": "ReserveUnpaused",
      "type": "event"
    },
    {
      "anonymous": false,
      "inputs": [
        {
          "indexed": true,
          "internalType": "address",
          "name": "asset",
          "type": "address"
        },
        {
          "indexed": false,
          "internalType": "uint64",
          "name": "cap",
          "type": "uint64"
        }
      ],
      "name": "SupplyCapUpdated",
      "type": "event"
    },
    {
      "inputs": [],
      "name": "aclManager",
      "outputs": [
        {
          "internalType": "contract IACLManager",
          "name": "",
          "type": "address"
        }
      ],
      "stateMutability": "view",
      "type": "function"
    },
    {
      "inputs": [
        {
          "internalType": "address",
          "name": "asset",
          "type": "address"
        }
      ],
      "name": "getReserveConfig",
      "outputs": [
        {
          "components": [
            {
              "internalType": "address",
              "name": "underlyingAsset",
              "type": "address"
            },
            {
              "internalType": "euint64",
              "name": "totalSupplied",
              "type": "bytes32"
            },
            {
              "internalType": "euint64",
              "name": "totalBorrowed",
              "type": "bytes32"
            },
            {
              "internalType": "euint64",
              "name": "availableLiquidity",
              "type": "bytes32"
            },
            {
              "internalType": "uint64",
              "name": "lastUpdateTimestamp",
              "type": "uint64"
            },
            {
              "internalType": "bool",
              "name": "active",
              "type": "bool"
            },
            {
              "internalType": "bool",
              "name": "borrowingEnabled",
              "type": "bool"
            },
            {
              "internalType": "bool",
              "name": "isCollateral",
              "type": "bool"
            },
            {
              "internalType": "bool",
              "name": "isPaused",
              "type": "bool"
            },
            {
              "internalType": "uint64",
              "name": "collateralFactor",
              "type": "uint64"
            },
            {
              "internalType": "uint64",
              "name": "supplyCap",
              "type": "uint64"
            },
            {
              "internalType": "uint64",
              "name": "borrowCap",
              "type": "uint64"
            },
            {
              "internalType": "uint8",
              "name": "decimals",
              "type": "uint8"
            }
          ],
          "internalType": "struct Types.ConfidentialReserve",
          "name": "",
          "type": "tuple"
        }
      ],
      "stateMutability": "view",
      "type": "function"
    },
    {
      "inputs": [
        {
          "internalType": "address",
          "name": "asset",
          "type": "address"
        },
        {
          "internalType": "bool",
          "name": "borrowingEnabled",
          "type": "bool"
        },
        {
          "internalType": "bool",
          "name": "isCollateral",
          "type": "bool"
        },
        {
          "internalType": "uint64",
          "name": "collateralFactor",
          "type": "uint64"
        }
      ],
      "name": "initReserve",
      "outputs": [],
      "stateMutability": "nonpayable",
      "type": "function"
    },
    {
      "inputs": [],
      "name": "lendingPool",
      "outputs": [
        {
          "internalType": "contract IConfidentialLendingPool",
          "name": "",
          "type": "address"
        }
      ],
      "stateMutability": "view",
      "type": "function"
    },
    {
      "inputs": [],
      "name": "owner",
      "outputs": [
        {
          "internalType": "address",
          "name": "",
          "type": "address"
        }
      ],
      "stateMutability": "view",
      "type": "function"
    },
    {
      "inputs": [
        {
          "internalType": "address",
          "name": "asset",
          "type": "address"
        }
      ],
      "name": "pauseReserve",
      "outputs": [],
      "stateMutability": "nonpayable",
      "type": "function"
    },
    {
      "inputs": [],
      "name": "renounceOwnership",
      "outputs": [],
      "stateMutability": "nonpayable",
      "type": "function"
    },
    {
      "inputs": [
        {
          "internalType": "address",
          "name": "",
          "type": "address"
        }
      ],
      "name": "reserves",
      "outputs": [
        {
          "internalType": "address",
          "name": "underlyingAsset",
          "type": "address"
        },
        {
          "internalType": "euint64",
          "name": "totalSupplied",
          "type": "bytes32"
        },
        {
          "internalType": "euint64",
          "name": "totalBorrowed",
          "type": "bytes32"
        },
        {
          "internalType": "euint64",
          "name": "availableLiquidity",
          "type": "bytes32"
        },
        {
          "internalType": "uint64",
          "name": "lastUpdateTimestamp",
          "type": "uint64"
        },
        {
          "internalType": "bool",
          "name": "active",
          "type": "bool"
        },
        {
          "internalType": "bool",
          "name": "borrowingEnabled",
          "type": "bool"
        },
        {
          "internalType": "bool",
          "name": "isCollateral",
          "type": "bool"
        },
        {
          "internalType": "bool",
          "name": "isPaused",
          "type": "bool"
        },
        {
          "internalType": "uint64",
          "name": "collateralFactor",
          "type": "uint64"
        },
        {
          "internalType": "uint64",
          "name": "supplyCap",
          "type": "uint64"
        },
        {
          "internalType": "uint64",
          "name": "borrowCap",
          "type": "uint64"
        },
        {
          "internalType": "uint8",
          "name": "decimals",
          "type": "uint8"
        }
      ],
      "stateMutability": "view",
      "type": "function"
    },
    {
      "inputs": [
        {
          "internalType": "address",
          "name": "asset",
          "type": "address"
        },
        {
          "internalType": "uint64",
          "name": "cap",
          "type": "uint64"
        }
      ],
      "name": "setBorrowCap",
      "outputs": [],
      "stateMutability": "nonpayable",
      "type": "function"
    },
    {
      "inputs": [
        {
          "internalType": "address",
          "name": "asset",
          "type": "address"
        },
        {
          "internalType": "uint64",
          "name": "factor",
          "type": "uint64"
        }
      ],
      "name": "setCollateralFactor",
      "outputs": [],
      "stateMutability": "nonpayable",
      "type": "function"
    },
    {
      "inputs": [
        {
          "internalType": "address",
          "name": "_lendingPool",
          "type": "address"
        }
      ],
      "name": "setLendingPool",
      "outputs": [],
      "stateMutability": "nonpayable",
      "type": "function"
    },
    {
      "inputs": [
        {
          "internalType": "address",
          "name": "asset",
          "type": "address"
        },
        {
          "internalType": "bool",
          "name": "active",
          "type": "bool"
        }
      ],
      "name": "setReserveActive",
      "outputs": [],
      "stateMutability": "nonpayable",
      "type": "function"
    },
    {
      "inputs": [
        {
          "internalType": "address",
          "name": "asset",
          "type": "address"
        },
        {
          "internalType": "bool",
          "name": "enabled",
          "type": "bool"
        }
      ],
      "name": "setReserveBorrowing",
      "outputs": [],
      "stateMutability": "nonpayable",
      "type": "function"
    },
    {
      "inputs": [
        {
          "internalType": "address",
          "name": "asset",
          "type": "address"
        },
        {
          "internalType": "bool",
          "name": "enabled",
          "type": "bool"
        }
      ],
      "name": "setReserveCollateral",
      "outputs": [],
      "stateMutability": "nonpayable",
      "type": "function"
    },
    {
      "inputs": [
        {
          "internalType": "address",
          "name": "asset",
          "type": "address"
        },
        {
          "internalType": "uint64",
          "name": "cap",
          "type": "uint64"
        }
      ],
      "name": "setSupplyCap",
      "outputs": [],
      "stateMutability": "nonpayable",
      "type": "function"
    },
    {
      "inputs": [
        {
          "internalType": "address",
          "name": "newOwner",
          "type": "address"
        }
      ],
      "name": "transferOwnership",
      "outputs": [],
      "stateMutability": "nonpayable",
      "type": "function"
    },
    {
      "inputs": [
        {
          "internalType": "address",
          "name": "asset",
          "type": "address"
        }
      ],
      "name": "unpauseReserve",
      "outputs": [],
      "stateMutability": "nonpayable",
      "type": "function"
    }
  ],
  "transactionHash": "0x545af643fd9717af74ff829c51a1ecc266ba071e86c7980c3c03c49f9ac1342c",
  "args": [
    "0xC9576182dBAbd04d441D7ac948062634CA99549A"
  ],
  "numDeployments": 1,
  "solcInputHash": "27a03d860a5f7d9ce2fa096361f22116",
  "bytecode": "0x60a03461011057601f6115e638819003918201601f19168301916001600160401b038311848410176101145780849260209460405283398101031261011057516001600160a01b038116908190036101105733156100fd575f8054336001600160a01b0319821681178355604051939290916001600160a01b0316907f8be0079c531659141344cd1fd0a4f28419497f9722a3daafe3b4186f6b6457e09080a36080526114bd908161012982396080518181816101c50152818161062f01528181610aa801528181610bf001528181610d1701528181610e0b01528181610f1501528181610f76015281816110540152818161113701526112090152f35b631e4fbdf760e01b5f525f60045260245ffd5b5f80fd5b634e487b7160e01b5f52604160045260245ffdfe6080806040526004361015610012575f80fd5b5f905f3560e01c908163113aa8b1146111d8575080631c29147e1461110257806331420485146110175780633b79e65e14610f3957806340298ed714610ef65780634f9a543414610dce578063682cf26414610cda578063715018a614610c8357806376b03a8714610bbb5780638da5cb5b14610b96578063a59a997314610b70578063b736aaeb14610a6b578063bd05bdb414610861578063d66bd52414610779578063daf1e03d146105ea578063eda5fd82146101615763f2fde38b146100d9575f80fd5b3461015e57602036600319011261015e576001600160a01b036100fa611288565b61010261148a565b16801561014a576001600160a01b038254826001600160a01b03198216178455167f8be0079c531659141344cd1fd0a4f28419497f9722a3daafe3b4186f6b6457e08380a380f35b631e4fbdf760e01b82526004829052602482fd5b80fd5b503461043a57608036600319011261043a5761017b611288565b61018361129e565b90604435918215159081840361043a576064359367ffffffffffffffff85169384860361043a57604051637be53ca160e01b81523360048201526020816024817f00000000000000000000000000000000000000000000000000000000000000006001600160a01b03165afa801561042f57610206915f916105bb575b5061132f565b6001600160a01b036001541615610576576001600160a01b031694855f5260026020526001600160a01b0360405f2054166105315781156104b557841515806104a9575b1561043e576102e0610338925b5f88815260026020526040902080546001600160a01b0319168917815560040180546affff000000000000000000196801000000000000000067ffffffffffffffff421668ffffffffffffffffff1990931692909217919091171669ff00000000000000000087151560481b161791151560501b6aff0000000000000000000016919091179055565b5f86815260026020526040902060040180547fffffffffffffffffffffffff000000000000000000ffffffffffffffffffffff1660609290921b73ffffffffffffffff00000000000000000000000016919091179055565b5f84815260026020526040902060048101805467ffffffffffffffff60a01b19169055600501805467ffffffffffffffff191690556001546001600160a01b031690813b1561043a575f916084839260405194859384926376d2fec160e11b84528a600485015215159889602485015288604485015260648401525af1801561042f576103f4575b507f8a1f3b7b773821d883af83d8d5d9bad4c54003312ea299c94df4a9db403c09d99160409182519182526020820152a280f35b6040919450916104255f7f8a1f3b7b773821d883af83d8d5d9bad4c54003312ea299c94df4a9db403c09d9946112f5565b5f949150916103c0565b6040513d5f823e3d90fd5b5f80fd5b60405162461bcd60e51b815260206004820152602e60248201527f496e76616c696420636f6c6c61746572616c20666163746f7220666f7220636f60448201527f6c6c61746572616c2061737365740000000000000000000000000000000000006064820152608490fd5b5061271085111561024a565b846104c6576102e061033892610257565b60405162461bcd60e51b815260206004820152603460248201527f436f6c6c61746572616c20666163746f72206d757374206265203020666f722060448201527f6e6f6e2d636f6c6c61746572616c2061737365740000000000000000000000006064820152608490fd5b60405162461bcd60e51b815260206004820152601b60248201527f5265736572766520616c726561647920696e697469616c697a656400000000006044820152606490fd5b60405162461bcd60e51b815260206004820152601460248201527f4c656e64696e6720706f6f6c206e6f74207365740000000000000000000000006044820152606490fd5b6105dd915060203d6020116105e3575b6105d581836112f5565b810190611317565b5f610200565b503d6105cb565b3461043a57604036600319011261043a57610603611288565b61060b6112ad565b9060405163674b5e4d60e01b81523360048201526020816024816001600160a01b037f0000000000000000000000000000000000000000000000000000000000000000165afa801561042f57610668915f9161075a575b5061137b565b67ffffffffffffffff821690620f42408211610715577fed3f68a248f13f4bef8d0c33604329dee330266f17ec3c6d5bb53822aa96906a9161070c826107076001600160a01b036020951696875f5260028652600460405f2001907fffffffffffffffffffffffff0000000000000000ffffffffffffffffffffffff73ffffffffffffffff00000000000000000000000083549260601b169116179055565b6113c7565b604051908152a2005b60405162461bcd60e51b815260206004820152601960248201527f496e76616c696420636f6c6c61746572616c20666163746f72000000000000006044820152606490fd5b610773915060203d6020116105e3576105d581836112f5565b84610662565b3461043a57602036600319011261043a576001600160a01b0361079a611288565b165f5260026020526101a060405f2060ff6001600160a01b038254169167ffffffffffffffff600182015491600281015460038201549060056004840154930154946040519788526020880152604087015260608601528181166080860152838160401c16151560a0860152838160481c16151560c0860152838160501c16151560e0860152838160581c161515610100860152818160601c1661012086015260a01c1661014084015267ffffffffffffffff811661016084015260401c16610180820152f35b3461043a57602036600319011261043a5761087a611288565b604051610886816112c4565b5f8152602081015f9052604081015f9052606081015f9052608081015f905260a081015f905260c081015f905260e081015f905261010081015f905261012081015f905261014081015f905261016081015f9052610180015f90526001600160a01b03165f52600260205260405f2060405190610902826112c4565b80546001600160a01b0316918281526001820154916020820192835260028101549060408301918252600381015491606084019283526004820154926080850167ffffffffffffffff8516815260a086018560401c60ff161515815260c08701918660481c60ff161515835260e08801938760501c60ff16151585526101008901958860581c60ff16151587526101208a01978960601c67ffffffffffffffff1689526101408b019960a01c67ffffffffffffffff168a52600501549a6101608b019a67ffffffffffffffff8d168c52610180019b60401c60ff168c526040519c8d525160208d01525160408c01525160608b01525167ffffffffffffffff1660808a015251151560a089015251151560c088015251151560e08701525115156101008601525167ffffffffffffffff166101208501525167ffffffffffffffff166101408401525167ffffffffffffffff166101608301525160ff166101808201526101a090f35b3461043a57604036600319011261043a57610a84611288565b610a8c61129e565b604051637be53ca160e01b8152336004820152906020826024817f00000000000000000000000000000000000000000000000000000000000000006001600160a01b03165afa90811561042f57610b0d6020927f2f096f4f02422af2d9332c695ddbed735d04aaba5f80c0d1b651d138cf727be1945f91610b53575061132f565b61070c6001600160a01b03851694855f5260028452600460405f200192151592805468ff00000000000000008560401b169068ff000000000000000019161790556113c7565b610b6a9150843d86116105e3576105d581836112f5565b86610200565b3461043a575f36600319011261043a5760206001600160a01b0360015416604051908152f35b3461043a575f36600319011261043a5760206001600160a01b035f5416604051908152f35b3461043a57602036600319011261043a57610bd4611288565b60405163674b5e4d60e01b8152336004820152906020826024817f00000000000000000000000000000000000000000000000000000000000000006001600160a01b03165afa91821561042f576001600160a01b0392610c3a915f9161075a575061137b565b16805f526002602052600460405f20016bff00000000000000000000001981541690557f1d3a3dc47be46ddf308a9b0bfb38011c4570656694fa65582a1a8bb7b45d5e845f80a2005b3461043a575f36600319011261043a57610c9b61148a565b5f6001600160a01b0381546001600160a01b031981168355167f8be0079c531659141344cd1fd0a4f28419497f9722a3daafe3b4186f6b6457e08280a3005b3461043a57604036600319011261043a57610cf3611288565b610cfb61129e565b604051637be53ca160e01b8152336004820152906020826024817f00000000000000000000000000000000000000000000000000000000000000006001600160a01b03165afa90811561042f57610d7c6020927fe311ba620cede04a8436e8a3125565ce9f4e78700af9918a01eff919bde02c78945f91610b53575061132f565b6001600160a01b0384165f8181526002845260409020600401805469ff000000000000000000191683151560481b69ff0000000000000000001617905593610dc3906113c7565b6040519015158152a2005b3461043a57604036600319011261043a57610de7611288565b610def6112ad565b60405163674b5e4d60e01b8152336004820152906020826024817f00000000000000000000000000000000000000000000000000000000000000006001600160a01b03165afa90811561042f57610e6f6020927e94f180181f96b6719d11d00a70f430fb7697ef679d02ca3b2e8e7a96444469945f91610ed9575061137b565b610ec66001600160a01b03851694855f5260028452600460405f2001805467ffffffffffffffff60a01b197bffffffffffffffff00000000000000000000000000000000000000008660a01b1691161790556113c7565b67ffffffffffffffff60405191168152a2005b610ef09150843d86116105e3576105d581836112f5565b86610662565b3461043a575f36600319011261043a5760206040516001600160a01b037f0000000000000000000000000000000000000000000000000000000000000000168152f35b3461043a57604036600319011261043a57610f52611288565b610f5a6112ad565b60405163674b5e4d60e01b8152336004820152906020826024817f00000000000000000000000000000000000000000000000000000000000000006001600160a01b03165afa90811561042f57610fdb6020927f23794e32564cb64a66c6202cda97be9aab02f69042caf5ebde3666a1cd0d7701945f91610ed9575061137b565b610ec66001600160a01b03851694855f5260028452600560405f200167ffffffffffffffff841667ffffffffffffffff198254161790556113c7565b3461043a57604036600319011261043a57611030611288565b61103861129e565b604051637be53ca160e01b8152336004820152906020826024817f00000000000000000000000000000000000000000000000000000000000000006001600160a01b03165afa90811561042f576110b96020927f6c51cf32a890e40a7b404071ba8798ae4e2012b1bbdb278d6f30275faec9883e945f91610b53575061132f565b6001600160a01b0384165f818152600284526040902060040180546aff00000000000000000000191683151560501b6aff000000000000000000001617905593610dc3906113c7565b3461043a57602036600319011261043a5761111b611288565b60405163674b5e4d60e01b8152336004820152906020826024817f00000000000000000000000000000000000000000000000000000000000000006001600160a01b03165afa91821561042f576001600160a01b0392611181915f9161075a575061137b565b16805f526002602052600460405f20016b0100000000000000000000006bff0000000000000000000000198254161790557f76fbdd4354dc9418c0c566bb694eb4f77c55b468b137d36da290a1bef6c91ce75f80a2005b3461043a57602036600319011261043a576111f1611288565b637be53ca160e01b82523360048301526020826024817f00000000000000000000000000000000000000000000000000000000000000006001600160a01b03165afa91821561042f576001600160a01b0392611253915f91611269575061132f565b166001600160a01b031960015416176001555f80f35b611282915060203d6020116105e3576105d581836112f5565b84610200565b600435906001600160a01b038216820361043a57565b60243590811515820361043a57565b6024359067ffffffffffffffff8216820361043a57565b6101a0810190811067ffffffffffffffff8211176112e157604052565b634e487b7160e01b5f52604160045260245ffd5b90601f8019910116810190811067ffffffffffffffff8211176112e157604052565b9081602091031261043a5751801515810361043a5790565b1561133657565b60405162461bcd60e51b815260206004820152600f60248201527f4f6e6c7920706f6f6c2061646d696e00000000000000000000000000000000006044820152606490fd5b1561138257565b60405162461bcd60e51b815260206004820152600f60248201527f4f6e6c79207269736b2061646d696e00000000000000000000000000000000006044820152606490fd5b6001600160a01b0316805f52600260205260405f206001600160a01b03600154169067ffffffffffffffff600560048301549201541691803b1561043a5767ffffffffffffffff935f60e492819560405197889687956358c23a3760e01b8752600487015260ff8160401c161515602487015260ff8160481c161515604487015260ff8160501c1615156064870152818160601c16608487015260a01c1660a485015260c48401525af1801561042f5761147e5750565b5f611488916112f5565b565b6001600160a01b035f5416330361149d57565b63118cdaa760e01b5f523360045260245ffdfea164736f6c634300081b000a",
  "devdoc": {
    "errors": {
      "OwnableInvalidOwner(address)": [
        {
          "details": "The owner is not a valid owner account. (eg. `address(0)`)"
        }
      ],
      "OwnableUnauthorizedAccount(address)": [
        {
          "details": "The caller account is not authorized to perform an operation."
        }
      ]
    },
    "kind": "dev",
    "methods": {
      "owner()": {
        "details": "Returns the address of the current owner."
      },
      "renounceOwnership()": {
        "details": "Leaves the contract without owner. It will not be possible to call `onlyOwner` functions. Can only be called by the current owner. NOTE: Renouncing ownership will leave the contract without an owner, thereby disabling any functionality that is only available to the owner."
      },
      "transferOwnership(address)": {
        "details": "Transfers ownership of the contract to a new account (`newOwner`). Can only be called by the current owner."
      }
    },
    "version": 1
  },
  "userdoc": {
    "kind": "user",
    "methods": {},
    "version": 1
  },
  "storageLayout": {
    "storage": [
      {
        "astId": 40942,
        "contract": "contracts/protocol/ConfidentialPoolConfigurator.sol:ConfidentialPoolConfigurator",
        "label": "_owner",
        "offset": 0,
        "slot": "0",
        "type": "t_address"
      },
      {
        "astId": 45179,
        "contract": "contracts/protocol/ConfidentialPoolConfigurator.sol:ConfidentialPoolConfigurator",
        "label": "lendingPool",
        "offset": 0,
        "slot": "1",
        "type": "t_contract(IConfidentialLendingPool)42255"
      },
      {
        "astId": 45184,
        "contract": "contracts/protocol/ConfidentialPoolConfigurator.sol:ConfidentialPoolConfigurator",
        "label": "reserves",
        "offset": 0,
        "slot": "2",
        "type": "t_mapping(t_address,t_struct(ConfidentialReserve)43230_storage)"
      }
    ],
    "types": {
      "t_address": {
        "encoding": "inplace",
        "label": "address",
        "numberOfBytes": "20"
      },
      "t_bool": {
        "encoding": "inplace",
        "label": "bool",
        "numberOfBytes": "1"
      },
      "t_contract(IConfidentialLendingPool)42255": {
        "encoding": "inplace",
        "label": "contract IConfidentialLendingPool",
        "numberOfBytes": "20"
      },
      "t_mapping(t_address,t_struct(ConfidentialReserve)43230_storage)": {
        "encoding": "mapping",
        "key": "t_address",
        "label": "mapping(address => struct Types.ConfidentialReserve)",
        "numberOfBytes": "32",
        "value": "t_struct(ConfidentialReserve)43230_storage"
      },
      "t_struct(ConfidentialReserve)43230_storage": {
        "encoding": "inplace",
        "label": "struct Types.ConfidentialReserve",
        "members": [
          {
            "astId": 43202,
            "contract": "contracts/protocol/ConfidentialPoolConfigurator.sol:ConfidentialPoolConfigurator",
            "label": "underlyingAsset",
            "offset": 0,
            "slot": "0",
            "type": "t_address"
          },
          {
            "astId": 43205,
            "contract": "contracts/protocol/ConfidentialPoolConfigurator.sol:ConfidentialPoolConfigurator",
            "label": "totalSupplied",
            "offset": 0,
            "slot": "1",
            "type": "t_userDefinedValueType(euint64)47783"
          },
          {
            "astId": 43208,
            "contract": "contracts/protocol/ConfidentialPoolConfigurator.sol:ConfidentialPoolConfigurator",
            "label": "totalBorrowed",
            "offset": 0,
            "slot": "2",
            "type": "t_userDefinedValueType(euint64)47783"
          },
          {
            "astId": 43211,
            "contract": "contracts/protocol/ConfidentialPoolConfigurator.sol:ConfidentialPoolConfigurator",
            "label": "availableLiquidity",
            "offset": 0,
            "slot": "3",
            "type": "t_userDefinedValueType(euint64)47783"
          },
          {
            "astId": 43213,
            "contract": "contracts/protocol/ConfidentialPoolConfigurator.sol:ConfidentialPoolConfigurator",
            "label": "lastUpdateTimestamp",
            "offset": 0,
            "slot": "4",
            "type": "t_uint64"
          },
          {
            "astId": 43215,
            "contract": "contracts/protocol/ConfidentialPoolConfigurator.sol:ConfidentialPoolConfigurator",
            "label": "active",
            "offset": 8,
            "slot": "4",
            "type": "t_bool"
          },
          {
            "astId": 43217,
            "contract": "contracts/protocol/ConfidentialPoolConfigurator.sol:ConfidentialPoolConfigurator",
            "label": "borrowingEnabled",
            "offset": 9,
            "slot": "4",
            "type": "t_bool"
          },
          {
            "astId": 43219,
            "contract": "contracts/protocol/ConfidentialPoolConfigurator.sol:ConfidentialPoolConfigurator",
            "label": "isCollateral",
            "offset": 10,
            "slot": "4",
            "type": "t_bool"
          },
          {
            "astId": 43221,
            "contract": "contracts/protocol/ConfidentialPoolConfigurator.sol:ConfidentialPoolConfigurator",
            "label": "isPaused",
            "offset": 11,
            "slot": "4",
            "type": "t_bool"
          },
          {
            "astId": 43223,
            "contract": "contracts/protocol/ConfidentialPoolConfigurator.sol:ConfidentialPoolConfigurator",
            "label": "collateralFactor",
            "offset": 12,
            "slot": "4",
            "type": "t_uint64"
          },
          {
            "astId": 43225,
            "contract": "contracts/protocol/ConfidentialPoolConfigurator.sol:ConfidentialPoolConfigurator",
            "label": "supplyCap",
            "offset": 20,
            "slot": "4",
            "type": "t_uint64"
          },
          {
            "astId": 43227,
            "contract": "contracts/protocol/ConfidentialPoolConfigurator.sol:ConfidentialPoolConfigurator",
            "label": "borrowCap",
            "offset": 0,
            "slot": "5",
            "type": "t_uint64"
          },
          {
            "astId": 43229,
            "contract": "contracts/protocol/ConfidentialPoolConfigurator.sol:ConfidentialPoolConfigurator",
            "label": "decimals",
            "offset": 8,
            "slot": "5",
            "type": "t_uint8"
          }
        ],
        "numberOfBytes": "192"
      },
      "t_uint64": {
        "encoding": "inplace",
        "label": "uint64",
        "numberOfBytes": "8"
      },
      "t_uint8": {
        "encoding": "inplace",
        "label": "uint8",
        "numberOfBytes": "1"
      },
      "t_userDefinedValueType(euint64)47783": {
        "encoding": "inplace",
        "label": "euint64",
        "numberOfBytes": "32"
      }
    }
  }
}