{
  "address": "0xB37401ad109151693EC0428eA425Ed9182bBF4C9",
  "abi": [
    {
      "inputs": [
        {
          "internalType": "address",
          "name": "initialOwner",
          "type": "address"
        }
      ],
      "stateMutability": "nonpayable",
      "type": "constructor"
    },
    {
      "inputs": [
        {
          "internalType": "address",
          "name": "owner",
          "type": "address"
        }
      ],
      "name": "OwnableInvalidOwner",
      "type": "error"
    },
    {
      "inputs": [
        {
          "internalType": "address",
          "name": "account",
          "type": "address"
        }
      ],
      "name": "OwnableUnauthorizedAccount",
      "type": "error"
    },
    {
      "anonymous": false,
      "inputs": [
        {
          "indexed": true,
          "internalType": "address",
          "name": "asset",
          "type": "address"
        },
        {
          "indexed": false,
          "internalType": "uint64",
          "name": "defaultPrice",
          "type": "uint64"
        }
      ],
      "name": "DefaultPriceUsed",
      "type": "event"
    },
    {
      "anonymous": false,
      "inputs": [
        {
          "indexed": true,
          "internalType": "address",
          "name": "previousOwner",
          "type": "address"
        },
        {
          "indexed": true,
          "internalType": "address",
          "name": "newOwner",
          "type": "address"
        }
      ],
      "name": "OwnershipTransferred",
      "type": "event"
    },
    {
      "anonymous": false,
      "inputs": [
        {
          "indexed": true,
          "internalType": "address",
          "name": "priceFeed",
          "type": "address"
        }
      ],
      "name": "PriceFeedAdded",
      "type": "event"
    },
    {
      "anonymous": false,
      "inputs": [
        {
          "indexed": true,
          "internalType": "address",
          "name": "asset",
          "type": "address"
        },
        {
          "indexed": false,
          "internalType": "uint64",
          "name": "price",
          "type": "uint64"
        }
      ],
      "name": "PriceUpdated",
      "type": "event"
    },
    {
      "inputs": [],
      "name": "DEFAULT_BTC_PRICE",
      "outputs": [
        {
          "internalType": "uint64",
          "name": "",
          "type": "uint64"
        }
      ],
      "stateMutability": "view",
      "type": "function"
    },
    {
      "inputs": [],
      "name": "DEFAULT_ETH_PRICE",
      "outputs": [
        {
          "internalType": "uint64",
          "name": "",
          "type": "uint64"
        }
      ],
      "stateMutability": "view",
      "type": "function"
    },
    {
      "inputs": [],
      "name": "DEFAULT_USDC_PRICE",
      "outputs": [
        {
          "internalType": "uint64",
          "name": "",
          "type": "uint64"
        }
      ],
      "stateMutability": "view",
      "type": "function"
    },
    {
      "inputs": [],
      "name": "DEFAULT_USDT_PRICE",
      "outputs": [
        {
          "internalType": "uint64",
          "name": "",
          "type": "uint64"
        }
      ],
      "stateMutability": "view",
      "type": "function"
    },
    {
      "inputs": [],
      "name": "DEFAULT_WETH_PRICE",
      "outputs": [
        {
          "internalType": "uint64",
          "name": "",
          "type": "uint64"
        }
      ],
      "stateMutability": "view",
      "type": "function"
    },
    {
      "inputs": [
        {
          "internalType": "address",
          "name": "",
          "type": "address"
        }
      ],
      "name": "assetPrices",
      "outputs": [
        {
          "internalType": "uint64",
          "name": "",
          "type": "uint64"
        }
      ],
      "stateMutability": "view",
      "type": "function"
    },
    {
      "inputs": [
        {
          "internalType": "address",
          "name": "asset",
          "type": "address"
        }
      ],
      "name": "getAssetPrice",
      "outputs": [
        {
          "internalType": "uint64",
          "name": "",
          "type": "uint64"
        }
      ],
      "stateMutability": "view",
      "type": "function"
    },
    {
      "inputs": [
        {
          "internalType": "address",
          "name": "",
          "type": "address"
        }
      ],
      "name": "getConstantPrice",
      "outputs": [
        {
          "internalType": "uint64",
          "name": "price",
          "type": "uint64"
        }
      ],
      "stateMutability": "pure",
      "type": "function"
    },
    {
      "inputs": [
        {
          "internalType": "address",
          "name": "asset",
          "type": "address"
        }
      ],
      "name": "getDefaultPrice",
      "outputs": [
        {
          "internalType": "uint64",
          "name": "price",
          "type": "uint64"
        }
      ],
      "stateMutability": "pure",
      "type": "function"
    },
    {
      "inputs": [
        {
          "internalType": "address",
          "name": "asset",
          "type": "address"
        }
      ],
      "name": "getPrice",
      "outputs": [
        {
          "internalType": "uint64",
          "name": "",
          "type": "uint64"
        }
      ],
      "stateMutability": "view",
      "type": "function"
    },
    {
      "inputs": [
        {
          "internalType": "address",
          "name": "",
          "type": "address"
        }
      ],
      "name": "isPriceFeed",
      "outputs": [
        {
          "internalType": "bool",
          "name": "",
          "type": "bool"
        }
      ],
      "stateMutability": "view",
      "type": "function"
    },
    {
      "inputs": [],
      "name": "owner",
      "outputs": [
        {
          "internalType": "address",
          "name": "",
          "type": "address"
        }
      ],
      "stateMutability": "view",
      "type": "function"
    },
    {
      "inputs": [],
      "name": "renounceOwnership",
      "outputs": [],
      "stateMutability": "nonpayable",
      "type": "function"
    },
    {
      "inputs": [],
      "name": "setDefaultPrices",
      "outputs": [],
      "stateMutability": "nonpayable",
      "type": "function"
    },
    {
      "inputs": [
        {
          "internalType": "address",
          "name": "asset",
          "type": "address"
        },
        {
          "internalType": "uint64",
          "name": "price",
          "type": "uint64"
        }
      ],
      "name": "setPrice",
      "outputs": [],
      "stateMutability": "nonpayable",
      "type": "function"
    },
    {
      "inputs": [
        {
          "internalType": "address",
          "name": "priceFeed",
          "type": "address"
        },
        {
          "internalType": "bool",
          "name": "enabled",
          "type": "bool"
        }
      ],
      "name": "setPriceFeed",
      "outputs": [],
      "stateMutability": "nonpayable",
      "type": "function"
    },
    {
      "inputs": [
        {
          "internalType": "address",
          "name": "newOwner",
          "type": "address"
        }
      ],
      "name": "transferOwnership",
      "outputs": [],
      "stateMutability": "nonpayable",
      "type": "function"
    },
    {
      "inputs": [
        {
          "internalType": "address",
          "name": "asset",
          "type": "address"
        },
        {
          "internalType": "uint64",
          "name": "price",
          "type": "uint64"
        }
      ],
      "name": "updatePrice",
      "outputs": [],
      "stateMutability": "nonpayable",
      "type": "function"
    }
  ],
  "transactionHash": "0x492c9af022bde21725e5a28a843a6f57ae285ad8a6fa398243da76b0a718f90e",
  "args": [
    "0xcC5C64e2Ff52d9b2D95B5dc9d4B1e9Edf232693B"
  ],
  "numDeployments": 1,
  "solcInputHash": "96da41b095e0f0985cb55b2248af6f2d",
  "bytecode": "0x60803460b857601f61070a38819003918201601f19168301916001600160401b0383118484101760bc5780849260209460405283398101031260b857516001600160a01b0381169081900360b857801560a5575f80546001600160a01b031981168317825560405192916001600160a01b03909116907f8be0079c531659141344cd1fd0a4f28419497f9722a3daafe3b4186f6b6457e09080a361063990816100d18239f35b631e4fbdf760e01b5f525f60045260245ffd5b5f80fd5b634e487b7160e01b5f52604160045260245ffdfe60806040526004361015610011575f80fd5b5f3560e01c8063030f8d3214610461578063159fa0341461044257806341976e091461017857806357a94beb146104055780635e9a523c146103c35780636400d4101461034b5780636d8f636b14610303578063715018a61461029f578063796f07821461026a5780637df660a5146101ed5780638da5cb5b146101c857806399cf0da2146101c357806399eb26211461019c5780639a5c35b71461017d578063b3596f0714610178578063bd493a7f14610173578063cf65da47146101735763f2fde38b146100df575f80fd5b3461016f57602036600319011261016f576001600160a01b0361010061047f565b610108610606565b16801561015c576001600160a01b035f548273ffffffffffffffffffffffffffffffffffffffff198216175f55167f8be0079c531659141344cd1fd0a4f28419497f9722a3daafe3b4186f6b6457e05f80a3005b631e4fbdf760e01b5f525f60045260245ffd5b5f80fd5b6104ef565b6104cc565b3461016f575f36600319011261016f5760206040516409502f90008152f35b3461016f57602036600319011261016f576101b561047f565b506020604051620f42408152f35b610461565b3461016f575f36600319011261016f5760206001600160a01b035f5416604051908152f35b3461016f576101fb36610495565b335f52600260205260ff60405f2054161561021b576102199161050c565b005b60405162461bcd60e51b815260206004820152602160248201527f4f6e6c7920707269636520666565642063616e207570646174652070726963656044820152607360f81b6064820152608490fd5b3461016f57602036600319011261016f57602061028d61028861047f565b6105b8565b67ffffffffffffffff60405191168152f35b3461016f575f36600319011261016f576102b7610606565b5f6001600160a01b03815473ffffffffffffffffffffffffffffffffffffffff1981168355167f8be0079c531659141344cd1fd0a4f28419497f9722a3daafe3b4186f6b6457e08280a3005b3461016f575f36600319011261016f5761031b610606565b5f7f659a8a20e159efb06d0bf0f01e5a1d855f827686a6ed2ad9fb3560ad922f937a6020604051620f42408152a2005b3461016f57604036600319011261016f5761036461047f565b6024359081151580920361016f576001600160a01b0390610383610606565b1690815f52600260205260405f209060ff801983541691161790557e8867698a22dfef98353125a3a5e0dec6683f8586e70e97005f637bb02357de5f80a2005b3461016f57602036600319011261016f576001600160a01b036103e461047f565b165f526001602052602067ffffffffffffffff60405f205416604051908152f35b3461016f57602036600319011261016f576001600160a01b0361042661047f565b165f526002602052602060ff60405f2054166040519015158152f35b3461016f5761021961045336610495565b9061045c610606565b61050c565b3461016f575f36600319011261016f57602060405163773594008152f35b600435906001600160a01b038216820361016f57565b604090600319011261016f576004356001600160a01b038116810361016f579060243567ffffffffffffffff8116810361016f5790565b3461016f57602036600319011261016f57602061028d6104ea61047f565b61056b565b3461016f575f36600319011261016f576020604051620f42408152f35b60206001600160a01b037f659a8a20e159efb06d0bf0f01e5a1d855f827686a6ed2ad9fb3560ad922f937a921692835f526001825267ffffffffffffffff60405f209116908167ffffffffffffffff19825416179055604051908152a2565b6001600160a01b03811690815f52600160205267ffffffffffffffff60405f20541661059e5761059b91506105b8565b90565b505f52600160205267ffffffffffffffff60405f20541690565b6103e867ffffffffffffffff918216061660c88110156105da5750620f424090565b6101908110156105ed5750637735940090565b61025811156105ff576409502f900090565b620f424090565b6001600160a01b035f5416330361061957565b63118cdaa760e01b5f523360045260245ffdfea164736f6c634300081b000a",
  "devdoc": {
    "errors": {
      "OwnableInvalidOwner(address)": [
        {
          "details": "The owner is not a valid owner account. (eg. `address(0)`)"
        }
      ],
      "OwnableUnauthorizedAccount(address)": [
        {
          "details": "The caller account is not authorized to perform an operation."
        }
      ]
    },
    "kind": "dev",
    "methods": {
      "getConstantPrice(address)": {
        "details": "Always returns a reasonable default price",
        "returns": {
          "price": "Constant price in 1e18 format"
        }
      },
      "getDefaultPrice(address)": {
        "details": "Returns hardcoded default prices for testing/development",
        "params": {
          "asset": "Asset address"
        },
        "returns": {
          "price": "Default price in 1e18 format, or 0 if no default"
        }
      },
      "owner()": {
        "details": "Returns the address of the current owner."
      },
      "renounceOwnership()": {
        "details": "Leaves the contract without owner. It will not be possible to call `onlyOwner` functions. Can only be called by the current owner. NOTE: Renouncing ownership will leave the contract without an owner, thereby disabling any functionality that is only available to the owner."
      },
      "setDefaultPrices()": {
        "details": "Convenience function to set up common asset prices"
      },
      "transferOwnership(address)": {
        "details": "Transfers ownership of the contract to a new account (`newOwner`). Can only be called by the current owner."
      }
    },
    "version": 1
  },
  "userdoc": {
    "kind": "user",
    "methods": {
      "getConstantPrice(address)": {
        "notice": "Get a constant price for any asset (for testing)"
      },
      "getDefaultPrice(address)": {
        "notice": "Get default price for common assets"
      },
      "setDefaultPrices()": {
        "notice": "Set default prices for common assets"
      }
    },
    "version": 1
  },
  "storageLayout": {
    "storage": [
      {
        "astId": 40942,
        "contract": "contracts/oracle/SimplePriceOracle.sol:SimplePriceOracle",
        "label": "_owner",
        "offset": 0,
        "slot": "0",
        "type": "t_address"
      },
      {
        "astId": 43215,
        "contract": "contracts/oracle/SimplePriceOracle.sol:SimplePriceOracle",
        "label": "assetPrices",
        "offset": 0,
        "slot": "1",
        "type": "t_mapping(t_address,t_uint64)"
      },
      {
        "astId": 43219,
        "contract": "contracts/oracle/SimplePriceOracle.sol:SimplePriceOracle",
        "label": "isPriceFeed",
        "offset": 0,
        "slot": "2",
        "type": "t_mapping(t_address,t_bool)"
      }
    ],
    "types": {
      "t_address": {
        "encoding": "inplace",
        "label": "address",
        "numberOfBytes": "20"
      },
      "t_bool": {
        "encoding": "inplace",
        "label": "bool",
        "numberOfBytes": "1"
      },
      "t_mapping(t_address,t_bool)": {
        "encoding": "mapping",
        "key": "t_address",
        "label": "mapping(address => bool)",
        "numberOfBytes": "32",
        "value": "t_bool"
      },
      "t_mapping(t_address,t_uint64)": {
        "encoding": "mapping",
        "key": "t_address",
        "label": "mapping(address => uint64)",
        "numberOfBytes": "32",
        "value": "t_uint64"
      },
      "t_uint64": {
        "encoding": "inplace",
        "label": "uint64",
        "numberOfBytes": "8"
      }
    }
  }
}