{
  "address": "0x3945b869813189f9d220F9b80478AA5eEd5415E6",
  "abi": [
    {
      "inputs": [
        {
          "internalType": "address",
          "name": "_aclManager",
          "type": "address"
        },
        {
          "internalType": "address",
          "name": "_configurator",
          "type": "address"
        },
        {
          "internalType": "address",
          "name": "_priceOracle",
          "type": "address"
        }
      ],
      "stateMutability": "nonpayable",
      "type": "constructor"
    },
    {
      "inputs": [],
      "name": "ReentrancyGuardReentrantCall",
      "type": "error"
    },
    {
      "anonymous": false,
      "inputs": [
        {
          "indexed": true,
          "internalType": "address",
          "name": "reserve",
          "type": "address"
        },
        {
          "indexed": true,
          "internalType": "address",
          "name": "user",
          "type": "address"
        }
      ],
      "name": "Borrow",
      "type": "event"
    },
    {
      "anonymous": false,
      "inputs": [
        {
          "indexed": true,
          "internalType": "address",
          "name": "admin",
          "type": "address"
        },
        {
          "indexed": false,
          "internalType": "uint64",
          "name": "timestamp",
          "type": "uint64"
        }
      ],
      "name": "ProtocolPaused",
      "type": "event"
    },
    {
      "anonymous": false,
      "inputs": [
        {
          "indexed": true,
          "internalType": "address",
          "name": "admin",
          "type": "address"
        },
        {
          "indexed": false,
          "internalType": "uint64",
          "name": "timestamp",
          "type": "uint64"
        }
      ],
      "name": "ProtocolUnpaused",
      "type": "event"
    },
    {
      "anonymous": false,
      "inputs": [
        {
          "indexed": true,
          "internalType": "address",
          "name": "reserve",
          "type": "address"
        },
        {
          "indexed": true,
          "internalType": "address",
          "name": "user",
          "type": "address"
        }
      ],
      "name": "Repay",
      "type": "event"
    },
    {
      "anonymous": false,
      "inputs": [
        {
          "indexed": true,
          "internalType": "address",
          "name": "reserve",
          "type": "address"
        },
        {
          "indexed": true,
          "internalType": "address",
          "name": "user",
          "type": "address"
        }
      ],
      "name": "Supply",
      "type": "event"
    },
    {
      "anonymous": false,
      "inputs": [
        {
          "indexed": true,
          "internalType": "address",
          "name": "user",
          "type": "address"
        },
        {
          "indexed": true,
          "internalType": "address",
          "name": "asset",
          "type": "address"
        },
        {
          "indexed": false,
          "internalType": "bool",
          "name": "useAsCollateral",
          "type": "bool"
        }
      ],
      "name": "UserCollateralChanged",
      "type": "event"
    },
    {
      "anonymous": false,
      "inputs": [
        {
          "indexed": true,
          "internalType": "address",
          "name": "reserve",
          "type": "address"
        },
        {
          "indexed": true,
          "internalType": "address",
          "name": "user",
          "type": "address"
        }
      ],
      "name": "Withdraw",
      "type": "event"
    },
    {
      "inputs": [],
      "name": "aclManager",
      "outputs": [
        {
          "internalType": "contract ACLManager",
          "name": "",
          "type": "address"
        }
      ],
      "stateMutability": "view",
      "type": "function"
    },
    {
      "inputs": [
        {
          "internalType": "address",
          "name": "asset",
          "type": "address"
        },
        {
          "internalType": "externalEuint64",
          "name": "amountE6",
          "type": "bytes32"
        },
        {
          "internalType": "bytes",
          "name": "inputProof",
          "type": "bytes"
        }
      ],
      "name": "borrow",
      "outputs": [],
      "stateMutability": "nonpayable",
      "type": "function"
    },
    {
      "inputs": [],
      "name": "cethAddress",
      "outputs": [
        {
          "internalType": "address",
          "name": "",
          "type": "address"
        }
      ],
      "stateMutability": "view",
      "type": "function"
    },
    {
      "inputs": [],
      "name": "configurator",
      "outputs": [
        {
          "internalType": "contract IConfidentialPoolConfigurator",
          "name": "",
          "type": "address"
        }
      ],
      "stateMutability": "view",
      "type": "function"
    },
    {
      "inputs": [
        {
          "internalType": "address",
          "name": "asset",
          "type": "address"
        }
      ],
      "name": "getReserveData",
      "outputs": [
        {
          "components": [
            {
              "internalType": "address",
              "name": "underlyingAsset",
              "type": "address"
            },
            {
              "internalType": "euint64",
              "name": "totalSupplied",
              "type": "bytes32"
            },
            {
              "internalType": "euint64",
              "name": "totalBorrowed",
              "type": "bytes32"
            },
            {
              "internalType": "euint64",
              "name": "availableLiquidity",
              "type": "bytes32"
            },
            {
              "internalType": "uint64",
              "name": "lastUpdateTimestamp",
              "type": "uint64"
            },
            {
              "internalType": "bool",
              "name": "active",
              "type": "bool"
            },
            {
              "internalType": "bool",
              "name": "borrowingEnabled",
              "type": "bool"
            },
            {
              "internalType": "bool",
              "name": "isCollateral",
              "type": "bool"
            },
            {
              "internalType": "bool",
              "name": "isPaused",
              "type": "bool"
            },
            {
              "internalType": "uint64",
              "name": "collateralFactor",
              "type": "uint64"
            },
            {
              "internalType": "uint64",
              "name": "supplyCap",
              "type": "uint64"
            },
            {
              "internalType": "uint64",
              "name": "borrowCap",
              "type": "uint64"
            },
            {
              "internalType": "uint8",
              "name": "decimals",
              "type": "uint8"
            }
          ],
          "internalType": "struct Types.ConfidentialReserve",
          "name": "",
          "type": "tuple"
        }
      ],
      "stateMutability": "view",
      "type": "function"
    },
    {
      "inputs": [],
      "name": "getReserveList",
      "outputs": [
        {
          "internalType": "address[]",
          "name": "",
          "type": "address[]"
        }
      ],
      "stateMutability": "view",
      "type": "function"
    },
    {
      "inputs": [
        {
          "internalType": "address",
          "name": "user",
          "type": "address"
        },
        {
          "internalType": "address",
          "name": "asset",
          "type": "address"
        }
      ],
      "name": "getUserBorrowedBalance",
      "outputs": [
        {
          "internalType": "euint64",
          "name": "",
          "type": "bytes32"
        }
      ],
      "stateMutability": "view",
      "type": "function"
    },
    {
      "inputs": [
        {
          "internalType": "address",
          "name": "user",
          "type": "address"
        }
      ],
      "name": "getUserPosition",
      "outputs": [
        {
          "components": [
            {
              "internalType": "bool",
              "name": "initialized",
              "type": "bool"
            },
            {
              "internalType": "address",
              "name": "currentDebtAsset",
              "type": "address"
            }
          ],
          "internalType": "struct Types.ConfidentialUserPosition",
          "name": "",
          "type": "tuple"
        }
      ],
      "stateMutability": "view",
      "type": "function"
    },
    {
      "inputs": [
        {
          "internalType": "address",
          "name": "user",
          "type": "address"
        },
        {
          "internalType": "address",
          "name": "asset",
          "type": "address"
        }
      ],
      "name": "getUserSuppliedBalance",
      "outputs": [
        {
          "internalType": "euint64",
          "name": "",
          "type": "bytes32"
        }
      ],
      "stateMutability": "view",
      "type": "function"
    },
    {
      "inputs": [
        {
          "internalType": "address",
          "name": "asset",
          "type": "address"
        },
        {
          "internalType": "bool",
          "name": "borrowingEnabled",
          "type": "bool"
        },
        {
          "internalType": "bool",
          "name": "isCollateral",
          "type": "bool"
        },
        {
          "internalType": "uint64",
          "name": "collateralFactor",
          "type": "uint64"
        }
      ],
      "name": "initReserve",
      "outputs": [],
      "stateMutability": "nonpayable",
      "type": "function"
    },
    {
      "inputs": [],
      "name": "pause",
      "outputs": [],
      "stateMutability": "nonpayable",
      "type": "function"
    },
    {
      "inputs": [],
      "name": "paused",
      "outputs": [
        {
          "internalType": "bool",
          "name": "",
          "type": "bool"
        }
      ],
      "stateMutability": "view",
      "type": "function"
    },
    {
      "inputs": [],
      "name": "priceOracle",
      "outputs": [
        {
          "internalType": "contract IPriceOracle",
          "name": "",
          "type": "address"
        }
      ],
      "stateMutability": "view",
      "type": "function"
    },
    {
      "inputs": [],
      "name": "protocolId",
      "outputs": [
        {
          "internalType": "uint256",
          "name": "",
          "type": "uint256"
        }
      ],
      "stateMutability": "pure",
      "type": "function"
    },
    {
      "inputs": [
        {
          "internalType": "address",
          "name": "asset",
          "type": "address"
        },
        {
          "internalType": "externalEuint64",
          "name": "amountE6",
          "type": "bytes32"
        },
        {
          "internalType": "bytes",
          "name": "inputProof",
          "type": "bytes"
        }
      ],
      "name": "repay",
      "outputs": [],
      "stateMutability": "nonpayable",
      "type": "function"
    },
    {
      "inputs": [
        {
          "internalType": "address",
          "name": "asset",
          "type": "address"
        }
      ],
      "name": "repayAll",
      "outputs": [],
      "stateMutability": "nonpayable",
      "type": "function"
    },
    {
      "inputs": [
        {
          "internalType": "uint256",
          "name": "",
          "type": "uint256"
        }
      ],
      "name": "reserveList",
      "outputs": [
        {
          "internalType": "address",
          "name": "",
          "type": "address"
        }
      ],
      "stateMutability": "view",
      "type": "function"
    },
    {
      "inputs": [
        {
          "internalType": "address",
          "name": "",
          "type": "address"
        }
      ],
      "name": "reserves",
      "outputs": [
        {
          "internalType": "address",
          "name": "underlyingAsset",
          "type": "address"
        },
        {
          "internalType": "euint64",
          "name": "totalSupplied",
          "type": "bytes32"
        },
        {
          "internalType": "euint64",
          "name": "totalBorrowed",
          "type": "bytes32"
        },
        {
          "internalType": "euint64",
          "name": "availableLiquidity",
          "type": "bytes32"
        },
        {
          "internalType": "uint64",
          "name": "lastUpdateTimestamp",
          "type": "uint64"
        },
        {
          "internalType": "bool",
          "name": "active",
          "type": "bool"
        },
        {
          "internalType": "bool",
          "name": "borrowingEnabled",
          "type": "bool"
        },
        {
          "internalType": "bool",
          "name": "isCollateral",
          "type": "bool"
        },
        {
          "internalType": "bool",
          "name": "isPaused",
          "type": "bool"
        },
        {
          "internalType": "uint64",
          "name": "collateralFactor",
          "type": "uint64"
        },
        {
          "internalType": "uint64",
          "name": "supplyCap",
          "type": "uint64"
        },
        {
          "internalType": "uint64",
          "name": "borrowCap",
          "type": "uint64"
        },
        {
          "internalType": "uint8",
          "name": "decimals",
          "type": "uint8"
        }
      ],
      "stateMutability": "view",
      "type": "function"
    },
    {
      "inputs": [
        {
          "internalType": "address",
          "name": "_ceth",
          "type": "address"
        }
      ],
      "name": "setCollateralAsset",
      "outputs": [],
      "stateMutability": "nonpayable",
      "type": "function"
    },
    {
      "inputs": [
        {
          "internalType": "address",
          "name": "_configurator",
          "type": "address"
        }
      ],
      "name": "setConfigurator",
      "outputs": [],
      "stateMutability": "nonpayable",
      "type": "function"
    },
    {
      "inputs": [
        {
          "internalType": "address",
          "name": "_priceOracle",
          "type": "address"
        }
      ],
      "name": "setPriceOracle",
      "outputs": [],
      "stateMutability": "nonpayable",
      "type": "function"
    },
    {
      "inputs": [
        {
          "internalType": "address",
          "name": "asset",
          "type": "address"
        },
        {
          "internalType": "bool",
          "name": "useAsCollateral",
          "type": "bool"
        }
      ],
      "name": "setUserUseReserveAsCollateral",
      "outputs": [],
      "stateMutability": "nonpayable",
      "type": "function"
    },
    {
      "inputs": [
        {
          "internalType": "address",
          "name": "asset",
          "type": "address"
        },
        {
          "internalType": "externalEuint64",
          "name": "amountE6",
          "type": "bytes32"
        },
        {
          "internalType": "bytes",
          "name": "inputProof",
          "type": "bytes"
        }
      ],
      "name": "supply",
      "outputs": [],
      "stateMutability": "nonpayable",
      "type": "function"
    },
    {
      "inputs": [],
      "name": "unpause",
      "outputs": [],
      "stateMutability": "nonpayable",
      "type": "function"
    },
    {
      "inputs": [
        {
          "internalType": "address",
          "name": "asset",
          "type": "address"
        },
        {
          "internalType": "bool",
          "name": "active",
          "type": "bool"
        },
        {
          "internalType": "bool",
          "name": "borrowingEnabled",
          "type": "bool"
        },
        {
          "internalType": "bool",
          "name": "isCollateral",
          "type": "bool"
        },
        {
          "internalType": "uint64",
          "name": "collateralFactor",
          "type": "uint64"
        },
        {
          "internalType": "uint64",
          "name": "supplyCap",
          "type": "uint64"
        },
        {
          "internalType": "uint64",
          "name": "borrowCap",
          "type": "uint64"
        }
      ],
      "name": "updateReserveConfig",
      "outputs": [],
      "stateMutability": "nonpayable",
      "type": "function"
    },
    {
      "inputs": [
        {
          "internalType": "address",
          "name": "",
          "type": "address"
        },
        {
          "internalType": "address",
          "name": "",
          "type": "address"
        }
      ],
      "name": "userCollateralEnabled",
      "outputs": [
        {
          "internalType": "bool",
          "name": "",
          "type": "bool"
        }
      ],
      "stateMutability": "view",
      "type": "function"
    },
    {
      "inputs": [
        {
          "internalType": "address",
          "name": "asset",
          "type": "address"
        },
        {
          "internalType": "externalEuint64",
          "name": "amountE6",
          "type": "bytes32"
        },
        {
          "internalType": "bytes",
          "name": "inputProof",
          "type": "bytes"
        }
      ],
      "name": "withdraw",
      "outputs": [],
      "stateMutability": "nonpayable",
      "type": "function"
    }
  ],
  "transactionHash": "0xd0c3ff9d7caef798bcd4ac3978e32cf6d670be2280f308d6efbb232b417283ba",
  "args": [
    "0x9F1105E7bf5DCfd211f3Ae62d818B4fabeA6F9a3",
    "0x7260Ccb6B968334042F5ED37E46bD53D0e1D5bfC",
    "0x92e15f6898453196c20B055CeC21A5BFAf03e131"
  ],
  "numDeployments": 1,
  "solcInputHash": "a62c207e87d971955052069fb0bf3902",
  "bytecode": "0x60a06040523461027857604051601f6133a638819003918201601f19168301916001600160401b0383118484101761027c578084926060946040528339810103126102785761004d816102af565b610065604061005e602085016102af565b93016102af565b9060015f555f6060610075610290565b8281528260208201528260408201520152731364cbbf2cdf5032c47d8226a6f6fbd2afcdacac60606100a5610290565b73687820221192c5b662b25367f70076a37bc79b6c80825273848b0066793bcc60346da1f49049357399b8d5956020830181905273a02cda4ca3a71d7c46997716f4283aa851c288126040840181905293909201939093527f9e7b61f58c47dc699ac88507c4f5bb9f121c03808c5676a8078fe583e464970080546001600160a01b031990811690941790557f9e7b61f58c47dc699ac88507c4f5bb9f121c03808c5676a8078fe583e46497018054841690911790557f9e7b61f58c47dc699ac88507c4f5bb9f121c03808c5676a8078fe583e46497028054831690911790557f9e7b61f58c47dc699ac88507c4f5bb9f121c03808c5676a8078fe583e46497038054909116731364cbbf2cdf5032c47d8226a6f6fbd2afcdacac1790556001600160a01b0316916101e06101d86102c3565b8415156102f1565b6001600160a01b0316906101fd6101f56102c3565b8315156102f1565b6001600160a01b0316916102126101d86102c3565b608052600180546001600160a01b031916919091179055600280546001600160a81b03191691909117905560405161306d9081610339823960805181818161077201528181610bae015281816113f4015281816121a90152818161228a01526122d30152f35b5f80fd5b634e487b7160e01b5f52604160045260245ffd5b60405190608082016001600160401b0381118382101761027c57604052565b51906001600160a01b038216820361027857565b60408051919082016001600160401b0381118382101761027c576040526002825261313760f01b6020830152565b156102f95750565b604460209160405192839162461bcd60e51b83528160048401528051918291826024860152018484015e5f828201840152601f01601f19168101030190fdfe60806040526004361015610011575f80fd5b5f5f3560e01c8063251c8c3e146126625780632630c12f1461263c5780632b507df81461261657806335ea6a751461240c5780633f4ba83a146122ae57806340298ed71461226b57806349e3d54314612217578063530e784f1461217457806358c23a3714611f785780635a3b74b914611e705780635b7c2dad14611df65780635c975abb14611dd157806366d4c41314611d095780636dc522c514611cb05780637c27383b14611af75780637cccc42c146115455780638456cb59146113cf578063994dec9914610c655780639d6030a314610c245780639f5f86ae14610b795780639f65ba801461093f578063d2997d2614610919578063d66bd52414610831578063d82d84211461073d578063da1f12ab14610721578063eda5fd82146101935763fc7a9e2414610143575f80fd5b34610190576040366003190112610190576001600160a01b0360406101666127d8565b92826101706127ee565b9416815260076020522091165f52602052602060405f2054604051908152f35b80fd5b50346106c35760803660031901126106c3576101ad6127d8565b6101b561286d565b906101be61287c565b916064359167ffffffffffffffff831683036106c3576001600160a01b03906101f5826001541633146101ef612a05565b90612942565b1692835f5260046020526001600160a01b0360405f205416159161023560409384519061022286836128dc565b60018252603360f81b6020830152612942565b845f5260046020526005835f20866001600160a01b031982541617815561025a612cca565b926001820193845561034561026d612cca565b9760028401988955610300610280612cca565b6003860190815560048601805469ff0000000000000000001968ffffffffffffffffff199091164267ffffffffffffffff161768010000000000000000171695151560481b69ff000000000000000000169590951785559784546aff00000000000000000000191690151560501b6aff0000000000000000000016178455565b82547fffffffffffffffffffffffff000000000000000000ffffffffffffffffffffff1660609190911b73ffffffffffffffff00000000000000000000000016178255565b805467ffffffffffffffff60a01b1916905501805467ffffffffffffffff19168155835163313ce56760e01b81526020816004818a5afa908115610717575f916106db575b5068ff0000000000000000825491861b169068ff00000000000000001916179055549282516103b984826128dc565b6001815260208101601f19850195863683378251156106c75781526001600160a01b037f9e7b61f58c47dc699ac88507c4f5bb9f121c03808c5676a8078fe583e4649700541690813b156106c3578551637d6e912360e11b815260206004820152925160248401819052839160448301915f5b8181106106aa5750505091815f81819503925af180156106a05761068b575b505482519061045a84836128dc565b600182526020820190853683378251156106775781526001600160a01b037f9e7b61f58c47dc699ac88507c4f5bb9f121c03808c5676a8078fe583e4649700541690813b15610673578451637d6e912360e11b815260206004820152925160248401819052889392916044840191855b81811061065a575050508391838381809403925af1801561065057610637575b505054918151926104fb83856128dc565b6001845260208401913683378351156106235781526001600160a01b037f9e7b61f58c47dc699ac88507c4f5bb9f121c03808c5676a8078fe583e4649700541690813b1561061f578251637d6e912360e11b81526020600482015293516024850181905286949392916044850191865b818110610606575050508491848381809403925af19081156105fd57506105e4575b5050600554680100000000000000008110156105d0578060016105b3920160055561288b565b6001600160a01b03829392549160031b92831b921b191617905580f35b634e487b7160e01b83526041600452602483fd5b816105ee916128dc565b6105f957815f61058d565b5080fd5b513d84823e3d90fd5b825184528997506020938401939092019160010161056b565b8580fd5b634e487b7160e01b86526032600452602486fd5b81610641916128dc565b61064c57845f6104ea565b8480fd5b84513d84823e3d90fd5b825184528b9650602093840193909201916001016104ca565b8780fd5b634e487b7160e01b88526032600452602488fd5b6106989196505f906128dc565b5f945f61044b565b84513d5f823e3d90fd5b825184528694506020938401939092019160010161042c565b5f80fd5b634e487b7160e01b5f52603260045260245ffd5b90506020813d60201161070f575b816106f6602093836128dc565b810103126106c3575160ff811681036106c3575f61038a565b3d91506106e9565b85513d5f823e3d90fd5b346106c3575f3660031901126106c35760206040516127118152f35b346106c35760203660031901126106c3576107566127d8565b604051637be53ca160e01b8152336004820152906020826024817f00000000000000000000000000000000000000000000000000000000000000006001600160a01b03165afa918215610826576001600160a01b03926107c0915f916107f7575b506101ef6129c5565b16805f5260046020526107e260ff600460405f20015460501c166101ef612a25565b6001600160a01b031960035416176003555f80f35b610819915060203d60201161081f575b61081181836128dc565b81019061298d565b846107b7565b503d610807565b6040513d5f823e3d90fd5b346106c35760203660031901126106c3576001600160a01b036108526127d8565b165f5260046020526101a060405f2060ff6001600160a01b038254169167ffffffffffffffff600182015491600281015460038201549060056004840154930154946040519788526020880152604087015260608601528181166080860152838160401c16151560a0860152838160481c16151560c0860152838160501c16151560e0860152838160581c161515610100860152818160601c1661012086015260a01c1661014084015267ffffffffffffffff811661016084015260401c16610180820152f35b346106c3575f3660031901126106c35760206001600160a01b0360035416604051908152f35b346106c3576109dd6109d761095336612804565b9492939061095f612aeb565b61097460ff60025460a01c16156101ef6128fe565b6001600160a01b03851695865f5260046020526109a060ff600460405f20015460401c166101ef61296e565b335f5260086020526109d06001600160a01b0360405f205460081c16808914908115610b70575b506101ef612a45565b3691612a65565b90612b09565b335f52600760205260405f20835f5260205260405f2054916020610a018484612ec6565b9260646001600160a01b035f5160206130415f395f51905f525416945f6040519687948593637702dcff60e01b8552600485015289602485015260448401525af1908115610826575f91610b3b575b60209250845f5260048352610a9e60405f2094604051958694859463517046ab60e01b865260048601909493926060926001600160a01b036080840197168352602083015260408201520152565b0381735B227f4cBF1cd18b29F46E7d248c66f82Cc561975af4908115610826575f91610b09575b50335f52600760205260405f20825f5260205260405f205533907f7d361c02aa3e26ac9383eca42a9b4f42433e252882bfb806e8b76869b815250f5f80a360015f55005b90506020813d602011610b33575b81610b24602093836128dc565b810103126106c3575182610ac5565b3d9150610b17565b90506020823d602011610b68575b81610b56602093836128dc565b810103126106c3576020915190610a50565b3d9150610b49565b905015896109c7565b346106c35760203660031901126106c357610b926127d8565b604051637be53ca160e01b8152336004820152906020826024817f00000000000000000000000000000000000000000000000000000000000000006001600160a01b03165afa918215610826576001600160a01b0392610bfb915f916107f757506101ef6129c5565b16610c0f610c076129e5565b821515612942565b6001600160a01b031960015416176001555f80f35b346106c35760203660031901126106c3576004356005548110156106c3576001600160a01b03610c5560209261288b565b90549060031b1c16604051908152f35b346106c357610c7336612804565b929091610c7e612aeb565b610c9360ff60025460a01c16156101ef6128fe565b6001600160a01b03821693845f526004602052610cbf60ff600460405f20015460401c166101ef61296e565b845f52600460205260ff600460405f20015460481c1690610cfc604092835190610ce985836128dc565b60018252601960f91b6020830152612942565b335f526009602052815f206001600160a01b038060035416165f52602052610d4560ff835f205416835190610d3185836128dc565b6002825261343360f01b6020830152612942565b335f526008602052815f20946001600160a01b03865460081c168781151591826113c4575b505061138257610d78612cca565b93335f526009602052835f206001600160a01b0360035416906001600160a01b0382165f5260205260ff855f205416611280575b50875f526004602052835f20916001600160a01b03600254169360208a60248851809881936341976e0960e01b835260048301525afa9485156111a0575f95611243575b50610e1792916109d7916109d0610e05612acb565b67ffffffffffffffff89161515612942565b93335f526007602052835f20885f52602052835f205492610e36612cca565b90896001600160a01b038a5460081c161461122c575b610e569087612e28565b818015918261121c575b801561120a575b60209060646001600160a01b035f5160206130415f395f51905f525416955f8b51978894859363022f65e760e31b8552600485015260248401528160448401525af1928315611200575f936111cc575b50829183156111bc575b6111aa575b60209060646001600160a01b035f5160206130415f395f51905f525416935f8a519586948593637210768160e01b8552600485015260248401528160448401525af180156111a0575f9061116d575b602091506064610f23612cca565b915f6001600160a01b035f5160206130415f395f51905f5254168a519687958694637702dcff60e01b86526004860152602485015260448401525af1908115610717575f9161113a575b50602091610f7a91612c16565b946064610f85612cca565b965f6001600160a01b035f5160206130415f395f51905f5254168851998a958694637702dcff60e01b86526004860152602485015260448401525af1938415611130575f946110fc575b5082519363ae173cfd60e01b85528760048601526024850152604484015260648301528360848301523360a483015260208260c481735B227f4cBF1cd18b29F46E7d248c66f82Cc561975af49182156110f2575f926110be575b50335f526007602052805f20855f526020525f20556001600160a01b03825460081c161561107e575b33837f5eae930007ef728c929bc9de3153bbe9493376f7c7c23fe4930ee22e1279fca85f80a360015f55005b74ffffffffffffffffffffffffffffffffffffffff001974ffffffffffffffffffffffffffffffffffffffff0083549260081b1691161790558180611052565b9091506020813d6020116110ea575b816110da602093836128dc565b810103126106c357519085611029565b3d91506110cd565b50513d5f823e3d90fd5b9093506020813d602011611128575b81611118602093836128dc565b810103126106c357519287610fcf565b3d915061110b565b83513d5f823e3d90fd5b90506020813d602011611165575b81611155602093836128dc565b810103126106c357516020610f6d565b3d9150611148565b506020813d602011611198575b81611187602093836128dc565b810103126106c35760209051610f15565b3d915061117a565b86513d5f823e3d90fd5b5060206111b5612cca565b9050610ec6565b91506111c6612cca565b91610ec1565b9092506020813d6020116111f8575b816111e8602093836128dc565b810103126106c35751918b610eb7565b3d91506111db565b87513d5f823e3d90fd5b506020611215612cca565b9050610e67565b9250611226612cca565b92610e60565b9050610e5661123b8286612e28565b919050610e4c565b6109d79195509161126f610e17949360203d602011611279575b61126781836128dc565b810190612aab565b9591509192610df0565b503d61125d565b805f5260046020526024855f2060206001600160a01b03600254168851938480926341976e0960e01b82528760048301525afa918215611200575f9261135e575b5060040191825460ff81891c169081611350575b508061133d575b6112e8575b5050610dac565b61133493975061132361132f939267ffffffffffffffff92335f5260066020526001600160a01b038a5f2091165f52602052885f2054612e28565b915460601c1690612f4b565b612fc7565b938880806112e1565b5067ffffffffffffffff821615156112dc565b60ff915060501c168c6112d5565b600491925061137b9060203d6020116112795761126781836128dc565b91906112c1565b6113c08380519061139381836128dc565b60028252611a1b60f11b60208301525191829162461bcd60e51b835260206004840152602483019061291e565b0390fd5b141590508789610d6a565b346106c3575f3660031901126106c357604051631280795b60e11b81523360048201527f00000000000000000000000000000000000000000000000000000000000000006001600160a01b031690602081602481855afa908115610826575f91611526575b5080156114d1575b611448906101ef6129a5565b7401000000000000000000000000000000000000000060ff60a01b196002546114946040516114786040826128dc565b6002815261343560f01b602082015260ff8360a01c1615612942565b161760025560405167ffffffffffffffff421681527f1c883451b4786346180a7d3731cbed7f2734b86a86c1c0d619c51af274f2ec6060203392a2005b50602060249160405192838092637be53ca160e01b82523360048301525afa801561082657611448915f91611507575b5061143c565b611520915060203d60201161081f5761081181836128dc565b82611501565b61153f915060203d60201161081f5761081181836128dc565b82611434565b346106c3576001600160a01b0361155b36612804565b9192611568949194612aeb565b61157d60ff60025460a01c16156101ef6128fe565b1691825f5260046020526115a060ff600460405f20015460401c166101ef61296e565b6040519260a0840184811067ffffffffffffffff821117611ae35760405261161860208501925f84526109d760408701975f895260608801966060885260808901975f8952868a52335f52600660205260405f20875f5260205260405f20548b5261160c368385612a65565b90523388523691612a65565b82526001600160a01b03600354168091149081611ab8575b5015611a09576001600160a01b0390818351165f52600860205251935191511690611659612cca565b91805f5260086020526001600160a01b0360405f205460081c168061193c575b50506001600160a01b0360035416805f52600460205260405f2060206001600160a01b0360025416926024604051809581936341976e0960e01b835260048301525afa918215610826575f9261190e575b506004015460601c67ffffffffffffffff16916116fa6116e8612acb565b67ffffffffffffffff84161515612942565b6117048187612ec6565b9061170d612cca565b8782156118fe575b88156118ec575b60209060646001600160a01b035f5160206130415f395f51905f525416945f60405196879485936303056db360e31b8552600485015260248401528160448401525af1918215610826575f926118b7575b506064602092935f6001600160a01b035f5160206130415f395f51905f5254166040519687958694637702dcff60e01b86526004860152602485015260448401525af1908115610826575f9161187d575b5061132f6117e1936117d6602096946117db94612e28565b612f4b565b90612c16565b9260646117ec612cca565b945f6001600160a01b035f5160206130415f395f51905f5254166040519788958694637702dcff60e01b86526004860152602485015260448401525af1908115610826575f91611847575b6118419250612d18565b60015f55005b90506020823d602011611875575b81611862602093836128dc565b810103126106c357611841915190611837565b3d9150611855565b90506020939193813d6020116118af575b8161189b602093836128dc565b810103126106c3575190929061132f6117be565b3d915061188e565b91506020823d6020116118e4575b816118d2602093836128dc565b810103126106c357905190606461176d565b3d91506118c5565b5060206118f7612cca565b905061171c565b9150611908612cca565b91611715565b67ffffffffffffffff91925061193460049160203d6020116112795761126781836128dc565b9291506116ca565b602491815f52600460205260405f2060206001600160a01b0360025416604051958680926341976e0960e01b82528760048301525afa938415610826575f946119e2575b506004015460401c60ff16806119cf575b61199c575b50611679565b6119c69394505f5260076020526001600160a01b0360405f2091165f5260205260405f2054612e28565b90848080611996565b5067ffffffffffffffff83161515611991565b60ff919450611a0160049160203d6020116112795761126781836128dc565b949150611980565b9260209150611a1c908451905190612c16565b92516064611a28612cca565b945f6001600160a01b035f5160206130415f395f51905f5254166040519788958694637702dcff60e01b86526004860152602485015260448401525af1908115610826575f91611a82575b611a7d9250612d18565b611841565b90506020823d602011611ab0575b81611a9d602093836128dc565b810103126106c357611a7d915190611a73565b3d9150611a90565b9050335f5260096020526001600160a01b0360405f2091165f5260205260ff60405f20541685611630565b634e487b7160e01b5f52604160045260245ffd5b346106c35760203660031901126106c357611b106127d8565b611b18612aeb565b611b2d60ff60025460a01c16156101ef6128fe565b6001600160a01b03811690815f526004602052611b5960ff600460405f20015460401c166101ef61296e565b335f52600860205260405f2090611b8a6001600160a01b03835460081c16808514908115611ca757506101ef612a45565b335f52600760205260405f20835f52602052602060405f2054845f526004825260405f2092611bee82604051958694859463517046ab60e01b865260048601909493926060926001600160a01b036080840197168352602083015260408201520152565b0381735B227f4cBF1cd18b29F46E7d248c66f82Cc561975af4908115610826575f91611c75575b50335f52600760205260405f20835f5260205260405f205574ffffffffffffffffffffffffffffffffffffffff0019815416905533907f7d361c02aa3e26ac9383eca42a9b4f42433e252882bfb806e8b76869b815250f5f80a360015f55005b90506020813d602011611c9f575b81611c90602093836128dc565b810103126106c3575183611c15565b3d9150611c83565b905015856109c7565b346106c35760403660031901126106c357611cc96127d8565b6001600160a01b03611cd96127ee565b91165f5260096020526001600160a01b0360405f2091165f52602052602060ff60405f2054166040519015158152f35b346106c3575f3660031901126106c3576040518060206005549283815201809260055f527f036b6384b5eca791c62761152d0c79bb0604c104a5fb6f4eb0703f3154bb3db0905f5b818110611db25750505081611d679103826128dc565b604051918291602083019060208452518091526040830191905f5b818110611d90575050500390f35b82516001600160a01b0316845285945060209384019390920191600101611d82565b82546001600160a01b0316845260209093019260019283019201611d51565b346106c3575f3660031901126106c357602060ff60025460a01c166040519015158152f35b346106c35760203660031901126106c3576001600160a01b03611e176127d8565b5f6020604051611e26816128c0565b8281520152165f5260086020526040805f206001600160a01b03825191611e4c836128c0565b5481602060ff8316151594858152019160081c168152835192835251166020820152f35b346106c35760403660031901126106c357611e896127d8565b6001600160a01b03611e9961286d565b91611eaf60ff60025460a01c16156101ef6128fe565b1690815f526004602052611ed260ff600460405f20015460401c166101ef61296e565b6001600160a01b03600354168214611f07604091825190611ef384836128dc565b60028252611b1960f11b6020830152612942565b825f526004602052611f2760ff6004835f20015460501c166101ef612a25565b335f526009602052805f20835f52602052805f209115159160ff1981541660ff8416179055519081527f0f3cbb56bcd64c784c68341cb9b9a8204d405c113579e2c1826f4675d07a291260203392a3005b346106c35760e03660031901126106c357611f916127d8565b611f9961286d565b611fa161287c565b916064359283151584036106c3576084359267ffffffffffffffff841684036106c35760a43567ffffffffffffffff811681036106c35760c4359567ffffffffffffffff871687036106c35767ffffffffffffffff956120e2612127926001600160a01b0360059861201b826001541633146101ef612a05565b16805f52600460205261205a6001600160a01b0360405f2054161515604051906120466040836128dc565b6002825261363360f01b6020830152612942565b5f5260046020526120ba60405f2097600489019768ff0000000000000000895491151560401b169068ff00000000000000001916178855879069ff000000000000000000825491151560481b169069ff0000000000000000001916179055565b85546aff00000000000000000000191690151560501b6aff0000000000000000000016178555565b83547fffffffffffffffffffffffff0000000000000000ffffffffffffffffffffffff1660609190911b73ffffffffffffffff00000000000000000000000016178355565b67ffffffffffffffff60a01b197bffffffffffffffff000000000000000000000000000000000000000083549260a01b16911617905501911667ffffffffffffffff198254161790555f80f35b346106c35760203660031901126106c35761218d6127d8565b604051637be53ca160e01b8152336004820152906020826024817f00000000000000000000000000000000000000000000000000000000000000006001600160a01b03165afa918215610826576001600160a01b03926121f6915f916107f757506101ef6129c5565b16612202610c076129e5565b6001600160a01b031960025416176002555f80f35b346106c35760403660031901126106c3576122306127d8565b6001600160a01b036122406127ee565b91165f5260066020526001600160a01b0360405f2091165f52602052602060405f2054604051908152f35b346106c3575f3660031901126106c35760206040516001600160a01b037f0000000000000000000000000000000000000000000000000000000000000000168152f35b346106c3575f3660031901126106c357604051631280795b60e11b81523360048201527f00000000000000000000000000000000000000000000000000000000000000006001600160a01b031690602081602481855afa908115610826575f916123ed575b508015612398575b612327906101ef6129a5565b60ff60a01b1960025461235c6040516123416040826128dc565b600281526106a760f31b602082015260ff8360a01c16612942565b1660025560405167ffffffffffffffff421681527fa0d5a0d65544bc3ec189635834f7b55d45a6a96ddb4a916cdad7a168df7ff41b60203392a2005b50602060249160405192838092637be53ca160e01b82523360048301525afa801561082657612327915f916123ce575b5061231b565b6123e7915060203d60201161081f5761081181836128dc565b826123c8565b612406915060203d60201161081f5761081181836128dc565b82612313565b346106c35760203660031901126106c3576124256127d8565b604051612431816128a3565b5f8152602081015f9052604081015f9052606081015f9052608081015f905260a081015f905260c081015f905260e081015f905261010081015f905261012081015f905261014081015f905261016081015f9052610180015f90526001600160a01b03165f52600460205260405f20604051906124ad826128a3565b80546001600160a01b0316918281526001820154916020820192835260028101549060408301918252600381015491606084019283526004820154926080850167ffffffffffffffff8516815260a086018560401c60ff161515815260c08701918660481c60ff161515835260e08801938760501c60ff16151585526101008901958860581c60ff16151587526101208a01978960601c67ffffffffffffffff1689526101408b019960a01c67ffffffffffffffff168a52600501549a6101608b019a67ffffffffffffffff8d168c52610180019b60401c60ff168c526040519c8d525160208d01525160408c01525160608b01525167ffffffffffffffff1660808a015251151560a089015251151560c088015251151560e08701525115156101008601525167ffffffffffffffff166101208501525167ffffffffffffffff166101408401525167ffffffffffffffff166101608301525160ff166101808201526101a090f35b346106c3575f3660031901126106c35760206001600160a01b0360015416604051908152f35b346106c3575f3660031901126106c35760206001600160a01b0360025416604051908152f35b346106c3576001600160a01b0360e4602061267c36612804565b9491959092612689612aeb565b61269e60ff60025460a01c16156101ef6128fe565b1694855f52600484526126c060ff600460405f20015460401c166101ef61296e565b855f52600484528460405f20335f526006865260405f20885f52865260405f2054335f526008875260405f209160405198899788966306c64f7d60e31b88528c6004890152602488015260c060448801528160c4880152878701375f8585018701526064850152608484015260a4830152601f01601f191681010301817347B72FF8e35239686Fe07d6dC2C1bdCaBcEf17695af4908115610826575f916127a6575b50335f52600660205260405f20825f5260205260405f205533907f44367040a4a812a98f8bef9ec29c3a81d253411d511d3730901803c0c341c8d15f80a360015f55005b90506020813d6020116127d0575b816127c1602093836128dc565b810103126106c3575182612762565b3d91506127b4565b600435906001600160a01b03821682036106c357565b602435906001600160a01b03821682036106c357565b9060606003198301126106c3576004356001600160a01b03811681036106c357916024359160443567ffffffffffffffff81116106c357826023820112156106c35780600401359267ffffffffffffffff84116106c357602484830101116106c3576024019190565b6024359081151582036106c357565b6044359081151582036106c357565b6005548110156106c75760055f5260205f2001905f90565b6101a0810190811067ffffffffffffffff821117611ae357604052565b6040810190811067ffffffffffffffff821117611ae357604052565b90601f8019910116810190811067ffffffffffffffff821117611ae357604052565b6040519061290d6040836128dc565b6002825261313960f01b6020830152565b805180835260209291819084018484015e5f828201840152601f01601f1916010190565b1561294a5750565b60405162461bcd60e51b8152602060048201529081906113c090602483019061291e565b6040519061297d6040836128dc565b60018252603160f81b6020830152565b908160209103126106c3575180151581036106c35790565b604051906129b46040836128dc565b6002825261189960f11b6020830152565b604051906129d46040836128dc565b6002825261031360f41b6020830152565b604051906129f46040836128dc565b6002825261313760f01b6020830152565b60405190612a146040836128dc565b6002825261036360f41b6020830152565b60405190612a346040836128dc565b60028252610d0d60f21b6020830152565b60405190612a546040836128dc565b6002825261363160f01b6020830152565b92919267ffffffffffffffff8211611ae35760405191612a8f601f8201601f1916602001846128dc565b8294818452818301116106c3578281602093845f960137010152565b908160209103126106c3575167ffffffffffffffff811681036106c35790565b60405190612ada6040836128dc565b6002825261353960f01b6020830152565b60025f5414612afa5760025f55565b633ee5aeb560e01b5f5260045ffd5b612b59916020916001600160a01b035f5160206130415f395f51905f525416905f60405180968195829463196d0b9b60e01b8452600484015233602484015260806044840152608483019061291e565b6005606483015203925af1908115610826575f91612be4575b506001600160a01b037f9e7b61f58c47dc699ac88507c4f5bb9f121c03808c5676a8078fe583e46497005416803b156106c3575f8091604460405180948193630f8e573b60e21b83528760048401523360248401525af1801561082657612bd7575090565b5f612be1916128dc565b90565b90506020813d602011612c0e575b81612bff602093836128dc565b810103126106c357515f612b72565b3d9150612bf2565b908115612cba575b8015612ca8575b60209060646001600160a01b035f5160206130415f395f51905f525416935f6040519586948593631d44e90160e21b8552600485015260248401528160448401525af1908115610826575f91612c79575090565b90506020813d602011612ca0575b81612c94602093836128dc565b810103126106c3575190565b3d9150612c87565b506020612cb3612cca565b9050612c25565b9050612cc4612cca565b90612c1e565b5f60206001600160a01b035f5160206130415f395f51905f525416604460405180948193639cd07acb60e01b8352816004840152600560248401525af1908115610826575f91612c79575090565b6001600160a01b03815116805f52600460205260405f2092604083015160808401946001600160a01b03865116926040519463367dfd7d60e01b86526004860152602485015260448401526064830152608482015260208160a4817347B72FF8e35239686Fe07d6dC2C1bdCaBcEf17695af4908115610826575f91612def575b506001600160a01b03918291828551165f52600660205260405f208380845116165f5260205260405f20555116915116907f34d58c18c6c1df2c698ccac556acea92941ca7b99d2fccf9e3ac1852d0dec36f5f80a3565b90506020813d602011612e20575b81612e0a602093836128dc565b810103126106c357516001600160a01b03612d98565b3d9150612dfd565b9067ffffffffffffffff811615612ebc57612e4291612f4b565b8015612ea8575b5f5160206130415f395f51905f5254604051635a53accb60e01b81526004810192909252620f42406024830152600160f81b6044830152602090829060649082905f906001600160a01b03165af1908115610826575f91612c79575090565b505f6020612eb4612cca565b915050612e49565b5050612be1612cca565b908115612f3b575b8015612f29575b60209060646001600160a01b035f5160206130415f395f51905f525416935f60405195869485936385362ee760e01b8552600485015260248401528160448401525af1908115610826575f91612c79575090565b506020612f34612cca565b9050612ed5565b9050612f45612cca565b90612ece565b67ffffffffffffffff916020918015612fb5575b6064905f6001600160a01b035f5160206130415f395f51905f5254166040519687958694630afe14ad60e31b86526004860152166024840152600160f81b60448401525af1908115610826575f91612c79575090565b506064612fc0612cca565b9050612f5f565b801561302c575b5f5160206130415f395f51905f5254604051635a53accb60e01b815260048101929092526127106024830152600160f81b6044830152602090829060649082905f906001600160a01b03165af1908115610826575f91612c79575090565b505f6020613038612cca565b915050612fce56fe9e7b61f58c47dc699ac88507c4f5bb9f121c03808c5676a8078fe583e4649701a164736f6c634300081b000a",
  "deployedBytecode": "0x60806040526004361015610011575f80fd5b5f5f3560e01c8063251c8c3e146126625780632630c12f1461263c5780632b507df81461261657806335ea6a751461240c5780633f4ba83a146122ae57806340298ed71461226b57806349e3d54314612217578063530e784f1461217457806358c23a3714611f785780635a3b74b914611e705780635b7c2dad14611df65780635c975abb14611dd157806366d4c41314611d095780636dc522c514611cb05780637c27383b14611af75780637cccc42c146115455780638456cb59146113cf578063994dec9914610c655780639d6030a314610c245780639f5f86ae14610b795780639f65ba801461093f578063d2997d2614610919578063d66bd52414610831578063d82d84211461073d578063da1f12ab14610721578063eda5fd82146101935763fc7a9e2414610143575f80fd5b34610190576040366003190112610190576001600160a01b0360406101666127d8565b92826101706127ee565b9416815260076020522091165f52602052602060405f2054604051908152f35b80fd5b50346106c35760803660031901126106c3576101ad6127d8565b6101b561286d565b906101be61287c565b916064359167ffffffffffffffff831683036106c3576001600160a01b03906101f5826001541633146101ef612a05565b90612942565b1692835f5260046020526001600160a01b0360405f205416159161023560409384519061022286836128dc565b60018252603360f81b6020830152612942565b845f5260046020526005835f20866001600160a01b031982541617815561025a612cca565b926001820193845561034561026d612cca565b9760028401988955610300610280612cca565b6003860190815560048601805469ff0000000000000000001968ffffffffffffffffff199091164267ffffffffffffffff161768010000000000000000171695151560481b69ff000000000000000000169590951785559784546aff00000000000000000000191690151560501b6aff0000000000000000000016178455565b82547fffffffffffffffffffffffff000000000000000000ffffffffffffffffffffff1660609190911b73ffffffffffffffff00000000000000000000000016178255565b805467ffffffffffffffff60a01b1916905501805467ffffffffffffffff19168155835163313ce56760e01b81526020816004818a5afa908115610717575f916106db575b5068ff0000000000000000825491861b169068ff00000000000000001916179055549282516103b984826128dc565b6001815260208101601f19850195863683378251156106c75781526001600160a01b037f9e7b61f58c47dc699ac88507c4f5bb9f121c03808c5676a8078fe583e4649700541690813b156106c3578551637d6e912360e11b815260206004820152925160248401819052839160448301915f5b8181106106aa5750505091815f81819503925af180156106a05761068b575b505482519061045a84836128dc565b600182526020820190853683378251156106775781526001600160a01b037f9e7b61f58c47dc699ac88507c4f5bb9f121c03808c5676a8078fe583e4649700541690813b15610673578451637d6e912360e11b815260206004820152925160248401819052889392916044840191855b81811061065a575050508391838381809403925af1801561065057610637575b505054918151926104fb83856128dc565b6001845260208401913683378351156106235781526001600160a01b037f9e7b61f58c47dc699ac88507c4f5bb9f121c03808c5676a8078fe583e4649700541690813b1561061f578251637d6e912360e11b81526020600482015293516024850181905286949392916044850191865b818110610606575050508491848381809403925af19081156105fd57506105e4575b5050600554680100000000000000008110156105d0578060016105b3920160055561288b565b6001600160a01b03829392549160031b92831b921b191617905580f35b634e487b7160e01b83526041600452602483fd5b816105ee916128dc565b6105f957815f61058d565b5080fd5b513d84823e3d90fd5b825184528997506020938401939092019160010161056b565b8580fd5b634e487b7160e01b86526032600452602486fd5b81610641916128dc565b61064c57845f6104ea565b8480fd5b84513d84823e3d90fd5b825184528b9650602093840193909201916001016104ca565b8780fd5b634e487b7160e01b88526032600452602488fd5b6106989196505f906128dc565b5f945f61044b565b84513d5f823e3d90fd5b825184528694506020938401939092019160010161042c565b5f80fd5b634e487b7160e01b5f52603260045260245ffd5b90506020813d60201161070f575b816106f6602093836128dc565b810103126106c3575160ff811681036106c3575f61038a565b3d91506106e9565b85513d5f823e3d90fd5b346106c3575f3660031901126106c35760206040516127118152f35b346106c35760203660031901126106c3576107566127d8565b604051637be53ca160e01b8152336004820152906020826024817f00000000000000000000000000000000000000000000000000000000000000006001600160a01b03165afa918215610826576001600160a01b03926107c0915f916107f7575b506101ef6129c5565b16805f5260046020526107e260ff600460405f20015460501c166101ef612a25565b6001600160a01b031960035416176003555f80f35b610819915060203d60201161081f575b61081181836128dc565b81019061298d565b846107b7565b503d610807565b6040513d5f823e3d90fd5b346106c35760203660031901126106c3576001600160a01b036108526127d8565b165f5260046020526101a060405f2060ff6001600160a01b038254169167ffffffffffffffff600182015491600281015460038201549060056004840154930154946040519788526020880152604087015260608601528181166080860152838160401c16151560a0860152838160481c16151560c0860152838160501c16151560e0860152838160581c161515610100860152818160601c1661012086015260a01c1661014084015267ffffffffffffffff811661016084015260401c16610180820152f35b346106c3575f3660031901126106c35760206001600160a01b0360035416604051908152f35b346106c3576109dd6109d761095336612804565b9492939061095f612aeb565b61097460ff60025460a01c16156101ef6128fe565b6001600160a01b03851695865f5260046020526109a060ff600460405f20015460401c166101ef61296e565b335f5260086020526109d06001600160a01b0360405f205460081c16808914908115610b70575b506101ef612a45565b3691612a65565b90612b09565b335f52600760205260405f20835f5260205260405f2054916020610a018484612ec6565b9260646001600160a01b035f5160206130415f395f51905f525416945f6040519687948593637702dcff60e01b8552600485015289602485015260448401525af1908115610826575f91610b3b575b60209250845f5260048352610a9e60405f2094604051958694859463517046ab60e01b865260048601909493926060926001600160a01b036080840197168352602083015260408201520152565b038173__$655450a95bea827d0f31b36328057c76a3$__5af4908115610826575f91610b09575b50335f52600760205260405f20825f5260205260405f205533907f7d361c02aa3e26ac9383eca42a9b4f42433e252882bfb806e8b76869b815250f5f80a360015f55005b90506020813d602011610b33575b81610b24602093836128dc565b810103126106c3575182610ac5565b3d9150610b17565b90506020823d602011610b68575b81610b56602093836128dc565b810103126106c3576020915190610a50565b3d9150610b49565b905015896109c7565b346106c35760203660031901126106c357610b926127d8565b604051637be53ca160e01b8152336004820152906020826024817f00000000000000000000000000000000000000000000000000000000000000006001600160a01b03165afa918215610826576001600160a01b0392610bfb915f916107f757506101ef6129c5565b16610c0f610c076129e5565b821515612942565b6001600160a01b031960015416176001555f80f35b346106c35760203660031901126106c3576004356005548110156106c3576001600160a01b03610c5560209261288b565b90549060031b1c16604051908152f35b346106c357610c7336612804565b929091610c7e612aeb565b610c9360ff60025460a01c16156101ef6128fe565b6001600160a01b03821693845f526004602052610cbf60ff600460405f20015460401c166101ef61296e565b845f52600460205260ff600460405f20015460481c1690610cfc604092835190610ce985836128dc565b60018252601960f91b6020830152612942565b335f526009602052815f206001600160a01b038060035416165f52602052610d4560ff835f205416835190610d3185836128dc565b6002825261343360f01b6020830152612942565b335f526008602052815f20946001600160a01b03865460081c168781151591826113c4575b505061138257610d78612cca565b93335f526009602052835f206001600160a01b0360035416906001600160a01b0382165f5260205260ff855f205416611280575b50875f526004602052835f20916001600160a01b03600254169360208a60248851809881936341976e0960e01b835260048301525afa9485156111a0575f95611243575b50610e1792916109d7916109d0610e05612acb565b67ffffffffffffffff89161515612942565b93335f526007602052835f20885f52602052835f205492610e36612cca565b90896001600160a01b038a5460081c161461122c575b610e569087612e28565b818015918261121c575b801561120a575b60209060646001600160a01b035f5160206130415f395f51905f525416955f8b51978894859363022f65e760e31b8552600485015260248401528160448401525af1928315611200575f936111cc575b50829183156111bc575b6111aa575b60209060646001600160a01b035f5160206130415f395f51905f525416935f8a519586948593637210768160e01b8552600485015260248401528160448401525af180156111a0575f9061116d575b602091506064610f23612cca565b915f6001600160a01b035f5160206130415f395f51905f5254168a519687958694637702dcff60e01b86526004860152602485015260448401525af1908115610717575f9161113a575b50602091610f7a91612c16565b946064610f85612cca565b965f6001600160a01b035f5160206130415f395f51905f5254168851998a958694637702dcff60e01b86526004860152602485015260448401525af1938415611130575f946110fc575b5082519363ae173cfd60e01b85528760048601526024850152604484015260648301528360848301523360a483015260208260c48173__$655450a95bea827d0f31b36328057c76a3$__5af49182156110f2575f926110be575b50335f526007602052805f20855f526020525f20556001600160a01b03825460081c161561107e575b33837f5eae930007ef728c929bc9de3153bbe9493376f7c7c23fe4930ee22e1279fca85f80a360015f55005b74ffffffffffffffffffffffffffffffffffffffff001974ffffffffffffffffffffffffffffffffffffffff0083549260081b1691161790558180611052565b9091506020813d6020116110ea575b816110da602093836128dc565b810103126106c357519085611029565b3d91506110cd565b50513d5f823e3d90fd5b9093506020813d602011611128575b81611118602093836128dc565b810103126106c357519287610fcf565b3d915061110b565b83513d5f823e3d90fd5b90506020813d602011611165575b81611155602093836128dc565b810103126106c357516020610f6d565b3d9150611148565b506020813d602011611198575b81611187602093836128dc565b810103126106c35760209051610f15565b3d915061117a565b86513d5f823e3d90fd5b5060206111b5612cca565b9050610ec6565b91506111c6612cca565b91610ec1565b9092506020813d6020116111f8575b816111e8602093836128dc565b810103126106c35751918b610eb7565b3d91506111db565b87513d5f823e3d90fd5b506020611215612cca565b9050610e67565b9250611226612cca565b92610e60565b9050610e5661123b8286612e28565b919050610e4c565b6109d79195509161126f610e17949360203d602011611279575b61126781836128dc565b810190612aab565b9591509192610df0565b503d61125d565b805f5260046020526024855f2060206001600160a01b03600254168851938480926341976e0960e01b82528760048301525afa918215611200575f9261135e575b5060040191825460ff81891c169081611350575b508061133d575b6112e8575b5050610dac565b61133493975061132361132f939267ffffffffffffffff92335f5260066020526001600160a01b038a5f2091165f52602052885f2054612e28565b915460601c1690612f4b565b612fc7565b938880806112e1565b5067ffffffffffffffff821615156112dc565b60ff915060501c168c6112d5565b600491925061137b9060203d6020116112795761126781836128dc565b91906112c1565b6113c08380519061139381836128dc565b60028252611a1b60f11b60208301525191829162461bcd60e51b835260206004840152602483019061291e565b0390fd5b141590508789610d6a565b346106c3575f3660031901126106c357604051631280795b60e11b81523360048201527f00000000000000000000000000000000000000000000000000000000000000006001600160a01b031690602081602481855afa908115610826575f91611526575b5080156114d1575b611448906101ef6129a5565b7401000000000000000000000000000000000000000060ff60a01b196002546114946040516114786040826128dc565b6002815261343560f01b602082015260ff8360a01c1615612942565b161760025560405167ffffffffffffffff421681527f1c883451b4786346180a7d3731cbed7f2734b86a86c1c0d619c51af274f2ec6060203392a2005b50602060249160405192838092637be53ca160e01b82523360048301525afa801561082657611448915f91611507575b5061143c565b611520915060203d60201161081f5761081181836128dc565b82611501565b61153f915060203d60201161081f5761081181836128dc565b82611434565b346106c3576001600160a01b0361155b36612804565b9192611568949194612aeb565b61157d60ff60025460a01c16156101ef6128fe565b1691825f5260046020526115a060ff600460405f20015460401c166101ef61296e565b6040519260a0840184811067ffffffffffffffff821117611ae35760405261161860208501925f84526109d760408701975f895260608801966060885260808901975f8952868a52335f52600660205260405f20875f5260205260405f20548b5261160c368385612a65565b90523388523691612a65565b82526001600160a01b03600354168091149081611ab8575b5015611a09576001600160a01b0390818351165f52600860205251935191511690611659612cca565b91805f5260086020526001600160a01b0360405f205460081c168061193c575b50506001600160a01b0360035416805f52600460205260405f2060206001600160a01b0360025416926024604051809581936341976e0960e01b835260048301525afa918215610826575f9261190e575b506004015460601c67ffffffffffffffff16916116fa6116e8612acb565b67ffffffffffffffff84161515612942565b6117048187612ec6565b9061170d612cca565b8782156118fe575b88156118ec575b60209060646001600160a01b035f5160206130415f395f51905f525416945f60405196879485936303056db360e31b8552600485015260248401528160448401525af1918215610826575f926118b7575b506064602092935f6001600160a01b035f5160206130415f395f51905f5254166040519687958694637702dcff60e01b86526004860152602485015260448401525af1908115610826575f9161187d575b5061132f6117e1936117d6602096946117db94612e28565b612f4b565b90612c16565b9260646117ec612cca565b945f6001600160a01b035f5160206130415f395f51905f5254166040519788958694637702dcff60e01b86526004860152602485015260448401525af1908115610826575f91611847575b6118419250612d18565b60015f55005b90506020823d602011611875575b81611862602093836128dc565b810103126106c357611841915190611837565b3d9150611855565b90506020939193813d6020116118af575b8161189b602093836128dc565b810103126106c3575190929061132f6117be565b3d915061188e565b91506020823d6020116118e4575b816118d2602093836128dc565b810103126106c357905190606461176d565b3d91506118c5565b5060206118f7612cca565b905061171c565b9150611908612cca565b91611715565b67ffffffffffffffff91925061193460049160203d6020116112795761126781836128dc565b9291506116ca565b602491815f52600460205260405f2060206001600160a01b0360025416604051958680926341976e0960e01b82528760048301525afa938415610826575f946119e2575b506004015460401c60ff16806119cf575b61199c575b50611679565b6119c69394505f5260076020526001600160a01b0360405f2091165f5260205260405f2054612e28565b90848080611996565b5067ffffffffffffffff83161515611991565b60ff919450611a0160049160203d6020116112795761126781836128dc565b949150611980565b9260209150611a1c908451905190612c16565b92516064611a28612cca565b945f6001600160a01b035f5160206130415f395f51905f5254166040519788958694637702dcff60e01b86526004860152602485015260448401525af1908115610826575f91611a82575b611a7d9250612d18565b611841565b90506020823d602011611ab0575b81611a9d602093836128dc565b810103126106c357611a7d915190611a73565b3d9150611a90565b9050335f5260096020526001600160a01b0360405f2091165f5260205260ff60405f20541685611630565b634e487b7160e01b5f52604160045260245ffd5b346106c35760203660031901126106c357611b106127d8565b611b18612aeb565b611b2d60ff60025460a01c16156101ef6128fe565b6001600160a01b03811690815f526004602052611b5960ff600460405f20015460401c166101ef61296e565b335f52600860205260405f2090611b8a6001600160a01b03835460081c16808514908115611ca757506101ef612a45565b335f52600760205260405f20835f52602052602060405f2054845f526004825260405f2092611bee82604051958694859463517046ab60e01b865260048601909493926060926001600160a01b036080840197168352602083015260408201520152565b038173__$655450a95bea827d0f31b36328057c76a3$__5af4908115610826575f91611c75575b50335f52600760205260405f20835f5260205260405f205574ffffffffffffffffffffffffffffffffffffffff0019815416905533907f7d361c02aa3e26ac9383eca42a9b4f42433e252882bfb806e8b76869b815250f5f80a360015f55005b90506020813d602011611c9f575b81611c90602093836128dc565b810103126106c3575183611c15565b3d9150611c83565b905015856109c7565b346106c35760403660031901126106c357611cc96127d8565b6001600160a01b03611cd96127ee565b91165f5260096020526001600160a01b0360405f2091165f52602052602060ff60405f2054166040519015158152f35b346106c3575f3660031901126106c3576040518060206005549283815201809260055f527f036b6384b5eca791c62761152d0c79bb0604c104a5fb6f4eb0703f3154bb3db0905f5b818110611db25750505081611d679103826128dc565b604051918291602083019060208452518091526040830191905f5b818110611d90575050500390f35b82516001600160a01b0316845285945060209384019390920191600101611d82565b82546001600160a01b0316845260209093019260019283019201611d51565b346106c3575f3660031901126106c357602060ff60025460a01c166040519015158152f35b346106c35760203660031901126106c3576001600160a01b03611e176127d8565b5f6020604051611e26816128c0565b8281520152165f5260086020526040805f206001600160a01b03825191611e4c836128c0565b5481602060ff8316151594858152019160081c168152835192835251166020820152f35b346106c35760403660031901126106c357611e896127d8565b6001600160a01b03611e9961286d565b91611eaf60ff60025460a01c16156101ef6128fe565b1690815f526004602052611ed260ff600460405f20015460401c166101ef61296e565b6001600160a01b03600354168214611f07604091825190611ef384836128dc565b60028252611b1960f11b6020830152612942565b825f526004602052611f2760ff6004835f20015460501c166101ef612a25565b335f526009602052805f20835f52602052805f209115159160ff1981541660ff8416179055519081527f0f3cbb56bcd64c784c68341cb9b9a8204d405c113579e2c1826f4675d07a291260203392a3005b346106c35760e03660031901126106c357611f916127d8565b611f9961286d565b611fa161287c565b916064359283151584036106c3576084359267ffffffffffffffff841684036106c35760a43567ffffffffffffffff811681036106c35760c4359567ffffffffffffffff871687036106c35767ffffffffffffffff956120e2612127926001600160a01b0360059861201b826001541633146101ef612a05565b16805f52600460205261205a6001600160a01b0360405f2054161515604051906120466040836128dc565b6002825261363360f01b6020830152612942565b5f5260046020526120ba60405f2097600489019768ff0000000000000000895491151560401b169068ff00000000000000001916178855879069ff000000000000000000825491151560481b169069ff0000000000000000001916179055565b85546aff00000000000000000000191690151560501b6aff0000000000000000000016178555565b83547fffffffffffffffffffffffff0000000000000000ffffffffffffffffffffffff1660609190911b73ffffffffffffffff00000000000000000000000016178355565b67ffffffffffffffff60a01b197bffffffffffffffff000000000000000000000000000000000000000083549260a01b16911617905501911667ffffffffffffffff198254161790555f80f35b346106c35760203660031901126106c35761218d6127d8565b604051637be53ca160e01b8152336004820152906020826024817f00000000000000000000000000000000000000000000000000000000000000006001600160a01b03165afa918215610826576001600160a01b03926121f6915f916107f757506101ef6129c5565b16612202610c076129e5565b6001600160a01b031960025416176002555f80f35b346106c35760403660031901126106c3576122306127d8565b6001600160a01b036122406127ee565b91165f5260066020526001600160a01b0360405f2091165f52602052602060405f2054604051908152f35b346106c3575f3660031901126106c35760206040516001600160a01b037f0000000000000000000000000000000000000000000000000000000000000000168152f35b346106c3575f3660031901126106c357604051631280795b60e11b81523360048201527f00000000000000000000000000000000000000000000000000000000000000006001600160a01b031690602081602481855afa908115610826575f916123ed575b508015612398575b612327906101ef6129a5565b60ff60a01b1960025461235c6040516123416040826128dc565b600281526106a760f31b602082015260ff8360a01c16612942565b1660025560405167ffffffffffffffff421681527fa0d5a0d65544bc3ec189635834f7b55d45a6a96ddb4a916cdad7a168df7ff41b60203392a2005b50602060249160405192838092637be53ca160e01b82523360048301525afa801561082657612327915f916123ce575b5061231b565b6123e7915060203d60201161081f5761081181836128dc565b826123c8565b612406915060203d60201161081f5761081181836128dc565b82612313565b346106c35760203660031901126106c3576124256127d8565b604051612431816128a3565b5f8152602081015f9052604081015f9052606081015f9052608081015f905260a081015f905260c081015f905260e081015f905261010081015f905261012081015f905261014081015f905261016081015f9052610180015f90526001600160a01b03165f52600460205260405f20604051906124ad826128a3565b80546001600160a01b0316918281526001820154916020820192835260028101549060408301918252600381015491606084019283526004820154926080850167ffffffffffffffff8516815260a086018560401c60ff161515815260c08701918660481c60ff161515835260e08801938760501c60ff16151585526101008901958860581c60ff16151587526101208a01978960601c67ffffffffffffffff1689526101408b019960a01c67ffffffffffffffff168a52600501549a6101608b019a67ffffffffffffffff8d168c52610180019b60401c60ff168c526040519c8d525160208d01525160408c01525160608b01525167ffffffffffffffff1660808a015251151560a089015251151560c088015251151560e08701525115156101008601525167ffffffffffffffff166101208501525167ffffffffffffffff166101408401525167ffffffffffffffff166101608301525160ff166101808201526101a090f35b346106c3575f3660031901126106c35760206001600160a01b0360015416604051908152f35b346106c3575f3660031901126106c35760206001600160a01b0360025416604051908152f35b346106c3576001600160a01b0360e4602061267c36612804565b9491959092612689612aeb565b61269e60ff60025460a01c16156101ef6128fe565b1694855f52600484526126c060ff600460405f20015460401c166101ef61296e565b855f52600484528460405f20335f526006865260405f20885f52865260405f2054335f526008875260405f209160405198899788966306c64f7d60e31b88528c6004890152602488015260c060448801528160c4880152878701375f8585018701526064850152608484015260a4830152601f01601f1916810103018173__$485e288c6d7754e653a92a5c1b795be3cc$__5af4908115610826575f916127a6575b50335f52600660205260405f20825f5260205260405f205533907f44367040a4a812a98f8bef9ec29c3a81d253411d511d3730901803c0c341c8d15f80a360015f55005b90506020813d6020116127d0575b816127c1602093836128dc565b810103126106c3575182612762565b3d91506127b4565b600435906001600160a01b03821682036106c357565b602435906001600160a01b03821682036106c357565b9060606003198301126106c3576004356001600160a01b03811681036106c357916024359160443567ffffffffffffffff81116106c357826023820112156106c35780600401359267ffffffffffffffff84116106c357602484830101116106c3576024019190565b6024359081151582036106c357565b6044359081151582036106c357565b6005548110156106c75760055f5260205f2001905f90565b6101a0810190811067ffffffffffffffff821117611ae357604052565b6040810190811067ffffffffffffffff821117611ae357604052565b90601f8019910116810190811067ffffffffffffffff821117611ae357604052565b6040519061290d6040836128dc565b6002825261313960f01b6020830152565b805180835260209291819084018484015e5f828201840152601f01601f1916010190565b1561294a5750565b60405162461bcd60e51b8152602060048201529081906113c090602483019061291e565b6040519061297d6040836128dc565b60018252603160f81b6020830152565b908160209103126106c3575180151581036106c35790565b604051906129b46040836128dc565b6002825261189960f11b6020830152565b604051906129d46040836128dc565b6002825261031360f41b6020830152565b604051906129f46040836128dc565b6002825261313760f01b6020830152565b60405190612a146040836128dc565b6002825261036360f41b6020830152565b60405190612a346040836128dc565b60028252610d0d60f21b6020830152565b60405190612a546040836128dc565b6002825261363160f01b6020830152565b92919267ffffffffffffffff8211611ae35760405191612a8f601f8201601f1916602001846128dc565b8294818452818301116106c3578281602093845f960137010152565b908160209103126106c3575167ffffffffffffffff811681036106c35790565b60405190612ada6040836128dc565b6002825261353960f01b6020830152565b60025f5414612afa5760025f55565b633ee5aeb560e01b5f5260045ffd5b612b59916020916001600160a01b035f5160206130415f395f51905f525416905f60405180968195829463196d0b9b60e01b8452600484015233602484015260806044840152608483019061291e565b6005606483015203925af1908115610826575f91612be4575b506001600160a01b037f9e7b61f58c47dc699ac88507c4f5bb9f121c03808c5676a8078fe583e46497005416803b156106c3575f8091604460405180948193630f8e573b60e21b83528760048401523360248401525af1801561082657612bd7575090565b5f612be1916128dc565b90565b90506020813d602011612c0e575b81612bff602093836128dc565b810103126106c357515f612b72565b3d9150612bf2565b908115612cba575b8015612ca8575b60209060646001600160a01b035f5160206130415f395f51905f525416935f6040519586948593631d44e90160e21b8552600485015260248401528160448401525af1908115610826575f91612c79575090565b90506020813d602011612ca0575b81612c94602093836128dc565b810103126106c3575190565b3d9150612c87565b506020612cb3612cca565b9050612c25565b9050612cc4612cca565b90612c1e565b5f60206001600160a01b035f5160206130415f395f51905f525416604460405180948193639cd07acb60e01b8352816004840152600560248401525af1908115610826575f91612c79575090565b6001600160a01b03815116805f52600460205260405f2092604083015160808401946001600160a01b03865116926040519463367dfd7d60e01b86526004860152602485015260448401526064830152608482015260208160a48173__$485e288c6d7754e653a92a5c1b795be3cc$__5af4908115610826575f91612def575b506001600160a01b03918291828551165f52600660205260405f208380845116165f5260205260405f20555116915116907f34d58c18c6c1df2c698ccac556acea92941ca7b99d2fccf9e3ac1852d0dec36f5f80a3565b90506020813d602011612e20575b81612e0a602093836128dc565b810103126106c357516001600160a01b03612d98565b3d9150612dfd565b9067ffffffffffffffff811615612ebc57612e4291612f4b565b8015612ea8575b5f5160206130415f395f51905f5254604051635a53accb60e01b81526004810192909252620f42406024830152600160f81b6044830152602090829060649082905f906001600160a01b03165af1908115610826575f91612c79575090565b505f6020612eb4612cca565b915050612e49565b5050612be1612cca565b908115612f3b575b8015612f29575b60209060646001600160a01b035f5160206130415f395f51905f525416935f60405195869485936385362ee760e01b8552600485015260248401528160448401525af1908115610826575f91612c79575090565b506020612f34612cca565b9050612ed5565b9050612f45612cca565b90612ece565b67ffffffffffffffff916020918015612fb5575b6064905f6001600160a01b035f5160206130415f395f51905f5254166040519687958694630afe14ad60e31b86526004860152166024840152600160f81b60448401525af1908115610826575f91612c79575090565b506064612fc0612cca565b9050612f5f565b801561302c575b5f5160206130415f395f51905f5254604051635a53accb60e01b815260048101929092526127106024830152600160f81b6044830152602090829060649082905f906001600160a01b03165af1908115610826575f91612c79575090565b505f6020613038612cca565b915050612fce56fe9e7b61f58c47dc699ac88507c4f5bb9f121c03808c5676a8078fe583e4649701a164736f6c634300081b000a",
  "libraries": {
    "SupplyLogic": "0x47B72FF8e35239686Fe07d6dC2C1bdCaBcEf1769",
    "BorrowLogic": "0x5B227f4cBF1cd18b29F46E7d248c66f82Cc56197"
  },
  "devdoc": {
    "errors": {
      "ReentrancyGuardReentrantCall()": [
        {
          "details": "Unauthorized reentrant call."
        }
      ]
    },
    "kind": "dev",
    "methods": {
      "repay(address,bytes32,bytes)": {
        "details": "Does NOT clear currentDebtAsset tracker, even if balance reaches zero.",
        "params": {
          "amountE6": "The encrypted amount (normalized to 6 decimals) to repay.",
          "asset": "The address of the asset to repay.",
          "inputProof": "FHEVM input proof for the encrypted amount."
        }
      }
    },
    "version": 1
  },
  "userdoc": {
    "kind": "user",
    "methods": {
      "repay(address,bytes32,bytes)": {
        "notice": "Repay logic - Calls BorrowLogic which handles de-normalization."
      }
    },
    "version": 1
  },
  "storageLayout": {
    "storage": [
      {
        "astId": 41122,
        "contract": "contracts/protocol/ConfidentialLendingPool.sol:ConfidentialLendingPool",
        "label": "_status",
        "offset": 0,
        "slot": "0",
        "type": "t_uint256"
      },
      {
        "astId": 42645,
        "contract": "contracts/protocol/ConfidentialLendingPool.sol:ConfidentialLendingPool",
        "label": "configurator",
        "offset": 0,
        "slot": "1",
        "type": "t_contract(IConfidentialPoolConfigurator)41783"
      },
      {
        "astId": 42648,
        "contract": "contracts/protocol/ConfidentialLendingPool.sol:ConfidentialLendingPool",
        "label": "priceOracle",
        "offset": 0,
        "slot": "2",
        "type": "t_contract(IPriceOracle)41820"
      },
      {
        "astId": 42650,
        "contract": "contracts/protocol/ConfidentialLendingPool.sol:ConfidentialLendingPool",
        "label": "paused",
        "offset": 20,
        "slot": "2",
        "type": "t_bool"
      },
      {
        "astId": 42652,
        "contract": "contracts/protocol/ConfidentialLendingPool.sol:ConfidentialLendingPool",
        "label": "cethAddress",
        "offset": 0,
        "slot": "3",
        "type": "t_address"
      },
      {
        "astId": 42657,
        "contract": "contracts/protocol/ConfidentialLendingPool.sol:ConfidentialLendingPool",
        "label": "reserves",
        "offset": 0,
        "slot": "4",
        "type": "t_mapping(t_address,t_struct(ConfidentialReserve)42548_storage)"
      },
      {
        "astId": 42660,
        "contract": "contracts/protocol/ConfidentialLendingPool.sol:ConfidentialLendingPool",
        "label": "reserveList",
        "offset": 0,
        "slot": "5",
        "type": "t_array(t_address)dyn_storage"
      },
      {
        "astId": 42667,
        "contract": "contracts/protocol/ConfidentialLendingPool.sol:ConfidentialLendingPool",
        "label": "_userSuppliedBalances",
        "offset": 0,
        "slot": "6",
        "type": "t_mapping(t_address,t_mapping(t_address,t_userDefinedValueType(euint64)46099))"
      },
      {
        "astId": 42674,
        "contract": "contracts/protocol/ConfidentialLendingPool.sol:ConfidentialLendingPool",
        "label": "_userBorrowedBalances",
        "offset": 0,
        "slot": "7",
        "type": "t_mapping(t_address,t_mapping(t_address,t_userDefinedValueType(euint64)46099))"
      },
      {
        "astId": 42679,
        "contract": "contracts/protocol/ConfidentialLendingPool.sol:ConfidentialLendingPool",
        "label": "_userPositions",
        "offset": 0,
        "slot": "8",
        "type": "t_mapping(t_address,t_struct(ConfidentialUserPosition)42554_storage)"
      },
      {
        "astId": 42685,
        "contract": "contracts/protocol/ConfidentialLendingPool.sol:ConfidentialLendingPool",
        "label": "userCollateralEnabled",
        "offset": 0,
        "slot": "9",
        "type": "t_mapping(t_address,t_mapping(t_address,t_bool))"
      }
    ],
    "types": {
      "t_address": {
        "encoding": "inplace",
        "label": "address",
        "numberOfBytes": "20"
      },
      "t_array(t_address)dyn_storage": {
        "base": "t_address",
        "encoding": "dynamic_array",
        "label": "address[]",
        "numberOfBytes": "32"
      },
      "t_bool": {
        "encoding": "inplace",
        "label": "bool",
        "numberOfBytes": "1"
      },
      "t_contract(IConfidentialPoolConfigurator)41783": {
        "encoding": "inplace",
        "label": "contract IConfidentialPoolConfigurator",
        "numberOfBytes": "20"
      },
      "t_contract(IPriceOracle)41820": {
        "encoding": "inplace",
        "label": "contract IPriceOracle",
        "numberOfBytes": "20"
      },
      "t_mapping(t_address,t_bool)": {
        "encoding": "mapping",
        "key": "t_address",
        "label": "mapping(address => bool)",
        "numberOfBytes": "32",
        "value": "t_bool"
      },
      "t_mapping(t_address,t_mapping(t_address,t_bool))": {
        "encoding": "mapping",
        "key": "t_address",
        "label": "mapping(address => mapping(address => bool))",
        "numberOfBytes": "32",
        "value": "t_mapping(t_address,t_bool)"
      },
      "t_mapping(t_address,t_mapping(t_address,t_userDefinedValueType(euint64)46099))": {
        "encoding": "mapping",
        "key": "t_address",
        "label": "mapping(address => mapping(address => euint64))",
        "numberOfBytes": "32",
        "value": "t_mapping(t_address,t_userDefinedValueType(euint64)46099)"
      },
      "t_mapping(t_address,t_struct(ConfidentialReserve)42548_storage)": {
        "encoding": "mapping",
        "key": "t_address",
        "label": "mapping(address => struct Types.ConfidentialReserve)",
        "numberOfBytes": "32",
        "value": "t_struct(ConfidentialReserve)42548_storage"
      },
      "t_mapping(t_address,t_struct(ConfidentialUserPosition)42554_storage)": {
        "encoding": "mapping",
        "key": "t_address",
        "label": "mapping(address => struct Types.ConfidentialUserPosition)",
        "numberOfBytes": "32",
        "value": "t_struct(ConfidentialUserPosition)42554_storage"
      },
      "t_mapping(t_address,t_userDefinedValueType(euint64)46099)": {
        "encoding": "mapping",
        "key": "t_address",
        "label": "mapping(address => euint64)",
        "numberOfBytes": "32",
        "value": "t_userDefinedValueType(euint64)46099"
      },
      "t_struct(ConfidentialReserve)42548_storage": {
        "encoding": "inplace",
        "label": "struct Types.ConfidentialReserve",
        "members": [
          {
            "astId": 42520,
            "contract": "contracts/protocol/ConfidentialLendingPool.sol:ConfidentialLendingPool",
            "label": "underlyingAsset",
            "offset": 0,
            "slot": "0",
            "type": "t_address"
          },
          {
            "astId": 42523,
            "contract": "contracts/protocol/ConfidentialLendingPool.sol:ConfidentialLendingPool",
            "label": "totalSupplied",
            "offset": 0,
            "slot": "1",
            "type": "t_userDefinedValueType(euint64)46099"
          },
          {
            "astId": 42526,
            "contract": "contracts/protocol/ConfidentialLendingPool.sol:ConfidentialLendingPool",
            "label": "totalBorrowed",
            "offset": 0,
            "slot": "2",
            "type": "t_userDefinedValueType(euint64)46099"
          },
          {
            "astId": 42529,
            "contract": "contracts/protocol/ConfidentialLendingPool.sol:ConfidentialLendingPool",
            "label": "availableLiquidity",
            "offset": 0,
            "slot": "3",
            "type": "t_userDefinedValueType(euint64)46099"
          },
          {
            "astId": 42531,
            "contract": "contracts/protocol/ConfidentialLendingPool.sol:ConfidentialLendingPool",
            "label": "lastUpdateTimestamp",
            "offset": 0,
            "slot": "4",
            "type": "t_uint64"
          },
          {
            "astId": 42533,
            "contract": "contracts/protocol/ConfidentialLendingPool.sol:ConfidentialLendingPool",
            "label": "active",
            "offset": 8,
            "slot": "4",
            "type": "t_bool"
          },
          {
            "astId": 42535,
            "contract": "contracts/protocol/ConfidentialLendingPool.sol:ConfidentialLendingPool",
            "label": "borrowingEnabled",
            "offset": 9,
            "slot": "4",
            "type": "t_bool"
          },
          {
            "astId": 42537,
            "contract": "contracts/protocol/ConfidentialLendingPool.sol:ConfidentialLendingPool",
            "label": "isCollateral",
            "offset": 10,
            "slot": "4",
            "type": "t_bool"
          },
          {
            "astId": 42539,
            "contract": "contracts/protocol/ConfidentialLendingPool.sol:ConfidentialLendingPool",
            "label": "isPaused",
            "offset": 11,
            "slot": "4",
            "type": "t_bool"
          },
          {
            "astId": 42541,
            "contract": "contracts/protocol/ConfidentialLendingPool.sol:ConfidentialLendingPool",
            "label": "collateralFactor",
            "offset": 12,
            "slot": "4",
            "type": "t_uint64"
          },
          {
            "astId": 42543,
            "contract": "contracts/protocol/ConfidentialLendingPool.sol:ConfidentialLendingPool",
            "label": "supplyCap",
            "offset": 20,
            "slot": "4",
            "type": "t_uint64"
          },
          {
            "astId": 42545,
            "contract": "contracts/protocol/ConfidentialLendingPool.sol:ConfidentialLendingPool",
            "label": "borrowCap",
            "offset": 0,
            "slot": "5",
            "type": "t_uint64"
          },
          {
            "astId": 42547,
            "contract": "contracts/protocol/ConfidentialLendingPool.sol:ConfidentialLendingPool",
            "label": "decimals",
            "offset": 8,
            "slot": "5",
            "type": "t_uint8"
          }
        ],
        "numberOfBytes": "192"
      },
      "t_struct(ConfidentialUserPosition)42554_storage": {
        "encoding": "inplace",
        "label": "struct Types.ConfidentialUserPosition",
        "members": [
          {
            "astId": 42551,
            "contract": "contracts/protocol/ConfidentialLendingPool.sol:ConfidentialLendingPool",
            "label": "initialized",
            "offset": 0,
            "slot": "0",
            "type": "t_bool"
          },
          {
            "astId": 42553,
            "contract": "contracts/protocol/ConfidentialLendingPool.sol:ConfidentialLendingPool",
            "label": "currentDebtAsset",
            "offset": 1,
            "slot": "0",
            "type": "t_address"
          }
        ],
        "numberOfBytes": "32"
      },
      "t_uint256": {
        "encoding": "inplace",
        "label": "uint256",
        "numberOfBytes": "32"
      },
      "t_uint64": {
        "encoding": "inplace",
        "label": "uint64",
        "numberOfBytes": "8"
      },
      "t_uint8": {
        "encoding": "inplace",
        "label": "uint8",
        "numberOfBytes": "1"
      },
      "t_userDefinedValueType(euint64)46099": {
        "encoding": "inplace",
        "label": "euint64",
        "numberOfBytes": "32"
      }
    }
  }
}